{
  "contractName": "CollectFund",
  "abi": [
    {
      "constant": true,
      "inputs": [
        {
          "name": "",
          "type": "uint256"
        }
      ],
      "name": "AllProposalIDs",
      "outputs": [
        {
          "name": "proposalID",
          "type": "bytes32"
        }
      ],
      "payable": false,
      "stateMutability": "view",
      "type": "function"
    },
    {
      "inputs": [],
      "payable": false,
      "stateMutability": "nonpayable",
      "type": "constructor"
    },
    {
      "anonymous": false,
      "inputs": [
        {
          "indexed": false,
          "name": "_from",
          "type": "address"
        },
        {
          "indexed": false,
          "name": "_value",
          "type": "uint256"
        }
      ],
      "name": "EtherTransfer",
      "type": "event"
    },
    {
      "anonymous": false,
      "inputs": [
        {
          "indexed": false,
          "name": "_proposalOwner",
          "type": "address"
        },
        {
          "indexed": false,
          "name": "_proposalID",
          "type": "bytes32"
        },
        {
          "indexed": false,
          "name": "_fundingGoal",
          "type": "uint256"
        }
      ],
      "name": "GoalReached",
      "type": "event"
    },
    {
      "anonymous": false,
      "inputs": [
        {
          "indexed": false,
          "name": "_proposalOwner",
          "type": "address"
        },
        {
          "indexed": false,
          "name": "_proposalID",
          "type": "bytes32"
        },
        {
          "indexed": false,
          "name": "_amount",
          "type": "uint256"
        }
      ],
      "name": "GetFundAfterGoalReached",
      "type": "event"
    },
    {
      "anonymous": false,
      "inputs": [
        {
          "indexed": false,
          "name": "_lender",
          "type": "address"
        },
        {
          "indexed": false,
          "name": "_proposalID",
          "type": "bytes32"
        },
        {
          "indexed": false,
          "name": "_amount",
          "type": "uint256"
        }
      ],
      "name": "WithdrawFundWhenGoalNotReached",
      "type": "event"
    },
    {
      "constant": false,
      "inputs": [
        {
          "name": "_proposalID",
          "type": "bytes32"
        },
        {
          "name": "_fundingGoal",
          "type": "uint256"
        },
        {
          "name": "_interestRate",
          "type": "uint8"
        },
        {
          "name": "_tenureInMonths",
          "type": "uint8"
        }
      ],
      "name": "submitProposal",
      "outputs": [],
      "payable": false,
      "stateMutability": "nonpayable",
      "type": "function"
    },
    {
      "constant": false,
      "inputs": [
        {
          "name": "_proposalID",
          "type": "bytes32"
        }
      ],
      "name": "lendMoneyToProposal",
      "outputs": [],
      "payable": true,
      "stateMutability": "payable",
      "type": "function"
    },
    {
      "constant": false,
      "inputs": [
        {
          "name": "_proposalID",
          "type": "bytes32"
        }
      ],
      "name": "checkGoalReached",
      "outputs": [],
      "payable": false,
      "stateMutability": "nonpayable",
      "type": "function"
    },
    {
      "constant": true,
      "inputs": [
        {
          "name": "_proposalID",
          "type": "bytes32"
        }
      ],
      "name": "getProposalDetailsByProposalID",
      "outputs": [
        {
          "name": "",
          "type": "uint256"
        },
        {
          "name": "",
          "type": "uint8"
        },
        {
          "name": "",
          "type": "uint256"
        },
        {
          "name": "",
          "type": "uint8"
        },
        {
          "name": "",
          "type": "uint256"
        },
        {
          "name": "",
          "type": "bool"
        },
        {
          "name": "",
          "type": "bool"
        }
      ],
      "payable": false,
      "stateMutability": "view",
      "type": "function"
    },
    {
      "constant": true,
      "inputs": [
        {
          "name": "_proposalID",
          "type": "bytes32"
        }
      ],
      "name": "getProposalDueDate",
      "outputs": [
        {
          "name": "",
          "type": "uint256"
        }
      ],
      "payable": false,
      "stateMutability": "view",
      "type": "function"
    },
    {
      "constant": true,
      "inputs": [
        {
          "name": "_proposalID",
          "type": "bytes32"
        }
      ],
      "name": "getDaysRemainingInInstallmentDue",
      "outputs": [
        {
          "name": "",
          "type": "uint256"
        }
      ],
      "payable": false,
      "stateMutability": "view",
      "type": "function"
    },
    {
      "constant": false,
      "inputs": [
        {
          "name": "_proposalID",
          "type": "bytes32"
        }
      ],
      "name": "getMoneyAsBorrowerAfterDeadline",
      "outputs": [],
      "payable": true,
      "stateMutability": "payable",
      "type": "function"
    },
    {
      "constant": true,
      "inputs": [
        {
          "name": "_proposalID",
          "type": "bytes32"
        }
      ],
      "name": "checkProposalFunding",
      "outputs": [
        {
          "name": "",
          "type": "uint256"
        }
      ],
      "payable": false,
      "stateMutability": "view",
      "type": "function"
    },
    {
      "constant": true,
      "inputs": [
        {
          "name": "_proposalID",
          "type": "bytes32"
        }
      ],
      "name": "getProposalExpiration",
      "outputs": [
        {
          "name": "",
          "type": "uint256"
        }
      ],
      "payable": false,
      "stateMutability": "view",
      "type": "function"
    },
    {
      "constant": true,
      "inputs": [
        {
          "name": "_proposalID",
          "type": "bytes32"
        }
      ],
      "name": "getProposalLendersWithDetails",
      "outputs": [
        {
          "name": "",
          "type": "address[]"
        },
        {
          "name": "",
          "type": "uint256[]"
        },
        {
          "name": "",
          "type": "uint8[]"
        }
      ],
      "payable": false,
      "stateMutability": "view",
      "type": "function"
    },
    {
      "constant": true,
      "inputs": [
        {
          "name": "_proposalID",
          "type": "bytes32"
        },
        {
          "name": "_lender",
          "type": "address"
        }
      ],
      "name": "getLenderDetails",
      "outputs": [
        {
          "name": "",
          "type": "uint256"
        },
        {
          "name": "",
          "type": "uint8"
        }
      ],
      "payable": false,
      "stateMutability": "view",
      "type": "function"
    },
    {
      "constant": true,
      "inputs": [],
      "name": "getBorrrowerSpecificProposals",
      "outputs": [
        {
          "name": "",
          "type": "bytes32[]"
        }
      ],
      "payable": false,
      "stateMutability": "view",
      "type": "function"
    },
    {
      "constant": true,
      "inputs": [],
      "name": "getAllProposalsForBorrowerList",
      "outputs": [
        {
          "name": "",
          "type": "bytes32[]"
        }
      ],
      "payable": false,
      "stateMutability": "view",
      "type": "function"
    },
    {
      "constant": true,
      "inputs": [],
      "name": "getLenderSuccessfulProposals",
      "outputs": [
        {
          "name": "",
          "type": "bytes32[]"
        }
      ],
      "payable": false,
      "stateMutability": "view",
      "type": "function"
    },
    {
      "constant": true,
      "inputs": [
        {
          "name": "_proposalID",
          "type": "bytes32"
        }
      ],
      "name": "getInstallmentStartTS",
      "outputs": [
        {
          "name": "",
          "type": "uint256"
        }
      ],
      "payable": false,
      "stateMutability": "view",
      "type": "function"
    }
  ],
  "bytecode": "0x60806040526201518060005562278d0060035534801561001e57600080fd5b5033600460006101000a81548173ffffffffffffffffffffffffffffffffffffffff021916908373ffffffffffffffffffffffffffffffffffffffff160217905550611bd98061006f6000396000f3006080604052600436106100e6576000357c0100000000000000000000000000000000000000000000000000000000900463ffffffff1680630973f70b146100eb5780630e37e9261461015d5780631e606c1b146101815780633e1d8c65146101ed5780633f48b433146102325780634466f1b21461027757806387a965f2146102fa5780639276c8c414610343578063994a7bd6146103af5780639b91e76b146103f45780639f4192df1461050a578063a5ba04451461054f578063d4c1695d146105bb578063e1947c6a14610600578063e7f6549a14610631578063eaaa3e0714610655575b600080fd5b3480156100f757600080fd5b5061013a6004803603810190808035600019169060200190929190803573ffffffffffffffffffffffffffffffffffffffff1690602001909291905050506106aa565b604051808381526020018260ff1660ff1681526020019250505060405180910390f35b61017f600480360381019080803560001916906020019092919050505061077d565b005b34801561018d57600080fd5b50610196610969565b6040518080602001828103825283818151815260200191508051906020019060200280838360005b838110156101d95780820151818401526020810190506101be565b505050509050019250505060405180910390f35b3480156101f957600080fd5b5061021c6004803603810190808035600019169060200190929190505050610a02565b6040518082815260200191505060405180910390f35b34801561023e57600080fd5b506102616004803603810190808035600019169060200190929190505050610a30565b6040518082815260200191505060405180910390f35b34801561028357600080fd5b506102a66004803603810190808035600019169060200190929190505050610a55565b604051808881526020018760ff1660ff1681526020018681526020018560ff1660ff168152602001848152602001831515151581526020018215151515815260200197505050505050505060405180910390f35b34801561030657600080fd5b5061032560048036038101908080359060200190929190505050610b80565b60405180826000191660001916815260200191505060405180910390f35b34801561034f57600080fd5b50610358610ba9565b6040518080602001828103825283818151815260200191508051906020019060200280838360005b8381101561039b578082015181840152602081019050610380565b505050509050019250505060405180910390f35b3480156103bb57600080fd5b506103de6004803603810190808035600019169060200190929190505050610ceb565b6040518082815260200191505060405180910390f35b34801561040057600080fd5b506104236004803603810190808035600019169060200190929190505050610d42565b60405180806020018060200180602001848103845287818151815260200191508051906020019060200280838360005b8381101561046e578082015181840152602081019050610453565b50505050905001848103835286818151815260200191508051906020019060200280838360005b838110156104b0578082015181840152602081019050610495565b50505050905001848103825285818151815260200191508051906020019060200280838360005b838110156104f25780820151818401526020810190506104d7565b50505050905001965050505050505060405180910390f35b34801561051657600080fd5b506105396004803603810190808035600019169060200190929190505050611015565b6040518082815260200191505060405180910390f35b34801561055b57600080fd5b5061056461106e565b6040518080602001828103825283818151815260200191508051906020019060200280838360005b838110156105a757808201518184015260208101905061058c565b505050509050019250505060405180910390f35b3480156105c757600080fd5b506105ea600480360381019080803560001916906020019092919050505061128f565b6040518082815260200191505060405180910390f35b34801561060c57600080fd5b5061062f60048036038101908080356000191690602001909291905050506112b7565b005b6106536004803603810190808035600019169060200190929190505050611509565b005b34801561066157600080fd5b506106a8600480360381019080803560001916906020019092919080359060200190929190803560ff169060200190929190803560ff16906020019092919050505061180f565b005b600080600b6000856000191660001916815260200190815260200160002060008473ffffffffffffffffffffffffffffffffffffffff1673ffffffffffffffffffffffffffffffffffffffff16815260200190815260200160002060000154600b6000866000191660001916815260200190815260200160002060008573ffffffffffffffffffffffffffffffffffffffff1673ffffffffffffffffffffffffffffffffffffffff16815260200190815260200160002060010160009054906101000a900460ff16915091509250929050565b6000808260076000826000191660001916815260200190815260200160002054421015156109635783600a6000826000191660001916815260200190815260200160002060009054906101000a900460ff161515610961578460096000826000191660001916815260200190815260200160002060009054906101000a900473ffffffffffffffffffffffffffffffffffffffff1673ffffffffffffffffffffffffffffffffffffffff163373ffffffffffffffffffffffffffffffffffffffff16141561095f5760096000876000191660001916815260200190815260200160002060009054906101000a900473ffffffffffffffffffffffffffffffffffffffff16945060066000876000191660001916815260200190815260200160002093508473ffffffffffffffffffffffffffffffffffffffff166108fc85600001549081150290604051600060405180830381858888f193505050501561095e577f9d1f44b07a1e13b6770919ebe68747618bac8204edf2025dc82e47a1f813551585878660000154604051808473ffffffffffffffffffffffffffffffffffffffff1673ffffffffffffffffffffffffffffffffffffffff1681526020018360001916600019168152602001828152602001935050505060405180910390a15b5b505b505b50505050565b6060600860003373ffffffffffffffffffffffffffffffffffffffff1673ffffffffffffffffffffffffffffffffffffffff1681526020019081526020016000208054806020026020016040519081016040528092919081815260200182805480156109f857602002820191906000526020600020905b815460001916815260200190600101908083116109e0575b5050505050905090565b600042610a0e83611015565b1115610a265742610a1e83611015565b039050610a2b565b600090505b919050565b6000600760008360001916600019168152602001908152602001600020549050919050565b600080600080600080600060066000896000191660001916815260200190815260200160002060000154600660008a6000191660001916815260200190815260200160002060010160009054906101000a900460ff16600660008b6000191660001916815260200190815260200160002060020154600660008c6000191660001916815260200190815260200160002060030160009054906101000a900460ff16600660008d6000191660001916815260200190815260200160002060040154600f60008e6000191660001916815260200190815260200160002060009054906101000a900460ff16600a60008f6000191660001916815260200190815260200160002060009054906101000a900460ff169650965096509650965096509650919395979092949650565b600581815481101515610b8f57fe5b906000526020600020016000915090508060000154905081565b60606000610bb5611b79565b60058054905060018190555060006002819055505b6001546002541015610c90576005600254815481101515610be757fe5b906000526020600020016020604051908101604052908160008201546000191660001916815250509050600a600082600001516000191660001916815260200190815260200160002060009054906101000a900460ff1615610c795781816000015190806001815401808255809150509060018203906000526020600020016000909192909190915090600019169055505b600260008154809291906001019190505550610bca565b81805480602002602001604051908101604052809291908181526020018280548015610cdf57602002820191906000526020600020905b81546000191681526020019060010190808311610cc7575b50505050509250505090565b600081600a6000826000191660001916815260200190815260200160002060009054906101000a900460ff161515610d3c576010600084600019166000191681526020019081526020016000205491505b50919050565b6060806060806060806000600c6000896000191660001916815260200190815260200160002080549050600181905550600154604051908082528060200260200182016040528015610da35781602001602082028038833980820191505090505b509350600154604051908082528060200260200182016040528015610dd75781602001602082028038833980820191505090505b509250600154604051908082528060200260200182016040528015610e0b5781602001602082028038833980820191505090505b509150600c60008960001916600019168152602001908152602001600020805480602002602001604051908101604052809291908181526020018280548015610ea957602002820191906000526020600020905b8160009054906101000a900473ffffffffffffffffffffffffffffffffffffffff1673ffffffffffffffffffffffffffffffffffffffff1681526020019060010190808311610e5f575b5050505050935060006002819055505b60015460025410156110015783600254815181101515610ed557fe5b906020019060200201519050600b6000896000191660001916815260200190815260200160002060008273ffffffffffffffffffffffffffffffffffffffff1673ffffffffffffffffffffffffffffffffffffffff1681526020019081526020016000206000015483600254815181101515610f4d57fe5b9060200190602002018181525050600b6000896000191660001916815260200190815260200160002060008273ffffffffffffffffffffffffffffffffffffffff1673ffffffffffffffffffffffffffffffffffffffff16815260200190815260200160002060010160009054906101000a900460ff1682600254815181101515610fd457fe5b9060200190602002019060ff16908160ff1681525050600260008154809291906001019190505550610eb9565b838383965096509650505050509193909250565b600080600e6000846000191660001916815260200190815260200160002054141561104a5761104382610ceb565b9050611069565b600e600083600019166000191681526020019081526020016000205490505b919050565b606080600080600d60003373ffffffffffffffffffffffffffffffffffffffff1673ffffffffffffffffffffffffffffffffffffffff168152602001908152602001600020600001805490506001819055506001546040519080825280602002602001820160405280156110f15781602001602082028038833980820191505090505b509250600d60003373ffffffffffffffffffffffffffffffffffffffff1673ffffffffffffffffffffffffffffffffffffffff16815260200190815260200160002060000180548060200260200160405190810160405280929190818152602001828054801561118457602002820191906000526020600020905b8154600019168152602001906001019080831161116c575b5050505050925060006002819055505b600154600254101561123357826002548151811015156111b057fe5b906020019060200201519050600f6000826000191660001916815260200190815260200160002060009054906101000a900460ff161561121c57818190806001815401808255809150509060018203906000526020600020016000909192909190915090600019169055505b600260008154809291906001019190505550611194565b8180548060200260200160405190810160405280929190818152602001828054801561128257602002820191906000526020600020905b8154600019168152602001906001019080831161126a575b5050505050935050505090565b6000600660008360001916600019168152602001908152602001600020600201549050919050565b6000600460009054906101000a900473ffffffffffffffffffffffffffffffffffffffff1673ffffffffffffffffffffffffffffffffffffffff163373ffffffffffffffffffffffffffffffffffffffff161415611505578160076000826000191660001916815260200190815260200160002054421015156115035760066000846000191660001916815260200190815260200160002091508160000154826002015414156114a95760001515600a6000856000191660001916815260200190815260200160002060009054906101000a9050505042601060008560001916600019168152602001908152602001600020819055506113b683611a67565b6001600f6000856000191660001916815260200190815260200160002060006101000a81548160ff0219169083151502179055507fca7dda9f30e83b1017ab663d6725df4277f3c589212935d66d45cd9853076ed360096000856000191660001916815260200190815260200160002060009054906101000a900473ffffffffffffffffffffffffffffffffffffffff16848460000154604051808473ffffffffffffffffffffffffffffffffffffffff1673ffffffffffffffffffffffffffffffffffffffff1681526020018360001916600019168152602001828152602001935050505060405180910390a1611502565b60001515600a6000856000191660001916815260200190815260200160002060009054906101000a9050505060001515600f6000856000191660001916815260200190815260200160002060009054906101000a905050505b5b505b5050565b6000611513611b90565b823460066000836000191660001916815260200190815260200160002060020154600660008460001916600019168152602001908152602001600020600001540381111515611808578460076000826000191660001916815260200190815260200160002054421115156118065785600a6000826000191660001916815260200190815260200160002060009054906101000a900460ff16156118045760003411156118035760066000886000191660001916815260200190815260200160002095506115e4866002015434611b05565b86600201819055503485600001818152505061160e611604346064611b23565b8760000154611b5e565b856020019060ff16908160ff168152505084600b6000896000191660001916815260200190815260200160002060003373ffffffffffffffffffffffffffffffffffffffff1673ffffffffffffffffffffffffffffffffffffffff1681526020019081526020016000206000820151816000015560208201518160010160006101000a81548160ff021916908360ff160217905550905050600c600088600019166000191681526020019081526020016000203390806001815401808255809150509060018203906000526020600020016000909192909190916101000a81548173ffffffffffffffffffffffffffffffffffffffff021916908373ffffffffffffffffffffffffffffffffffffffff16021790555050600d60003373ffffffffffffffffffffffffffffffffffffffff1673ffffffffffffffffffffffffffffffffffffffff1681526020019081526020016000206000018790806001815401808255809150509060018203906000526020600020016000909192909190915090600019169055507f1853ca9dc0208799379313b2b43364e45db022f073c72648fbc206dc0bacbcdc3334604051808373ffffffffffffffffffffffffffffffffffffffff1673ffffffffffffffffffffffffffffffffffffffff1681526020018281526020019250505060405180910390a15b5b505b505b5050505050565b60a0604051908101604052808481526020018360ff168152602001600081526020018260ff168152602001428152506006600086600019166000191681526020019081526020016000206000820151816000015560208201518160010160006101000a81548160ff021916908360ff1602179055506040820151816002015560608201518160030160006101000a81548160ff021916908360ff16021790555060808201518160040155905050600860003373ffffffffffffffffffffffffffffffffffffffff1673ffffffffffffffffffffffffffffffffffffffff1681526020019081526020016000208490806001815401808255809150509060018203906000526020600020016000909192909190915090600019169055506000544201600760008660001916600019168152602001908152602001600020819055503360096000866000191660001916815260200190815260200160002060006101000a81548173ffffffffffffffffffffffffffffffffffffffff021916908373ffffffffffffffffffffffffffffffffffffffff1602179055506001600a6000866000191660001916815260200190815260200160002060006101000a81548160ff0219169083151502179055506000600f6000866000191660001916815260200190815260200160002060006101000a81548160ff021916908315150217905550600560206040519081016040528086600019168152509080600181540180825580915050906001820390600052602060002001600090919290919091506000820151816000019060001916905550505050505050565b6000611a7282610ceb565b90506000600e60008460001916600019168152602001908152602001600020541415611ac1576003548101600e6000846000191660001916815260200190815260200160002081905550611b01565b600354600e600084600019166000191681526020019081526020016000205401600e60008460001916600019168152602001908152602001600020819055505b5050565b6000808284019050838110151515611b1957fe5b8091505092915050565b6000806000841415611b385760009150611b57565b8284029050828482811515611b4957fe5b04141515611b5357fe5b8091505b5092915050565b6000808284811515611b6c57fe5b0490508091505092915050565b602060405190810160405280600080191681525090565b604080519081016040528060008152602001600060ff16815250905600a165627a7a723058203d1568a380d8487bcebc2f788475d2eb6f76fe69f01a8ec88397f22af7b38f910029",
  "source": "pragma solidity ^0.4.19;\r\n\r\nimport \"./SafeMath.sol\";\r\n\r\ncontract CollectFund {\r\n\r\n    uint deadline = 1 days;\r\n    using SafeMath for uint256;\r\n    uint256 length;\r\n    uint256 i;\r\n    uint256 duePeriod = 30 days;\r\n    address admin;\r\n\r\n    /*Store proposals raised by borrowers*/\r\n    struct BorrowerProposal {\r\n        uint256 fundingGoal;                                //Funding goal in Ether\r\n        uint8 interestRate;                                 //Rate of interest offered by borrower in the proposal\r\n        uint256 fundingReached;                             //Proposal funding reached\r\n        uint8 tenureInMonths;                               //Proposal loan duration\r\n        uint256 proposalSubmissionTS;                         //If proposal goal achieved proposal start timestamp \r\n    }\r\n\r\n    struct ProposalIDs{\r\n        bytes32 proposalID;\r\n    }\r\n\r\n    ProposalIDs[] public AllProposalIDs;\r\n\r\n    /*Store lender contribution information per proposal per lender address*/\r\n    struct LenderInfo {\r\n        uint256 amount;                                     //Contributed amount\r\n        uint8 fundRatio;                                    //Store contribution ration in an unsigned integer format\r\n    }\r\n\r\n    /*Store contributed proposals per lender*/\r\n    struct LenderContributions{\r\n        bytes32[] proposalID;                               //Store contributed proposal ids\r\n    }\r\n\r\n    mapping (bytes32 => BorrowerProposal) mapProposalsWithProposalIDs;                   //map proposal information with proposal ids\r\n    mapping (bytes32 => uint256) mapProposalWithDeadline;                                //map proposal expiration with proposal ids, default 1 day\r\n    mapping (address => bytes32[]) mapBorrowerWithProposalIDs;                           //map borrower's raised porposals with his address\r\n    mapping (bytes32 => address) mapProposalWithOwner;                                   //map proposal ids with proposal owners/borrower's address\r\n    mapping (bytes32 => bool) mapProposalOpenStatusWithProposalID;                                              //map proposal ids with activity status\r\n    mapping (bytes32 => mapping(address =>LenderInfo)) mapProposalWithLenderInfo;        //map proposal ids and contributer's address with contribution - 2d\r\n    mapping (bytes32 => address[]) mapLendersWithProposal;                               //map proposal ids with contributers\r\n    mapping (address => LenderContributions) mapProposalIDsWithLenders;                 //map contributer's information with contributed proposal ids\r\n    mapping (bytes32 => uint256) mapProposalIDWithNextDueDate;                           //map next instllment due date with proposal/loan ids\r\n    mapping (bytes32 => bool) mapProposalSuccessStatusWithProposalID;\r\n    mapping (bytes32 => uint256) mapProposalWithInstallmentStartTS;\r\n\r\n\r\n    event EtherTransfer(address _from, uint256 _value);                                             \r\n    event GoalReached(address _proposalOwner, bytes32 _proposalID, uint256 _fundingGoal);            \r\n    event GetFundAfterGoalReached(address _proposalOwner, bytes32 _proposalID, uint256 _amount);\r\n    event WithdrawFundWhenGoalNotReached(address _lender, bytes32 _proposalID, uint256 _amount);\r\n\r\n    modifier checkDeadline(bytes32 _proposalID) {\r\n        if (now <= mapProposalWithDeadline[_proposalID])\r\n        _;\r\n    }\r\n\r\n    modifier afterDeadline(bytes32 _proposalID) {\r\n        if (now >= mapProposalWithDeadline[_proposalID])\r\n        _;\r\n    }\r\n\r\n    modifier checkProposalOwner(bytes32 _proposalID) {\r\n        if ( msg.sender == mapProposalWithOwner[_proposalID])\r\n        _;\r\n    }\r\n\r\n    modifier checkProposalStatus(bytes32 _proposalID) {\r\n        if ( mapProposalOpenStatusWithProposalID[_proposalID])\r\n        _;\r\n    }\r\n\r\n    modifier proposalGoalReached(bytes32 _proposalID) {\r\n        if ( !mapProposalOpenStatusWithProposalID[_proposalID])\r\n        _;\r\n    }\r\n\r\n    modifier fundingOverflow(bytes32 _proposalID, uint256 _amount) {\r\n        if (_amount <= (mapProposalsWithProposalIDs[_proposalID].fundingGoal - mapProposalsWithProposalIDs[_proposalID].fundingReached))\r\n        _;\r\n    }\r\n\r\n    modifier onlyAdmin() {\r\n        if (msg.sender == admin) {\r\n            _;\r\n        }\r\n    }\r\n\r\n    function CollectFund() {\r\n        admin = msg.sender;\r\n    }\r\n\r\n    /*Borrower proposal submission with generated proposal id, proposal funding goal, rate of interest and loan tenure */\r\n    function submitProposal(bytes32 _proposalID, uint256 _fundingGoal, uint8 _interestRate, uint8 _tenureInMonths) external {\r\n        mapProposalsWithProposalIDs[_proposalID] = BorrowerProposal(_fundingGoal,_interestRate,0, _tenureInMonths,now);\r\n        mapBorrowerWithProposalIDs[msg.sender].push(_proposalID);\r\n        mapProposalWithDeadline[_proposalID] = now+deadline;\r\n        mapProposalWithOwner[_proposalID] = msg.sender;\r\n        mapProposalOpenStatusWithProposalID[_proposalID] = true;\r\n        mapProposalSuccessStatusWithProposalID[_proposalID] = false;\r\n        AllProposalIDs.push(ProposalIDs(_proposalID)); \r\n    }\r\n\r\n    /*Lend Ethers to proposal by proposal id*/\r\n    function lendMoneyToProposal(bytes32 _proposalID) payable fundingOverflow(_proposalID,msg.value) checkDeadline(_proposalID) checkProposalStatus(_proposalID) external {\r\n        if (msg.value > 0 ) {\r\n            BorrowerProposal storage currentProposal = mapProposalsWithProposalIDs[_proposalID];\r\n            currentProposal.fundingReached = SafeMath.add(currentProposal.fundingReached,msg.value);\r\n            LenderInfo memory currentLender;\r\n            currentLender.amount = msg.value;\r\n            currentLender.fundRatio = uint8(SafeMath.div((SafeMath.mul(msg.value, 100)),(currentProposal.fundingGoal)));\r\n            mapProposalWithLenderInfo[_proposalID][msg.sender] = currentLender;\r\n            mapLendersWithProposal[_proposalID].push(msg.sender);\r\n            mapProposalIDsWithLenders[msg.sender].proposalID.push(_proposalID);       \r\n            EtherTransfer(msg.sender,msg.value);\r\n        }\r\n    }\r\n\r\n    /*Admin to close proposal after deadline and successful funding*/\r\n    function checkGoalReached(bytes32 _proposalID) onlyAdmin afterDeadline(_proposalID) external {\r\n        BorrowerProposal storage currentProposal = mapProposalsWithProposalIDs[_proposalID];\r\n        if (currentProposal.fundingReached == currentProposal.fundingGoal) {\r\n            mapProposalOpenStatusWithProposalID[_proposalID] == false;\r\n            mapProposalWithInstallmentStartTS[_proposalID] = now;\r\n            setNextDueDate(_proposalID);\r\n            mapProposalSuccessStatusWithProposalID[_proposalID] = true;\r\n            GoalReached(mapProposalWithOwner[_proposalID], _proposalID, currentProposal.fundingGoal);\r\n        }\r\n        else{\r\n            mapProposalOpenStatusWithProposalID[_proposalID] == false;\r\n            mapProposalSuccessStatusWithProposalID[_proposalID] == false;\r\n        }\r\n\r\n    }\r\n\r\n    /*Contract internal function to set next installment due date*/\r\n    function setNextDueDate(bytes32 _proposalID) internal {\r\n        uint256 installmentStart = getInstallmentStartTS(_proposalID);\r\n        if (mapProposalIDWithNextDueDate[_proposalID] == 0){\r\n            mapProposalIDWithNextDueDate[_proposalID] = installmentStart + duePeriod;\r\n        }\r\n        else {\r\n            mapProposalIDWithNextDueDate[_proposalID] = mapProposalIDWithNextDueDate[_proposalID] + duePeriod;\r\n        }\r\n    }\r\n\r\n    function getProposalDetailsByProposalID(bytes32 _proposalID) external view returns(uint256,uint8,uint256,uint8,uint256,bool,bool) {\r\n        return (mapProposalsWithProposalIDs[_proposalID].fundingGoal,\r\n        mapProposalsWithProposalIDs[_proposalID].interestRate,\r\n        mapProposalsWithProposalIDs[_proposalID].fundingReached,\r\n        mapProposalsWithProposalIDs[_proposalID].tenureInMonths,\r\n        mapProposalsWithProposalIDs[_proposalID].proposalSubmissionTS,\r\n        mapProposalSuccessStatusWithProposalID[_proposalID],\r\n        mapProposalOpenStatusWithProposalID[_proposalID]);\r\n    }\r\n\r\n    /*Get installment due date by proposal/loan id*/\r\n    function getProposalDueDate(bytes32 _proposalID) view returns(uint256) {\r\n        if (mapProposalIDWithNextDueDate[_proposalID] == 0){\r\n            return getInstallmentStartTS(_proposalID);\r\n        }\r\n        else {\r\n            return mapProposalIDWithNextDueDate[_proposalID];\r\n        }\r\n    }\r\n\r\n    /*Get days left in installment due date by proposal/loan id*/\r\n    function getDaysRemainingInInstallmentDue(bytes32 _proposalID) view returns(uint256) {\r\n        if (getProposalDueDate(_proposalID) > now) {\r\n            return (getProposalDueDate(_proposalID) - now);\r\n        }\r\n        else {\r\n            return 0;\r\n        }\r\n    }\r\n\r\n    /*Get funding as borrower if proposal was successful to be triggered by proposal owner by proposal id*/\r\n    function getMoneyAsBorrowerAfterDeadline(bytes32 _proposalID) payable afterDeadline(_proposalID) proposalGoalReached(_proposalID) checkProposalOwner(_proposalID) external {\r\n        address proposalOwner = mapProposalWithOwner[_proposalID];\r\n        BorrowerProposal storage currentProposal = mapProposalsWithProposalIDs[_proposalID];\r\n        if (proposalOwner.send(currentProposal.fundingGoal)) {\r\n            GetFundAfterGoalReached(proposalOwner, _proposalID, currentProposal.fundingGoal);\r\n        }\r\n    }\r\n\r\n    /*Check funding reached by proposal id*/\r\n    function checkProposalFunding(bytes32 _proposalID) view external returns(uint256) {\r\n        return (mapProposalsWithProposalIDs[_proposalID].fundingReached);\r\n    }\r\n\r\n    /* */\r\n    function getProposalExpiration(bytes32 _proposalID) view external returns(uint256) {\r\n        return mapProposalWithDeadline[_proposalID];\r\n    }\r\n\r\n    function getProposalLendersWithDetails(bytes32 _proposalID) view external returns(address[],uint256[], uint8[]) {\r\n        length = mapLendersWithProposal[_proposalID].length;\r\n        address[] memory lenderAddresses = new address[](length);\r\n        uint256[] memory lenderContributions = new uint256[](length);\r\n        uint8[] memory lenderFundRatios = new uint8[](length);\r\n        lenderAddresses = mapLendersWithProposal[_proposalID];\r\n        for ( i = 0 ; i < length; i++) {\r\n            address currentLender = lenderAddresses[i];\r\n            lenderContributions[i] = mapProposalWithLenderInfo[_proposalID][currentLender].amount;\r\n            lenderFundRatios[i] = mapProposalWithLenderInfo[_proposalID][currentLender].fundRatio;\r\n        }\r\n        return (lenderAddresses,lenderContributions,lenderFundRatios);\r\n    }\r\n\r\n    function getLenderDetails(bytes32 _proposalID, address _lender) view external returns(uint256, uint8) {\r\n    return (mapProposalWithLenderInfo[_proposalID][_lender].amount, mapProposalWithLenderInfo[_proposalID][_lender].fundRatio);\r\n    }\r\n\r\n    function getBorrrowerSpecificProposals() view external returns(bytes32[]) {\r\n        return (mapBorrowerWithProposalIDs[msg.sender]);\r\n    }\r\n\r\n    function getAllProposalsForBorrowerList() view external returns(bytes32[]) {\r\n        length = AllProposalIDs.length;\r\n        bytes32[] activeProposals;\r\n        for (i = 0; i < length; i++) {\r\n            ProposalIDs memory currentProposalID;\r\n            currentProposalID = AllProposalIDs[i];\r\n            if (mapProposalOpenStatusWithProposalID[currentProposalID.proposalID]) {\r\n                activeProposals.push(currentProposalID.proposalID);\r\n            }\r\n        }\r\n        return (activeProposals);\r\n    }\r\n\r\n    function getLenderSuccessfulProposals() view external returns(bytes32[]) {\r\n        length = mapProposalIDsWithLenders[msg.sender].proposalID.length;\r\n        bytes32[] memory lenderContributedProposals = new bytes32[](length);\r\n        bytes32[] successfulProposals;\r\n        lenderContributedProposals = mapProposalIDsWithLenders[msg.sender].proposalID;\r\n        for (i = 0; i < length; i++ ) {\r\n            bytes32 currentProposalID = lenderContributedProposals[i];\r\n            if (mapProposalSuccessStatusWithProposalID[currentProposalID]) {\r\n                successfulProposals.push(currentProposalID);\r\n            }\r\n        }\r\n        return (successfulProposals);\r\n    }\r\n\r\n    /*Get proposal submission timestamp by proposal id */\r\n    function getInstallmentStartTS(bytes32 _proposalID) view proposalGoalReached(_proposalID) returns(uint256) {\r\n        return (mapProposalWithInstallmentStartTS[_proposalID]);\r\n    }\r\n\r\n}",
  "sourcePath": "D:\\work\\P2P-Lending\\WithSafeMath\\contracts\\CollectFund.sol",
  "compiler": {
    "name": "solc",
    "version": "0.4.23+commit.124ca40d.Emscripten.clang"
  },
  "schemaVersion": "2.0.0",
  "updatedAt": "2018-05-11T06:17:11.516Z"
}