{
  "contractName": "CollectFund",
  "abi": [
    {
      "inputs": [],
      "payable": false,
      "stateMutability": "nonpayable",
      "type": "constructor"
    },
    {
      "anonymous": false,
      "inputs": [
        {
          "indexed": false,
          "name": "_from",
          "type": "address"
        },
        {
          "indexed": false,
          "name": "_value",
          "type": "uint256"
        }
      ],
      "name": "EtherTransfer",
      "type": "event"
    },
    {
      "anonymous": false,
      "inputs": [
        {
          "indexed": false,
          "name": "_proposalOwner",
          "type": "address"
        },
        {
          "indexed": false,
          "name": "_proposalID",
          "type": "string"
        },
        {
          "indexed": false,
          "name": "_fundingGoal",
          "type": "uint256"
        }
      ],
      "name": "GoalReached",
      "type": "event"
    },
    {
      "anonymous": false,
      "inputs": [
        {
          "indexed": false,
          "name": "_proposalOwner",
          "type": "address"
        },
        {
          "indexed": false,
          "name": "_proposalID",
          "type": "string"
        },
        {
          "indexed": false,
          "name": "_amount",
          "type": "uint256"
        }
      ],
      "name": "GetFundAfterGoalReached",
      "type": "event"
    },
    {
      "anonymous": false,
      "inputs": [
        {
          "indexed": false,
          "name": "_lender",
          "type": "address"
        },
        {
          "indexed": false,
          "name": "_proposalID",
          "type": "string"
        },
        {
          "indexed": false,
          "name": "_amount",
          "type": "uint256"
        }
      ],
      "name": "WithdrawFundWhenGoalNotReached",
      "type": "event"
    },
    {
      "constant": false,
      "inputs": [
        {
          "name": "_proposalID",
          "type": "string"
        },
        {
          "name": "_fundingGoal",
          "type": "uint256"
        },
        {
          "name": "_interestRate",
          "type": "uint8"
        },
        {
          "name": "_tenureInMonths",
          "type": "uint8"
        }
      ],
      "name": "submitProposal",
      "outputs": [],
      "payable": false,
      "stateMutability": "nonpayable",
      "type": "function"
    },
    {
      "constant": false,
      "inputs": [
        {
          "name": "_proposalID",
          "type": "string"
        },
        {
          "name": "_proposalId",
          "type": "bytes32"
        }
      ],
      "name": "lendMoneyToProposal",
      "outputs": [],
      "payable": true,
      "stateMutability": "payable",
      "type": "function"
    },
    {
      "constant": false,
      "inputs": [
        {
          "name": "_proposalID",
          "type": "string"
        }
      ],
      "name": "reachedGoal",
      "outputs": [],
      "payable": false,
      "stateMutability": "nonpayable",
      "type": "function"
    },
    {
      "constant": false,
      "inputs": [
        {
          "name": "_proposalID",
          "type": "string"
        }
      ],
      "name": "getMoneyAsBorrowerAfterDeadline",
      "outputs": [],
      "payable": true,
      "stateMutability": "payable",
      "type": "function"
    },
    {
      "constant": true,
      "inputs": [
        {
          "name": "_proposalID",
          "type": "string"
        }
      ],
      "name": "checkProposalFunding",
      "outputs": [
        {
          "name": "",
          "type": "uint256"
        }
      ],
      "payable": false,
      "stateMutability": "view",
      "type": "function"
    },
    {
      "constant": true,
      "inputs": [
        {
          "name": "_proposalID",
          "type": "string"
        }
      ],
      "name": "getProposalExpiration",
      "outputs": [
        {
          "name": "",
          "type": "uint256"
        }
      ],
      "payable": false,
      "stateMutability": "view",
      "type": "function"
    },
    {
      "constant": true,
      "inputs": [
        {
          "name": "_proposalID",
          "type": "string"
        }
      ],
      "name": "getProposalLenders",
      "outputs": [
        {
          "name": "",
          "type": "address[]"
        }
      ],
      "payable": false,
      "stateMutability": "view",
      "type": "function"
    },
    {
      "constant": true,
      "inputs": [
        {
          "name": "_proposalID",
          "type": "string"
        }
      ],
      "name": "getLenderDetails",
      "outputs": [
        {
          "name": "",
          "type": "uint256"
        },
        {
          "name": "",
          "type": "uint8"
        }
      ],
      "payable": false,
      "stateMutability": "view",
      "type": "function"
    },
    {
      "constant": true,
      "inputs": [],
      "name": "getLenderProposals",
      "outputs": [
        {
          "name": "",
          "type": "bytes32[]"
        }
      ],
      "payable": false,
      "stateMutability": "view",
      "type": "function"
    }
  ],
  "bytecode": "0x60806040526201518060005534801561001757600080fd5b5033600160006101000a81548173ffffffffffffffffffffffffffffffffffffffff021916908373ffffffffffffffffffffffffffffffffffffffff160217905550611669806100686000396000f300608060405260043610610099576000357c0100000000000000000000000000000000000000000000000000000000900463ffffffff1680633c504ccc1461009e57806363320531146100db578063879d8deb146101195780638d328e13146101565780639071a8881461017f5780639c27cb3e146101aa5780639e9584ec146101e7578063ab28856e14610210578063c920d3e01461022c575b600080fd5b3480156100aa57600080fd5b506100c560048036036100c09190810190611239565b610248565b6040516100d2919061151f565b60405180910390f35b3480156100e757600080fd5b5061010260048036036100fd9190810190611239565b61027b565b60405161011092919061153a565b60405180910390f35b34801561012557600080fd5b50610140600480360361013b9190810190611239565b610368565b60405161014d91906114db565b60405180910390f35b34801561016257600080fd5b5061017d600480360361017891908101906112d6565b61041c565b005b34801561018b57600080fd5b50610194610619565b6040516101a191906114fd565b60405180910390f35b3480156101b657600080fd5b506101d160048036036101cc9190810190611239565b610731565b6040516101de919061151f565b60405180910390f35b3480156101f357600080fd5b5061020e60048036036102099190810190611239565b610761565b005b61022a60048036036102259190810190611239565b61095c565b005b6102466004803603610241919081019061127e565b610bb1565b005b60006004838360405180838380828437820191505092505050908152602001604051809103902060020154905092915050565b60008060003390506009858560405180838380828437820191505092505050908152602001604051809103902060008273ffffffffffffffffffffffffffffffffffffffff1673ffffffffffffffffffffffffffffffffffffffff168152602001908152602001600020600001546009868660405180838380828437820191505092505050908152602001604051809103902060008373ffffffffffffffffffffffffffffffffffffffff1673ffffffffffffffffffffffffffffffffffffffff16815260200190815260200160002060010160009054906101000a900460ff1692509250509250929050565b6060600a838360405180838380828437820191505092505050908152602001604051809103902080548060200260200160405190810160405280929190818152602001828054801561040f57602002820191906000526020600020905b8160009054906101000a900473ffffffffffffffffffffffffffffffffffffffff1673ffffffffffffffffffffffffffffffffffffffff16815260200190600101908083116103c5575b5050505050905092915050565b6080604051908101604052808481526020018360ff168152602001600081526020018260ff16815250600486866040518083838082843782019150509250505090815260200160405180910390206000820151816000015560208201518160010160006101000a81548160ff021916908360ff1602179055506040820151816002015560608201518160030160006101000a81548160ff021916908360ff160217905550905050600660003373ffffffffffffffffffffffffffffffffffffffff1673ffffffffffffffffffffffffffffffffffffffff1681526020019081526020016000208585909180600181540180825580915050906001820390600052602060002001600090919293909192939091929091925091906105409291906110ef565b505060005442016005868660405180838380828437820191505092505050908152602001604051809103902081905550336007868660405180838380828437820191505092505050908152602001604051809103902060006101000a81548173ffffffffffffffffffffffffffffffffffffffff021916908373ffffffffffffffffffffffffffffffffffffffff16021790555060016008868660405180838380828437820191505092505050908152602001604051809103902060006101000a81548160ff0219169083151502179055505050505050565b606080600b60003373ffffffffffffffffffffffffffffffffffffffff1673ffffffffffffffffffffffffffffffffffffffff168152602001908152602001600020600001805490506040519080825280602002602001820160405280156106905781602001602082028038833980820191505090505b509050600b60003373ffffffffffffffffffffffffffffffffffffffff1673ffffffffffffffffffffffffffffffffffffffff16815260200190815260200160002060000180548060200260200160405190810160405280929190818152602001828054801561072357602002820191906000526020600020905b8154600019168152602001906001019080831161070b575b505050505090508091505090565b60006005838360405180838380828437820191505092505050908152602001604051809103902054905092915050565b600082828080601f0160208091040260200160405190810160405280939291908181526020018383808284378201915050505050506005816040518082805190602001908083835b6020831015156107ce57805182526020820191506020810190506020830392506107a9565b6001836020036101000a0380198251168184511680821785525050505050509050019150509081526020016040518091039020544211151561095657600160009054906101000a900473ffffffffffffffffffffffffffffffffffffffff1673ffffffffffffffffffffffffffffffffffffffff163373ffffffffffffffffffffffffffffffffffffffff1614156109555760048484604051808383808284378201915050925050509081526020016040518091039020915081600001548260020154141561095457600015156008858560405180838380828437820191505092505050908152602001604051809103902060009054906101000a905050507f0919547352c3feb5516e059a7a2c5bf9739f61eb5c02673dbb990c9d71147c7e6007858560405180838380828437820191505092505050908152602001604051809103902060009054906101000a900473ffffffffffffffffffffffffffffffffffffffff168585856000015460405161094b9493929190611472565b60405180910390a15b5b5b50505050565b60008083838080601f0160208091040260200160405190810160405280939291908181526020018383808284378201915050505050506005816040518082805190602001908083835b6020831015156109ca57805182526020820191506020810190506020830392506109a5565b6001836020036101000a03801982511681845116808217855250505050505090500191505090815260200160405180910390205442101515610baa5784848080601f0160208091040260200160405190810160405280939291908181526020018383808284378201915050505050506008816040518082805190602001908083835b602083101515610a715780518252602082019150602081019050602083039250610a4c565b6001836020036101000a038019825116818451168082178552505050505050905001915050908152602001604051809103902060009054906101000a900460ff161515610ba8576007868660405180838380828437820191505092505050908152602001604051809103902060009054906101000a900473ffffffffffffffffffffffffffffffffffffffff1693506004868660405180838380828437820191505092505050908152602001604051809103902092508373ffffffffffffffffffffffffffffffffffffffff166108fc84600001549081150290604051600060405180830381858888f1935050505015610ba7577fd169e4413209130c0ad529abc8385aedc3f0be5237db60476597303dad223ef28487878660000154604051610b9e9493929190611472565b60405180910390a15b5b505b5050505050565b6000610bbb61116f565b84848080601f016020809104026020016040519081016040528093929190818152602001838380828437820191505050505050346004826040518082805190602001908083835b602083101515610c275780518252602082019150602081019050602083039250610c02565b6001836020036101000a0380198251168184511680821785525050505050509050019150509081526020016040518091039020600201546004836040518082805190602001908083835b602083101515610c965780518252602082019150602081019050602083039250610c71565b6001836020036101000a03801982511681845116808217855250505050505090500191505090815260200160405180910390206000015403811115156110725786868080601f0160208091040260200160405190810160405280939291908181526020018383808284378201915050505050506005816040518082805190602001908083835b602083101515610d415780518252602082019150602081019050602083039250610d1c565b6001836020036101000a038019825116818451168082178552505050505050905001915050908152602001604051809103902054421115156110705787878080601f0160208091040260200160405190810160405280939291908181526020018383808284378201915050505050506008816040518082805190602001908083835b602083101515610de85780518252602082019150602081019050602083039250610dc3565b6001836020036101000a038019825116818451168082178552505050505050905001915050908152602001604051809103902060009054906101000a900460ff161561106e57600034111561106d57600489896040518083838082843782019150509250505090815260200160405180910390209550610e6c86600201543461107b565b866002018190555034856000018181525050610e96610e8c346064611099565b87600001546110d4565b856020019060ff16908160ff16815250508460098a8a60405180838380828437820191505092505050908152602001604051809103902060003373ffffffffffffffffffffffffffffffffffffffff1673ffffffffffffffffffffffffffffffffffffffff1681526020019081526020016000206000820151816000015560208201518160010160006101000a81548160ff021916908360ff160217905550905050600a89896040518083838082843782019150509250505090815260200160405180910390203390806001815401808255809150509060018203906000526020600020016000909192909190916101000a81548173ffffffffffffffffffffffffffffffffffffffff021916908373ffffffffffffffffffffffffffffffffffffffff16021790555050600b60003373ffffffffffffffffffffffffffffffffffffffff1673ffffffffffffffffffffffffffffffffffffffff1681526020019081526020016000206000018790806001815401808255809150509060018203906000526020600020016000909192909190915090600019169055507f1853ca9dc0208799379313b2b43364e45db022f073c72648fbc206dc0bacbcdc33346040516110649291906114b2565b60405180910390a15b5b505b505b50505050505050565b600080828401905083811015151561108f57fe5b8091505092915050565b60008060008414156110ae57600091506110cd565b82840290508284828115156110bf57fe5b041415156110c957fe5b8091505b5092915050565b60008082848115156110e257fe5b0490508091505092915050565b828054600181600116156101000203166002900490600052602060002090601f016020900481019282601f1061113057803560ff191683800117855561115e565b8280016001018555821561115e579182015b8281111561115d578235825591602001919060010190611142565b5b50905061116b919061118c565b5090565b604080519081016040528060008152602001600060ff1681525090565b6111ae91905b808211156111aa576000816000905550600101611192565b5090565b90565b60006111bd82356115ee565b905092915050565b60008083601f84011215156111d957600080fd5b8235905067ffffffffffffffff8111156111f257600080fd5b60208301915083600182028301111561120a57600080fd5b9250929050565b600061121d82356115f8565b905092915050565b60006112318235611602565b905092915050565b6000806020838503121561124c57600080fd5b600083013567ffffffffffffffff81111561126657600080fd5b611272858286016111c5565b92509250509250929050565b60008060006040848603121561129357600080fd5b600084013567ffffffffffffffff8111156112ad57600080fd5b6112b9868287016111c5565b935093505060206112cc868287016111b1565b9150509250925092565b6000806000806000608086880312156112ee57600080fd5b600086013567ffffffffffffffff81111561130857600080fd5b611314888289016111c5565b9550955050602061132788828901611211565b935050604061133888828901611225565b925050606061134988828901611225565b9150509295509295909350565b61135f816115ad565b82525050565b60006113708261157d565b80845260208401935061138283611563565b60005b828110156113b457611398868351611356565b6113a182611593565b9150602086019550600181019050611385565b50849250505092915050565b60006113cb82611588565b8084526020840193506113dd83611570565b60005b8281101561140f576113f386835161141b565b6113fc826115a0565b91506020860195506001810190506113e0565b50849250505092915050565b611424816115cd565b82525050565b600082845260208401935061144083858461160f565b6114498361161e565b840190509392505050565b61145d816115d7565b82525050565b61146c816115e1565b82525050565b60006060820190506114876000830187611356565b818103602083015261149a81858761142a565b90506114a96040830184611454565b95945050505050565b60006040820190506114c76000830185611356565b6114d46020830184611454565b9392505050565b600060208201905081810360008301526114f58184611365565b905092915050565b6000602082019050818103600083015261151781846113c0565b905092915050565b60006020820190506115346000830184611454565b92915050565b600060408201905061154f6000830185611454565b61155c6020830184611463565b9392505050565b6000602082019050919050565b6000602082019050919050565b600081519050919050565b600081519050919050565b6000602082019050919050565b6000602082019050919050565b600073ffffffffffffffffffffffffffffffffffffffff82169050919050565b6000819050919050565b6000819050919050565b600060ff82169050919050565b6000819050919050565b6000819050919050565b600060ff82169050919050565b82818337600083830152505050565b6000601f19601f83011690509190505600a265627a7a7230582037b366a70db1ba23d66dbb0c62ad6c29d9f568809e46712c4edc15e714f8f08a6c6578706572696d656e74616cf50037",
  "source": "pragma solidity ^0.4.19;\r\npragma experimental ABIEncoderV2;\r\n\r\nimport \"./SafeMath.sol\";\r\n\r\ncontract CollectFund {\r\n\r\n    uint deadline = 1 days;\r\n    address admin;\r\n    using SafeMath for uint256;\r\n    uint256 length;\r\n    uint256 i;\r\n\r\n    struct BorrowerProposal {\r\n        uint256 fundingGoal;\r\n        uint8 interestRate;\r\n        uint256 fundingReached;\r\n        uint8 tenureInMonths;\r\n    }\r\n\r\n    struct LenderInfo {\r\n        // address lender;\r\n        uint256 amount;\r\n        uint8 fundRatio;\r\n    }\r\n\r\n    struct LenderContributions{\r\n        bytes32[] proposalID;\r\n    }\r\n\r\n    mapping (string => BorrowerProposal) mapProposalsWithProposalIDs;\r\n    mapping (string => uint256) mapProposalWithDeadline; \r\n    mapping (address => string[]) mapBorrowerWithProposalIDs;\r\n    mapping (string => address) mapProposalWithOwner;\r\n    mapping (string => bool) proposalOpen;\r\n    mapping (string => mapping(address =>LenderInfo)) mapProposalWithLenderInfo;\r\n    mapping (string => address[]) mapLendersWithProposal;\r\n    mapping (address => LenderContributions) mapProposalIDsWithLenders;\r\n\r\n\r\n    event EtherTransfer(address _from, uint256 _value);\r\n    event GoalReached(address _proposalOwner, string _proposalID, uint256 _fundingGoal);\r\n    event GetFundAfterGoalReached(address _proposalOwner, string _proposalID, uint256 _amount);\r\n    event WithdrawFundWhenGoalNotReached(address _lender, string _proposalID, uint256 _amount);\r\n\r\n    modifier onlyAdmin() {\r\n        if (msg.sender == admin)\r\n        _;\r\n    }\r\n\r\n    modifier checkDeadline(string _proposalID) {\r\n        if (now <= mapProposalWithDeadline[_proposalID])\r\n        _;\r\n    }\r\n\r\n    modifier afterDeadline(string _proposalID) {\r\n        if (now >= mapProposalWithDeadline[_proposalID])\r\n        _;\r\n    }\r\n\r\n    modifier checkProposalOwner(string _proposalID) {\r\n        if ( msg.sender == mapProposalWithOwner[_proposalID])\r\n        _;\r\n    }\r\n\r\n    modifier checkProposalStatus(string _proposalID) {\r\n        if ( proposalOpen[_proposalID])\r\n        _;\r\n    }\r\n\r\n    modifier proposalGoalReached(string _proposalID) {\r\n        if ( !proposalOpen[_proposalID])\r\n        _;\r\n    }\r\n\r\n    modifier fundingOverflow(string _proposalID, uint256 _amount) {\r\n        if (_amount <= (mapProposalsWithProposalIDs[_proposalID].fundingGoal - mapProposalsWithProposalIDs[_proposalID].fundingReached))\r\n        _;\r\n    }\r\n\r\n    function CollectFund() {\r\n        admin = msg.sender;\r\n    }\r\n\r\n    function submitProposal(string _proposalID, uint256 _fundingGoal, uint8 _interestRate, uint8 _tenureInMonths) external {\r\n        mapProposalsWithProposalIDs[_proposalID] = BorrowerProposal(_fundingGoal,_interestRate,0, _tenureInMonths);\r\n        mapBorrowerWithProposalIDs[msg.sender].push(_proposalID);\r\n        mapProposalWithDeadline[_proposalID] = now+deadline;\r\n        mapProposalWithOwner[_proposalID] = msg.sender;\r\n        proposalOpen[_proposalID] = true;\r\n    }\r\n\r\n    function lendMoneyToProposal(string _proposalID, bytes32 _proposalId) payable fundingOverflow(_proposalID,msg.value) checkDeadline(_proposalID) checkProposalStatus(_proposalID) external {\r\n        if (msg.value > 0 ) {\r\n            BorrowerProposal storage currentProposal = mapProposalsWithProposalIDs[_proposalID];\r\n            currentProposal.fundingReached = SafeMath.add(currentProposal.fundingReached,msg.value);\r\n            LenderInfo memory currentLender;\r\n            currentLender.amount = msg.value;\r\n            currentLender.fundRatio = uint8(SafeMath.div((SafeMath.mul(msg.value, 100)),(currentProposal.fundingGoal)));\r\n            mapProposalWithLenderInfo[_proposalID][msg.sender] = currentLender;\r\n            mapLendersWithProposal[_proposalID].push(msg.sender);\r\n            mapProposalIDsWithLenders[msg.sender].proposalID.push(_proposalId);       \r\n            EtherTransfer(msg.sender,msg.value);\r\n        }\r\n    }\r\n\r\n    function reachedGoal(string _proposalID) checkDeadline(_proposalID) onlyAdmin external {\r\n        BorrowerProposal storage currentProposal = mapProposalsWithProposalIDs[_proposalID];\r\n        if (currentProposal.fundingReached == currentProposal.fundingGoal) {\r\n            proposalOpen[_proposalID] == false;\r\n            GoalReached(mapProposalWithOwner[_proposalID], _proposalID, currentProposal.fundingGoal);\r\n        }\r\n    }\r\n\r\n    function getMoneyAsBorrowerAfterDeadline(string _proposalID) payable afterDeadline(_proposalID) proposalGoalReached(_proposalID) external {\r\n        address proposalOwner = mapProposalWithOwner[_proposalID];\r\n        BorrowerProposal storage currentProposal = mapProposalsWithProposalIDs[_proposalID];\r\n        if (proposalOwner.send(currentProposal.fundingGoal)) {\r\n            GetFundAfterGoalReached(proposalOwner, _proposalID, currentProposal.fundingGoal);\r\n        }\r\n    }\r\n\r\n    function checkProposalFunding(string _proposalID) view external returns(uint256){\r\n        return (mapProposalsWithProposalIDs[_proposalID].fundingReached);\r\n    }\r\n\r\n    function getProposalExpiration(string _proposalID) view external returns(uint256){\r\n        return mapProposalWithDeadline[_proposalID];\r\n    }\r\n\r\n    function getProposalLenders(string _proposalID) view external returns(address[]){\r\n        return (mapLendersWithProposal[_proposalID]);\r\n    }\r\n\r\n    function getLenderDetails(string _proposalID) view external returns(uint256, uint8) {\r\n    address lender = msg.sender;  \r\n    return (mapProposalWithLenderInfo[_proposalID][lender].amount, mapProposalWithLenderInfo[_proposalID][lender].fundRatio);\r\n    }\r\n\r\n    function getLenderProposals() view external returns(bytes32[]) {\r\n        bytes32[] memory lenderContributedProposals = new bytes32[](mapProposalIDsWithLenders[msg.sender].proposalID.length);\r\n        lenderContributedProposals = mapProposalIDsWithLenders[msg.sender].proposalID;\r\n        return (lenderContributedProposals);\r\n    }\r\n\r\n}",
  "sourcePath": "D:\\work\\P2P-Lending\\WithSafeMath\\contracts\\CollectFund.sol",
  "compiler": {
    "name": "solc",
    "version": "0.4.23+commit.124ca40d.Emscripten.clang"
  },
  "schemaVersion": "2.0.0",
  "updatedAt": "2018-05-04T10:54:23.910Z"
}