{
  "contractName": "CollectFund",
  "abi": [
    {
      "constant": true,
      "inputs": [
        {
          "name": "",
          "type": "uint256"
        }
      ],
      "name": "AllProposalIDs",
      "outputs": [
        {
          "name": "proposalID",
          "type": "bytes32"
        }
      ],
      "payable": false,
      "stateMutability": "view",
      "type": "function"
    },
    {
      "inputs": [],
      "payable": false,
      "stateMutability": "nonpayable",
      "type": "constructor"
    },
    {
      "anonymous": false,
      "inputs": [
        {
          "indexed": false,
          "name": "_from",
          "type": "address"
        },
        {
          "indexed": false,
          "name": "_value",
          "type": "uint256"
        }
      ],
      "name": "EtherTransfer",
      "type": "event"
    },
    {
      "anonymous": false,
      "inputs": [
        {
          "indexed": false,
          "name": "_proposalOwner",
          "type": "address"
        },
        {
          "indexed": false,
          "name": "_proposalID",
          "type": "bytes32"
        },
        {
          "indexed": false,
          "name": "_fundingGoal",
          "type": "uint256"
        }
      ],
      "name": "GoalReached",
      "type": "event"
    },
    {
      "anonymous": false,
      "inputs": [
        {
          "indexed": false,
          "name": "_proposalOwner",
          "type": "address"
        },
        {
          "indexed": false,
          "name": "_proposalID",
          "type": "bytes32"
        },
        {
          "indexed": false,
          "name": "_amount",
          "type": "uint256"
        }
      ],
      "name": "GetFundAfterGoalReached",
      "type": "event"
    },
    {
      "anonymous": false,
      "inputs": [
        {
          "indexed": false,
          "name": "_lender",
          "type": "address"
        },
        {
          "indexed": false,
          "name": "_proposalID",
          "type": "bytes32"
        },
        {
          "indexed": false,
          "name": "_amount",
          "type": "uint256"
        }
      ],
      "name": "WithdrawFundWhenGoalNotReached",
      "type": "event"
    },
    {
      "constant": false,
      "inputs": [
        {
          "name": "_proposalID",
          "type": "bytes32"
        },
        {
          "name": "_fundingGoal",
          "type": "uint256"
        },
        {
          "name": "_interestRate",
          "type": "uint8"
        },
        {
          "name": "_tenureInMonths",
          "type": "uint8"
        },
        {
          "name": "_borrower",
          "type": "address"
        }
      ],
      "name": "submitProposal",
      "outputs": [],
      "payable": false,
      "stateMutability": "nonpayable",
      "type": "function"
    },
    {
      "constant": false,
      "inputs": [
        {
          "name": "_proposalID",
          "type": "bytes32"
        },
        {
          "name": "_amount",
          "type": "uint256"
        },
        {
          "name": "_lender",
          "type": "address"
        }
      ],
      "name": "lendMoneyToProposal",
      "outputs": [],
      "payable": true,
      "stateMutability": "payable",
      "type": "function"
    },
    {
      "constant": false,
      "inputs": [
        {
          "name": "_proposalID",
          "type": "bytes32"
        }
      ],
      "name": "checkGoalReached",
      "outputs": [],
      "payable": false,
      "stateMutability": "nonpayable",
      "type": "function"
    },
    {
      "constant": true,
      "inputs": [
        {
          "name": "_proposalID",
          "type": "bytes32"
        }
      ],
      "name": "getProposalDetailsByProposalID",
      "outputs": [
        {
          "name": "",
          "type": "uint256"
        },
        {
          "name": "",
          "type": "uint8"
        },
        {
          "name": "",
          "type": "uint256"
        },
        {
          "name": "",
          "type": "uint8"
        },
        {
          "name": "",
          "type": "uint256"
        },
        {
          "name": "",
          "type": "bool"
        },
        {
          "name": "",
          "type": "bool"
        }
      ],
      "payable": false,
      "stateMutability": "view",
      "type": "function"
    },
    {
      "constant": true,
      "inputs": [
        {
          "name": "_proposalID",
          "type": "bytes32"
        }
      ],
      "name": "getProposalDueDate",
      "outputs": [
        {
          "name": "",
          "type": "uint256"
        }
      ],
      "payable": false,
      "stateMutability": "view",
      "type": "function"
    },
    {
      "constant": true,
      "inputs": [
        {
          "name": "_borrower",
          "type": "address"
        }
      ],
      "name": "getBorrowerSuccessfulProposals",
      "outputs": [
        {
          "name": "",
          "type": "bytes32[]"
        }
      ],
      "payable": false,
      "stateMutability": "view",
      "type": "function"
    },
    {
      "constant": true,
      "inputs": [
        {
          "name": "_proposalID",
          "type": "bytes32"
        }
      ],
      "name": "getDaysRemainingInInstallmentDue",
      "outputs": [
        {
          "name": "",
          "type": "uint256"
        }
      ],
      "payable": false,
      "stateMutability": "view",
      "type": "function"
    },
    {
      "constant": false,
      "inputs": [
        {
          "name": "_proposalID",
          "type": "bytes32"
        }
      ],
      "name": "getMoneyAsBorrowerAfterDeadline",
      "outputs": [],
      "payable": true,
      "stateMutability": "payable",
      "type": "function"
    },
    {
      "constant": true,
      "inputs": [
        {
          "name": "_proposalID",
          "type": "bytes32"
        }
      ],
      "name": "checkProposalFunding",
      "outputs": [
        {
          "name": "",
          "type": "uint256"
        }
      ],
      "payable": false,
      "stateMutability": "view",
      "type": "function"
    },
    {
      "constant": true,
      "inputs": [
        {
          "name": "_proposalID",
          "type": "bytes32"
        }
      ],
      "name": "getProposalExpiration",
      "outputs": [
        {
          "name": "",
          "type": "uint256"
        }
      ],
      "payable": false,
      "stateMutability": "view",
      "type": "function"
    },
    {
      "constant": true,
      "inputs": [
        {
          "name": "_proposalID",
          "type": "bytes32"
        }
      ],
      "name": "getProposalOwner",
      "outputs": [
        {
          "name": "",
          "type": "address"
        }
      ],
      "payable": false,
      "stateMutability": "view",
      "type": "function"
    },
    {
      "constant": true,
      "inputs": [
        {
          "name": "_proposalID",
          "type": "bytes32"
        }
      ],
      "name": "getProposalLendersWithDetails",
      "outputs": [
        {
          "name": "",
          "type": "address[]"
        },
        {
          "name": "",
          "type": "uint256[]"
        },
        {
          "name": "",
          "type": "uint8[]"
        }
      ],
      "payable": false,
      "stateMutability": "view",
      "type": "function"
    },
    {
      "constant": true,
      "inputs": [
        {
          "name": "_proposalID",
          "type": "bytes32"
        },
        {
          "name": "_lender",
          "type": "address"
        }
      ],
      "name": "getLenderDetails",
      "outputs": [
        {
          "name": "",
          "type": "uint256"
        },
        {
          "name": "",
          "type": "uint8"
        }
      ],
      "payable": false,
      "stateMutability": "view",
      "type": "function"
    },
    {
      "constant": true,
      "inputs": [
        {
          "name": "_borrower",
          "type": "address"
        }
      ],
      "name": "getBorrrowerSpecificProposals",
      "outputs": [
        {
          "name": "",
          "type": "bytes32[]"
        }
      ],
      "payable": false,
      "stateMutability": "view",
      "type": "function"
    },
    {
      "constant": true,
      "inputs": [],
      "name": "getAllProposalsForBorrowerList",
      "outputs": [
        {
          "name": "",
          "type": "bytes32[]"
        }
      ],
      "payable": false,
      "stateMutability": "view",
      "type": "function"
    },
    {
      "constant": true,
      "inputs": [
        {
          "name": "_lender",
          "type": "address"
        }
      ],
      "name": "getLenderSuccessfulProposals",
      "outputs": [
        {
          "name": "",
          "type": "bytes32[]"
        }
      ],
      "payable": false,
      "stateMutability": "view",
      "type": "function"
    },
    {
      "constant": true,
      "inputs": [
        {
          "name": "_proposalID",
          "type": "bytes32"
        }
      ],
      "name": "getInstallmentStartTS",
      "outputs": [
        {
          "name": "",
          "type": "uint256"
        }
      ],
      "payable": false,
      "stateMutability": "view",
      "type": "function"
    }
  ],
  "bytecode": "0x60806040526201518060005562278d0060035534801561001e57600080fd5b5033600460006101000a81548173ffffffffffffffffffffffffffffffffffffffff021916908373ffffffffffffffffffffffffffffffffffffffff160217905550611f8f8061006f6000396000f3006080604052600436106100fc576000357c0100000000000000000000000000000000000000000000000000000000900463ffffffff1680630973f70b146101015780630e37e926146101735780633e1d8c65146101975780633f48b433146101dc5780634466f1b21461022157806349bff7dc146102a457806354738a5414610315578063727c7c24146103ad57806387a965f2146103fb5780639088ec6c146104445780639276c8c4146104b957806396edcb4014610525578063994a7bd6146105bd5780639b91e76b146106025780639f4192df14610718578063d4c1695d1461075d578063d84fcbc7146107a2578063e1947c6a1461083a575b600080fd5b34801561010d57600080fd5b506101506004803603810190808035600019169060200190929190803573ffffffffffffffffffffffffffffffffffffffff16906020019092919050505061086b565b604051808381526020018260ff1660ff1681526020019250505060405180910390f35b610195600480360381019080803560001916906020019092919050505061093e565b005b3480156101a357600080fd5b506101c66004803603810190808035600019169060200190929190505050610b2a565b6040518082815260200191505060405180910390f35b3480156101e857600080fd5b5061020b6004803603810190808035600019169060200190929190505050610b58565b6040518082815260200191505060405180910390f35b34801561022d57600080fd5b506102506004803603810190808035600019169060200190929190505050610b7d565b604051808881526020018760ff1660ff1681526020018681526020018560ff1660ff168152602001848152602001831515151581526020018215151515815260200197505050505050505060405180910390f35b3480156102b057600080fd5b506102d36004803603810190808035600019169060200190929190505050610ca8565b604051808273ffffffffffffffffffffffffffffffffffffffff1673ffffffffffffffffffffffffffffffffffffffff16815260200191505060405180910390f35b34801561032157600080fd5b50610356600480360381019080803573ffffffffffffffffffffffffffffffffffffffff169060200190929190505050610ced565b6040518080602001828103825283818151815260200191508051906020019060200280838360005b8381101561039957808201518184015260208101905061037e565b505050509050019250505060405180910390f35b6103f9600480360381019080803560001916906020019092919080359060200190929190803573ffffffffffffffffffffffffffffffffffffffff169060200190929190505050610d88565b005b34801561040757600080fd5b5061042660048036038101908080359060200190929190505050611090565b60405180826000191660001916815260200191505060405180910390f35b34801561045057600080fd5b506104b7600480360381019080803560001916906020019092919080359060200190929190803560ff169060200190929190803560ff169060200190929190803573ffffffffffffffffffffffffffffffffffffffff1690602001909291905050506110b9565b005b3480156104c557600080fd5b506104ce611312565b6040518080602001828103825283818151815260200191508051906020019060200280838360005b838110156105115780820151818401526020810190506104f6565b505050509050019250505060405180910390f35b34801561053157600080fd5b50610566600480360381019080803573ffffffffffffffffffffffffffffffffffffffff16906020019092919050505061142c565b6040518080602001828103825283818151815260200191508051906020019060200280838360005b838110156105a957808201518184015260208101905061058e565b505050509050019250505060405180910390f35b3480156105c957600080fd5b506105ec6004803603810190808035600019169060200190929190505050611629565b6040518082815260200191505060405180910390f35b34801561060e57600080fd5b506106316004803603810190808035600019169060200190929190505050611680565b60405180806020018060200180602001848103845287818151815260200191508051906020019060200280838360005b8381101561067c578082015181840152602081019050610661565b50505050905001848103835286818151815260200191508051906020019060200280838360005b838110156106be5780820151818401526020810190506106a3565b50505050905001848103825285818151815260200191508051906020019060200280838360005b838110156107005780820151818401526020810190506106e5565b50505050905001965050505050505060405180910390f35b34801561072457600080fd5b506107476004803603810190808035600019169060200190929190505050611953565b6040518082815260200191505060405180910390f35b34801561076957600080fd5b5061078c60048036038101908080356000191690602001909291905050506119ac565b6040518082815260200191505060405180910390f35b3480156107ae57600080fd5b506107e3600480360381019080803573ffffffffffffffffffffffffffffffffffffffff1690602001909291905050506119d4565b6040518080602001828103825283818151815260200191508051906020019060200280838360005b8381101561082657808201518184015260208101905061080b565b505050509050019250505060405180910390f35b34801561084657600080fd5b506108696004803603810190808035600019169060200190929190505050611bcb565b005b600080600b6000856000191660001916815260200190815260200160002060008473ffffffffffffffffffffffffffffffffffffffff1673ffffffffffffffffffffffffffffffffffffffff16815260200190815260200160002060000154600b6000866000191660001916815260200190815260200160002060008573ffffffffffffffffffffffffffffffffffffffff1673ffffffffffffffffffffffffffffffffffffffff16815260200190815260200160002060010160009054906101000a900460ff16915091509250929050565b600080826007600082600019166000191681526020019081526020016000205442101515610b245783600a6000826000191660001916815260200190815260200160002060009054906101000a900460ff161515610b22578460096000826000191660001916815260200190815260200160002060009054906101000a900473ffffffffffffffffffffffffffffffffffffffff1673ffffffffffffffffffffffffffffffffffffffff163373ffffffffffffffffffffffffffffffffffffffff161415610b205760096000876000191660001916815260200190815260200160002060009054906101000a900473ffffffffffffffffffffffffffffffffffffffff16945060066000876000191660001916815260200190815260200160002093508473ffffffffffffffffffffffffffffffffffffffff166108fc85600001549081150290604051600060405180830381858888f1935050505015610b1f577f9d1f44b07a1e13b6770919ebe68747618bac8204edf2025dc82e47a1f813551585878660000154604051808473ffffffffffffffffffffffffffffffffffffffff1673ffffffffffffffffffffffffffffffffffffffff1681526020018360001916600019168152602001828152602001935050505060405180910390a15b5b505b505b50505050565b600042610b3683611953565b1115610b4e5742610b4683611953565b039050610b53565b600090505b919050565b6000600760008360001916600019168152602001908152602001600020549050919050565b600080600080600080600060066000896000191660001916815260200190815260200160002060000154600660008a6000191660001916815260200190815260200160002060010160009054906101000a900460ff16600660008b6000191660001916815260200190815260200160002060020154600660008c6000191660001916815260200190815260200160002060030160009054906101000a900460ff16600660008d6000191660001916815260200190815260200160002060040154600f60008e6000191660001916815260200190815260200160002060009054906101000a900460ff16600a60008f6000191660001916815260200190815260200160002060009054906101000a900460ff169650965096509650965096509650919395979092949650565b600060096000836000191660001916815260200190815260200160002060009054906101000a900473ffffffffffffffffffffffffffffffffffffffff169050919050565b6060600860008373ffffffffffffffffffffffffffffffffffffffff1673ffffffffffffffffffffffffffffffffffffffff168152602001908152602001600020805480602002602001604051908101604052809291908181526020018280548015610d7c57602002820191906000526020600020905b81546000191681526020019060010190808311610d64575b50505050509050919050565b6000610d92611f2f565b848460066000836000191660001916815260200190815260200160002060020154600660008460001916600019168152602001908152602001600020600001540381111515611087578660076000826000191660001916815260200190815260200160002054421115156110855787600a6000826000191660001916815260200190815260200160002060009054906101000a900460ff161561108357600034111561108257600660008a600019166000191681526020019081526020016000209550610e63866002015489611e1d565b866002018190555087856000018181525050610e8d610e83896064611e3b565b8760000154611e76565b856020019060ff16908160ff168152505084600b60008b6000191660001916815260200190815260200160002060008973ffffffffffffffffffffffffffffffffffffffff1673ffffffffffffffffffffffffffffffffffffffff1681526020019081526020016000206000820151816000015560208201518160010160006101000a81548160ff021916908360ff160217905550905050600c60008a600019166000191681526020019081526020016000208790806001815401808255809150509060018203906000526020600020016000909192909190916101000a81548173ffffffffffffffffffffffffffffffffffffffff021916908373ffffffffffffffffffffffffffffffffffffffff16021790555050600d60008873ffffffffffffffffffffffffffffffffffffffff1673ffffffffffffffffffffffffffffffffffffffff1681526020019081526020016000206000018990806001815401808255809150509060018203906000526020600020016000909192909190915090600019169055507f1853ca9dc0208799379313b2b43364e45db022f073c72648fbc206dc0bacbcdc8789604051808373ffffffffffffffffffffffffffffffffffffffff1673ffffffffffffffffffffffffffffffffffffffff1681526020018281526020019250505060405180910390a15b5b505b505b50505050505050565b60058181548110151561109f57fe5b906000526020600020016000915090508060000154905081565b60a0604051908101604052808581526020018460ff168152602001600081526020018360ff168152602001428152506006600087600019166000191681526020019081526020016000206000820151816000015560208201518160010160006101000a81548160ff021916908360ff1602179055506040820151816002015560608201518160030160006101000a81548160ff021916908360ff16021790555060808201518160040155905050600860008273ffffffffffffffffffffffffffffffffffffffff1673ffffffffffffffffffffffffffffffffffffffff1681526020019081526020016000208590806001815401808255809150509060018203906000526020600020016000909192909190915090600019169055506000544201600760008760001916600019168152602001908152602001600020819055508060096000876000191660001916815260200190815260200160002060006101000a81548173ffffffffffffffffffffffffffffffffffffffff021916908373ffffffffffffffffffffffffffffffffffffffff1602179055506001600a6000876000191660001916815260200190815260200160002060006101000a81548160ff0219169083151502179055506000600f6000876000191660001916815260200190815260200160002060006101000a81548160ff02191690831515021790555060056020604051908101604052808760001916815250908060018154018082558091505090600182039060005260206000200160009091929091909150600082015181600001906000191690555050505050505050565b60608061131d611f4c565b60058054905060018190555060015460405190808252806020026020018201604052801561135a5781602001602082028038833980820191505090505b50915060006002819055505b600154600254101561142457600560025481548110151561138357fe5b906000526020600020016020604051908101604052908160008201546000191660001916815250509050600a600082600001516000191660001916815260200190815260200160002060009054906101000a900460ff161561140d578060000151826002548151811015156113f457fe5b9060200190602002019060001916908160001916815250505b600260008154809291906001019190505550611366565b819250505090565b60608060606000600d60008673ffffffffffffffffffffffffffffffffffffffff1673ffffffffffffffffffffffffffffffffffffffff168152602001908152602001600020600001805490506001819055506001546040519080825280602002602001820160405280156114b05781602001602082028038833980820191505090505b5092506001546040519080825280602002602001820160405280156114e45781602001602082028038833980820191505090505b509150600d60008673ffffffffffffffffffffffffffffffffffffffff1673ffffffffffffffffffffffffffffffffffffffff16815260200190815260200160002060000180548060200260200160405190810160405280929190818152602001828054801561157757602002820191906000526020600020905b8154600019168152602001906001019080831161155f575b5050505050925060006002819055505b600154600254101561161e57826002548151811015156115a357fe5b906020019060200201519050600f6000826000191660001916815260200190815260200160002060009054906101000a900460ff16156116075780826002548151811015156115ee57fe5b9060200190602002019060001916908160001916815250505b600260008154809291906001019190505550611587565b819350505050919050565b600081600a6000826000191660001916815260200190815260200160002060009054906101000a900460ff16151561167a576010600084600019166000191681526020019081526020016000205491505b50919050565b6060806060806060806000600c60008960001916600019168152602001908152602001600020805490506001819055506001546040519080825280602002602001820160405280156116e15781602001602082028038833980820191505090505b5093506001546040519080825280602002602001820160405280156117155781602001602082028038833980820191505090505b5092506001546040519080825280602002602001820160405280156117495781602001602082028038833980820191505090505b509150600c600089600019166000191681526020019081526020016000208054806020026020016040519081016040528092919081815260200182805480156117e757602002820191906000526020600020905b8160009054906101000a900473ffffffffffffffffffffffffffffffffffffffff1673ffffffffffffffffffffffffffffffffffffffff168152602001906001019080831161179d575b5050505050935060006002819055505b600154600254101561193f578360025481518110151561181357fe5b906020019060200201519050600b6000896000191660001916815260200190815260200160002060008273ffffffffffffffffffffffffffffffffffffffff1673ffffffffffffffffffffffffffffffffffffffff168152602001908152602001600020600001548360025481518110151561188b57fe5b9060200190602002018181525050600b6000896000191660001916815260200190815260200160002060008273ffffffffffffffffffffffffffffffffffffffff1673ffffffffffffffffffffffffffffffffffffffff16815260200190815260200160002060010160009054906101000a900460ff168260025481518110151561191257fe5b9060200190602002019060ff16908160ff16815250506002600081548092919060010191905055506117f7565b838383965096509650505050509193909250565b600080600e600084600019166000191681526020019081526020016000205414156119885761198182611629565b90506119a7565b600e600083600019166000191681526020019081526020016000205490505b919050565b6000600660008360001916600019168152602001908152602001600020600201549050919050565b60608060606000600860008673ffffffffffffffffffffffffffffffffffffffff1673ffffffffffffffffffffffffffffffffffffffff16815260200190815260200160002080549050600181905550600154604051908082528060200260200182016040528015611a555781602001602082028038833980820191505090505b509250600154604051908082528060200260200182016040528015611a895781602001602082028038833980820191505090505b509150600860008673ffffffffffffffffffffffffffffffffffffffff1673ffffffffffffffffffffffffffffffffffffffff168152602001908152602001600020805480602002602001604051908101604052809291908181526020018280548015611b1957602002820191906000526020600020905b81546000191681526020019060010190808311611b01575b5050505050925060006002819055505b6001546002541015611bc05782600254815181101515611b4557fe5b906020019060200201519050600f6000826000191660001916815260200190815260200160002060009054906101000a900460ff1615611ba9578082600254815181101515611b9057fe5b9060200190602002019060001916908160001916815250505b600260008154809291906001019190505550611b29565b819350505050919050565b6000600460009054906101000a900473ffffffffffffffffffffffffffffffffffffffff1673ffffffffffffffffffffffffffffffffffffffff163373ffffffffffffffffffffffffffffffffffffffff161415611e1957816007600082600019166000191681526020019081526020016000205442101515611e17576006600084600019166000191681526020019081526020016000209150816000015482600201541415611dbd5760001515600a6000856000191660001916815260200190815260200160002060009054906101000a905050504260106000856000191660001916815260200190815260200160002081905550611cca83611e91565b6001600f6000856000191660001916815260200190815260200160002060006101000a81548160ff0219169083151502179055507fca7dda9f30e83b1017ab663d6725df4277f3c589212935d66d45cd9853076ed360096000856000191660001916815260200190815260200160002060009054906101000a900473ffffffffffffffffffffffffffffffffffffffff16848460000154604051808473ffffffffffffffffffffffffffffffffffffffff1673ffffffffffffffffffffffffffffffffffffffff1681526020018360001916600019168152602001828152602001935050505060405180910390a1611e16565b60001515600a6000856000191660001916815260200190815260200160002060009054906101000a9050505060001515600f6000856000191660001916815260200190815260200160002060009054906101000a905050505b5b505b5050565b6000808284019050838110151515611e3157fe5b8091505092915050565b6000806000841415611e505760009150611e6f565b8284029050828482811515611e6157fe5b04141515611e6b57fe5b8091505b5092915050565b6000808284811515611e8457fe5b0490508091505092915050565b6000611e9c82611629565b90506000600e60008460001916600019168152602001908152602001600020541415611eeb576003548101600e6000846000191660001916815260200190815260200160002081905550611f2b565b600354600e600084600019166000191681526020019081526020016000205401600e60008460001916600019168152602001908152602001600020819055505b5050565b604080519081016040528060008152602001600060ff1681525090565b6020604051908101604052806000801916815250905600a165627a7a72305820669eb9f658bc7143f42322812e3b4deaf7a67493114edbba5589121f6bb0cf4a0029",
  "source": "pragma solidity ^0.4.19;\r\n\r\nimport \"./SafeMath.sol\";\r\n\r\ncontract CollectFund {\r\n\r\n    uint deadline = 1 days;\r\n    using SafeMath for uint256;\r\n    uint256 length;\r\n    uint256 i;\r\n    uint256 duePeriod = 30 days;\r\n    address admin;\r\n\r\n    /*Store proposals raised by borrowers*/\r\n    struct BorrowerProposal {\r\n        uint256 fundingGoal;                                //Funding goal in Ether\r\n        uint8 interestRate;                                 //Rate of interest offered by borrower in the proposal\r\n        uint256 fundingReached;                             //Proposal funding reached\r\n        uint8 tenureInMonths;                               //Proposal loan duration\r\n        uint256 proposalSubmissionTS;                         //If proposal goal achieved proposal start timestamp \r\n    }\r\n\r\n    struct ProposalIDs{\r\n        bytes32 proposalID;\r\n    }\r\n\r\n    ProposalIDs[] public AllProposalIDs;\r\n\r\n    /*Store lender contribution information per proposal per lender address*/\r\n    struct LenderInfo {\r\n        uint256 amount;                                     //Contributed amount\r\n        uint8 fundRatio;                                    //Store contribution ration in an unsigned integer format\r\n    }\r\n\r\n    /*Store contributed proposals per lender*/\r\n    struct LenderContributions{\r\n        bytes32[] proposalID;                               //Store contributed proposal ids\r\n    }\r\n\r\n    mapping (bytes32 => BorrowerProposal) mapProposalsWithProposalIDs;                   //map proposal information with proposal ids\r\n    mapping (bytes32 => uint256) mapProposalWithDeadline;                                //map proposal expiration with proposal ids, default 1 day\r\n    mapping (address => bytes32[]) mapBorrowerWithProposalIDs;                           //map borrower's raised porposals with his address\r\n    mapping (bytes32 => address) mapProposalWithOwner;                                   //map proposal ids with proposal owners/borrower's address\r\n    mapping (bytes32 => bool) mapProposalOpenStatusWithProposalID;                                              //map proposal ids with activity status\r\n    mapping (bytes32 => mapping(address =>LenderInfo)) mapProposalWithLenderInfo;        //map proposal ids and contributer's address with contribution - 2d\r\n    mapping (bytes32 => address[]) mapLendersWithProposal;                               //map proposal ids with contributers\r\n    mapping (address => LenderContributions) mapProposalIDsWithLenders;                 //map contributer's information with contributed proposal ids\r\n    mapping (bytes32 => uint256) mapProposalIDWithNextDueDate;                           //map next instllment due date with proposal/loan ids\r\n    mapping (bytes32 => bool) mapProposalSuccessStatusWithProposalID;\r\n    mapping (bytes32 => uint256) mapProposalWithInstallmentStartTS;\r\n\r\n\r\n    event EtherTransfer(address _from, uint256 _value);                                             \r\n    event GoalReached(address _proposalOwner, bytes32 _proposalID, uint256 _fundingGoal);            \r\n    event GetFundAfterGoalReached(address _proposalOwner, bytes32 _proposalID, uint256 _amount);\r\n    event WithdrawFundWhenGoalNotReached(address _lender, bytes32 _proposalID, uint256 _amount);\r\n\r\n    modifier checkDeadline(bytes32 _proposalID) {\r\n        if (now <= mapProposalWithDeadline[_proposalID])\r\n        _;\r\n    }\r\n\r\n    modifier afterDeadline(bytes32 _proposalID) {\r\n        if (now >= mapProposalWithDeadline[_proposalID])\r\n        _;\r\n    }\r\n\r\n    modifier checkProposalOwner(bytes32 _proposalID) {\r\n        if ( msg.sender == mapProposalWithOwner[_proposalID])\r\n        _;\r\n    }\r\n\r\n    modifier checkProposalStatus(bytes32 _proposalID) {\r\n        if ( mapProposalOpenStatusWithProposalID[_proposalID])\r\n        _;\r\n    }\r\n\r\n    modifier proposalGoalReached(bytes32 _proposalID) {\r\n        if ( !mapProposalOpenStatusWithProposalID[_proposalID])\r\n        _;\r\n    }\r\n\r\n    modifier fundingOverflow(bytes32 _proposalID, uint256 _amount) {\r\n        if (_amount <= (mapProposalsWithProposalIDs[_proposalID].fundingGoal - mapProposalsWithProposalIDs[_proposalID].fundingReached))\r\n        _;\r\n    }\r\n\r\n    modifier onlyAdmin() {\r\n        if (msg.sender == admin) {\r\n            _;\r\n        }\r\n    }\r\n\r\n    function CollectFund() {\r\n        admin = msg.sender;\r\n    }\r\n\r\n    /*Borrower proposal submission with generated proposal id, proposal funding goal, rate of interest and loan tenure */\r\n    function submitProposal(bytes32 _proposalID, uint256 _fundingGoal, uint8 _interestRate, uint8 _tenureInMonths, address _borrower) external {\r\n        mapProposalsWithProposalIDs[_proposalID] = BorrowerProposal(_fundingGoal,_interestRate,0, _tenureInMonths,now);\r\n        mapBorrowerWithProposalIDs[_borrower].push(_proposalID);\r\n        mapProposalWithDeadline[_proposalID] = now+deadline;\r\n        mapProposalWithOwner[_proposalID] = _borrower;\r\n        mapProposalOpenStatusWithProposalID[_proposalID] = true;\r\n        mapProposalSuccessStatusWithProposalID[_proposalID] = false;\r\n        AllProposalIDs.push(ProposalIDs(_proposalID)); \r\n    }\r\n\r\n    /*Lend Ethers to proposal by proposal id*/\r\n    function lendMoneyToProposal(bytes32 _proposalID, uint256 _amount, address _lender) payable fundingOverflow(_proposalID,_amount) checkDeadline(_proposalID) checkProposalStatus(_proposalID) external {\r\n        if (msg.value > 0 ) {\r\n            BorrowerProposal storage currentProposal = mapProposalsWithProposalIDs[_proposalID];\r\n            currentProposal.fundingReached = SafeMath.add(currentProposal.fundingReached,_amount);\r\n            LenderInfo memory currentLender;\r\n            currentLender.amount = _amount;\r\n            currentLender.fundRatio = uint8(SafeMath.div((SafeMath.mul(_amount, 100)),(currentProposal.fundingGoal)));\r\n            mapProposalWithLenderInfo[_proposalID][_lender] = currentLender;\r\n            mapLendersWithProposal[_proposalID].push(_lender);\r\n            mapProposalIDsWithLenders[_lender].proposalID.push(_proposalID);       \r\n            EtherTransfer(_lender,_amount);\r\n        }\r\n    }\r\n\r\n    /*Admin to close proposal after deadline and successful funding*/\r\n    function checkGoalReached(bytes32 _proposalID) onlyAdmin afterDeadline(_proposalID) external {\r\n        BorrowerProposal storage currentProposal = mapProposalsWithProposalIDs[_proposalID];\r\n        if (currentProposal.fundingReached == currentProposal.fundingGoal) {\r\n            mapProposalOpenStatusWithProposalID[_proposalID] == false;\r\n            mapProposalWithInstallmentStartTS[_proposalID] = now;\r\n            setNextDueDate(_proposalID);\r\n            mapProposalSuccessStatusWithProposalID[_proposalID] = true;\r\n            GoalReached(mapProposalWithOwner[_proposalID], _proposalID, currentProposal.fundingGoal);\r\n        }\r\n        else{\r\n            mapProposalOpenStatusWithProposalID[_proposalID] == false;\r\n            mapProposalSuccessStatusWithProposalID[_proposalID] == false;\r\n        }\r\n\r\n    }\r\n\r\n    /*Contract internal function to set next installment due date*/\r\n    function setNextDueDate(bytes32 _proposalID) internal {\r\n        uint256 installmentStart = getInstallmentStartTS(_proposalID);\r\n        if (mapProposalIDWithNextDueDate[_proposalID] == 0){\r\n            mapProposalIDWithNextDueDate[_proposalID] = installmentStart + duePeriod;\r\n        }\r\n        else {\r\n            mapProposalIDWithNextDueDate[_proposalID] = mapProposalIDWithNextDueDate[_proposalID] + duePeriod;\r\n        }\r\n    }\r\n\r\n    function getProposalDetailsByProposalID(bytes32 _proposalID) external view returns(uint256,uint8,uint256,uint8,uint256,bool,bool) {\r\n        return (mapProposalsWithProposalIDs[_proposalID].fundingGoal,\r\n        mapProposalsWithProposalIDs[_proposalID].interestRate,\r\n        mapProposalsWithProposalIDs[_proposalID].fundingReached,\r\n        mapProposalsWithProposalIDs[_proposalID].tenureInMonths,\r\n        mapProposalsWithProposalIDs[_proposalID].proposalSubmissionTS,\r\n        mapProposalSuccessStatusWithProposalID[_proposalID],\r\n        mapProposalOpenStatusWithProposalID[_proposalID]);\r\n    }\r\n\r\n    /*Get installment due date by proposal/loan id*/\r\n    function getProposalDueDate(bytes32 _proposalID) view returns(uint256) {\r\n        if (mapProposalIDWithNextDueDate[_proposalID] == 0){\r\n            return getInstallmentStartTS(_proposalID);\r\n        }\r\n        else {\r\n            return mapProposalIDWithNextDueDate[_proposalID];\r\n        }\r\n    }\r\n\r\n    function getProposalTenure(bytes32 _proposalID) view internal returns(uint8) {\r\n        return mapProposalsWithProposalIDs[_proposalID].tenureInMonths;\r\n    }\r\n\r\n    function getBorrowerSuccessfulProposals(address _borrower) view returns(bytes32[]) {\r\n        length = mapBorrowerWithProposalIDs[_borrower].length;\r\n        bytes32[] memory proposalIDs = new bytes32[](length);\r\n        bytes32[] memory successfulProposals = new bytes32[](length);\r\n        proposalIDs = mapBorrowerWithProposalIDs[_borrower];\r\n        for (i = 0; i < length; i++) {\r\n            bytes32 currentProposalID = proposalIDs[i];\r\n            if (mapProposalSuccessStatusWithProposalID[currentProposalID]) {\r\n                successfulProposals[i] = currentProposalID;\r\n            }\r\n        }\r\n        return (successfulProposals);\r\n    }\r\n\r\n    /*Get days left in installment due date by proposal/loan id*/\r\n    function getDaysRemainingInInstallmentDue(bytes32 _proposalID) view returns(uint256) {\r\n        if (getProposalDueDate(_proposalID) > now) {\r\n            return (getProposalDueDate(_proposalID) - now);\r\n        }\r\n        else {\r\n            return 0;\r\n        }\r\n    }\r\n\r\n    /*Get funding as borrower if proposal was successful to be triggered by proposal owner by proposal id*/\r\n    function getMoneyAsBorrowerAfterDeadline(bytes32 _proposalID) payable afterDeadline(_proposalID) proposalGoalReached(_proposalID) checkProposalOwner(_proposalID) external {\r\n        address proposalOwner = mapProposalWithOwner[_proposalID];\r\n        BorrowerProposal storage currentProposal = mapProposalsWithProposalIDs[_proposalID];\r\n        if (proposalOwner.send(currentProposal.fundingGoal)) {\r\n            GetFundAfterGoalReached(proposalOwner, _proposalID, currentProposal.fundingGoal);\r\n        }\r\n    }\r\n\r\n    /*Check funding reached by proposal id*/\r\n    function checkProposalFunding(bytes32 _proposalID) view external returns(uint256) {\r\n        return (mapProposalsWithProposalIDs[_proposalID].fundingReached);\r\n    }\r\n\r\n    /* */\r\n    function getProposalExpiration(bytes32 _proposalID) view external returns(uint256) {\r\n        return mapProposalWithDeadline[_proposalID];\r\n    }\r\n\r\n    function getProposalOwner(bytes32 _proposalID) view external returns(address) {\r\n        return mapProposalWithOwner[_proposalID];\r\n    }\r\n\r\n    function getProposalLendersWithDetails(bytes32 _proposalID) view external returns(address[],uint256[], uint8[]) {\r\n        length = mapLendersWithProposal[_proposalID].length;\r\n        address[] memory lenderAddresses = new address[](length);\r\n        uint256[] memory lenderContributions = new uint256[](length);\r\n        uint8[] memory lenderFundRatios = new uint8[](length);\r\n        lenderAddresses = mapLendersWithProposal[_proposalID];\r\n        for ( i = 0 ; i < length; i++) {\r\n            address currentLender = lenderAddresses[i];\r\n            lenderContributions[i] = mapProposalWithLenderInfo[_proposalID][currentLender].amount;\r\n            lenderFundRatios[i] = mapProposalWithLenderInfo[_proposalID][currentLender].fundRatio;\r\n        }\r\n        return (lenderAddresses,lenderContributions,lenderFundRatios);\r\n    }\r\n\r\n    function getLenderDetails(bytes32 _proposalID, address _lender) view external returns(uint256, uint8) {\r\n    return (mapProposalWithLenderInfo[_proposalID][_lender].amount, mapProposalWithLenderInfo[_proposalID][_lender].fundRatio);\r\n    }\r\n\r\n    function getBorrrowerSpecificProposals(address _borrower) view external returns(bytes32[]) {\r\n        return (mapBorrowerWithProposalIDs[_borrower]);\r\n    }\r\n\r\n    function getAllProposalsForBorrowerList() view external returns(bytes32[]) {\r\n        length = AllProposalIDs.length;\r\n        bytes32[] memory activeProposals = new bytes32[](length);\r\n        for (i = 0; i < length; i++) {\r\n            ProposalIDs memory currentProposalID;\r\n            currentProposalID = AllProposalIDs[i];\r\n            if (mapProposalOpenStatusWithProposalID[currentProposalID.proposalID]) {\r\n                activeProposals[i] = currentProposalID.proposalID;\r\n            }\r\n        }\r\n        return (activeProposals);\r\n    }\r\n\r\n    function getLenderSuccessfulProposals(address _lender) view external returns(bytes32[]) {\r\n        length = mapProposalIDsWithLenders[_lender].proposalID.length;\r\n        bytes32[] memory lenderContributedProposals = new bytes32[](length);\r\n        bytes32[] memory successfulProposals = new bytes32[](length);\r\n        lenderContributedProposals = mapProposalIDsWithLenders[_lender].proposalID;\r\n        for (i = 0; i < length; i++ ) {\r\n            bytes32 currentProposalID = lenderContributedProposals[i];\r\n            if (mapProposalSuccessStatusWithProposalID[currentProposalID]) {\r\n                successfulProposals[i] = currentProposalID;\r\n            }\r\n        }\r\n        return (successfulProposals);\r\n    }\r\n\r\n    /*Get proposal submission timestamp by proposal id */\r\n    function getInstallmentStartTS(bytes32 _proposalID) view proposalGoalReached(_proposalID) returns(uint256) {\r\n        return (mapProposalWithInstallmentStartTS[_proposalID]);\r\n    }\r\n\r\n}",
  "sourcePath": "D:\\work\\P2P-Lending\\WithSafeMath\\contracts\\CollectFund.sol",
  "compiler": {
    "name": "solc",
    "version": "0.4.23+commit.124ca40d.Emscripten.clang"
  },
  "schemaVersion": "2.0.0",
  "updatedAt": "2018-05-14T06:00:33.621Z"
}