{
  "contractName": "CollectFund",
  "abi": [
    {
      "inputs": [],
      "payable": false,
      "stateMutability": "nonpayable",
      "type": "constructor"
    },
    {
      "anonymous": false,
      "inputs": [
        {
          "indexed": false,
          "name": "_from",
          "type": "address"
        },
        {
          "indexed": false,
          "name": "_value",
          "type": "uint256"
        }
      ],
      "name": "EtherTransfer",
      "type": "event"
    },
    {
      "anonymous": false,
      "inputs": [
        {
          "indexed": false,
          "name": "_proposalOwner",
          "type": "address"
        },
        {
          "indexed": false,
          "name": "_proposalID",
          "type": "string"
        },
        {
          "indexed": false,
          "name": "_fundingGoal",
          "type": "uint256"
        }
      ],
      "name": "GoalReached",
      "type": "event"
    },
    {
      "anonymous": false,
      "inputs": [
        {
          "indexed": false,
          "name": "_proposalOwner",
          "type": "address"
        },
        {
          "indexed": false,
          "name": "_proposalID",
          "type": "string"
        },
        {
          "indexed": false,
          "name": "_amount",
          "type": "uint256"
        }
      ],
      "name": "GetFundAfterGoalReached",
      "type": "event"
    },
    {
      "anonymous": false,
      "inputs": [
        {
          "indexed": false,
          "name": "_lender",
          "type": "address"
        },
        {
          "indexed": false,
          "name": "_proposalID",
          "type": "string"
        },
        {
          "indexed": false,
          "name": "_amount",
          "type": "uint256"
        }
      ],
      "name": "WithdrawFundWhenGoalNotReached",
      "type": "event"
    },
    {
      "constant": false,
      "inputs": [
        {
          "name": "_proposalID",
          "type": "string"
        },
        {
          "name": "_fundingGoal",
          "type": "uint256"
        },
        {
          "name": "_interestRate",
          "type": "uint8"
        },
        {
          "name": "_tenureInMonths",
          "type": "uint8"
        }
      ],
      "name": "submitProposal",
      "outputs": [],
      "payable": false,
      "stateMutability": "nonpayable",
      "type": "function"
    },
    {
      "constant": false,
      "inputs": [
        {
          "name": "_proposalID",
          "type": "string"
        },
        {
          "name": "_proposalId",
          "type": "bytes32"
        }
      ],
      "name": "lendMoneyToProposal",
      "outputs": [],
      "payable": true,
      "stateMutability": "payable",
      "type": "function"
    },
    {
      "constant": false,
      "inputs": [
        {
          "name": "_proposalID",
          "type": "string"
        }
      ],
      "name": "reachedGoal",
      "outputs": [],
      "payable": false,
      "stateMutability": "nonpayable",
      "type": "function"
    },
    {
      "constant": true,
      "inputs": [
        {
          "name": "_proposalID",
          "type": "string"
        }
      ],
      "name": "getProposalDueDate",
      "outputs": [
        {
          "name": "",
          "type": "uint256"
        }
      ],
      "payable": false,
      "stateMutability": "view",
      "type": "function"
    },
    {
      "constant": true,
      "inputs": [
        {
          "name": "_proposalID",
          "type": "string"
        }
      ],
      "name": "getDaysRemainingInInstallmentDue",
      "outputs": [
        {
          "name": "",
          "type": "uint256"
        }
      ],
      "payable": false,
      "stateMutability": "view",
      "type": "function"
    },
    {
      "constant": false,
      "inputs": [
        {
          "name": "_proposalID",
          "type": "string"
        }
      ],
      "name": "getMoneyAsBorrowerAfterDeadline",
      "outputs": [],
      "payable": true,
      "stateMutability": "payable",
      "type": "function"
    },
    {
      "constant": true,
      "inputs": [
        {
          "name": "_proposalID",
          "type": "string"
        }
      ],
      "name": "getProposalStartTS",
      "outputs": [
        {
          "name": "",
          "type": "uint256"
        }
      ],
      "payable": false,
      "stateMutability": "view",
      "type": "function"
    },
    {
      "constant": true,
      "inputs": [
        {
          "name": "_proposalID",
          "type": "string"
        }
      ],
      "name": "checkProposalFunding",
      "outputs": [
        {
          "name": "",
          "type": "uint256"
        }
      ],
      "payable": false,
      "stateMutability": "view",
      "type": "function"
    },
    {
      "constant": true,
      "inputs": [
        {
          "name": "_proposalID",
          "type": "string"
        }
      ],
      "name": "getProposalExpiration",
      "outputs": [
        {
          "name": "",
          "type": "uint256"
        }
      ],
      "payable": false,
      "stateMutability": "view",
      "type": "function"
    },
    {
      "constant": true,
      "inputs": [
        {
          "name": "_proposalID",
          "type": "string"
        }
      ],
      "name": "getProposalLenders",
      "outputs": [
        {
          "name": "",
          "type": "address[]"
        }
      ],
      "payable": false,
      "stateMutability": "view",
      "type": "function"
    },
    {
      "constant": true,
      "inputs": [
        {
          "name": "_proposalID",
          "type": "string"
        },
        {
          "name": "_lender",
          "type": "address"
        }
      ],
      "name": "getLenderDetails",
      "outputs": [
        {
          "name": "",
          "type": "uint256"
        },
        {
          "name": "",
          "type": "uint8"
        }
      ],
      "payable": false,
      "stateMutability": "view",
      "type": "function"
    },
    {
      "constant": true,
      "inputs": [],
      "name": "getLenderProposals",
      "outputs": [
        {
          "name": "",
          "type": "bytes32[]"
        }
      ],
      "payable": false,
      "stateMutability": "view",
      "type": "function"
    },
    {
      "constant": true,
      "inputs": [
        {
          "name": "_proposalID",
          "type": "string"
        }
      ],
      "name": "getInstallmentStartTS",
      "outputs": [
        {
          "name": "",
          "type": "uint256"
        }
      ],
      "payable": false,
      "stateMutability": "view",
      "type": "function"
    }
  ],
  "bytecode": "0x60806040526201518060005562278d0060035534801561001e57600080fd5b5033600460006101000a81548173ffffffffffffffffffffffffffffffffffffffff021916908373ffffffffffffffffffffffffffffffffffffffff160217905550611b908061006f6000396000f3006080604052600436106100c5576000357c0100000000000000000000000000000000000000000000000000000000900463ffffffff1680633c504ccc146100ca5780636bbe7f8214610119578063879d8deb146101965780638d328e13146102265780639071a888146102855780639c27cb3e146102f15780639e9584ec14610340578063ab28856e1461037b578063c920d3e0146103a9578063d0da5512146103e5578063e6ee6d7c14610462578063e7d3a544146104de578063f38e22f11461055b575b600080fd5b3480156100d657600080fd5b506101036004803603810190808035906020019082018035906020019190919293919293905050506105aa565b6040518082815260200191505060405180910390f35b34801561012557600080fd5b50610180600480360381019080803590602001908201803590602001908080601f01602080910402602001604051908101604052809392919081815260200183838082843782019150505050505091929192905050506105dd565b6040518082815260200191505060405180910390f35b3480156101a257600080fd5b506101cf6004803603810190808035906020019082018035906020019190919293919293905050506106d7565b6040518080602001828103825283818151815260200191508051906020019060200280838360005b838110156102125780820151818401526020810190506101f7565b505050509050019250505060405180910390f35b34801561023257600080fd5b5061028360048036038101908080359060200190820180359060200191909192939192939080359060200190929190803560ff169060200190929190803560ff16906020019092919050505061078b565b005b34801561029157600080fd5b5061029a610999565b6040518080602001828103825283818151815260200191508051906020019060200280838360005b838110156102dd5780820151818401526020810190506102c2565b505050509050019250505060405180910390f35b3480156102fd57600080fd5b5061032a600480360381019080803590602001908201803590602001919091929391929390505050610ab1565b6040518082815260200191505060405180910390f35b34801561034c57600080fd5b50610379600480360381019080803590602001908201803590602001919091929391929390505050610ae1565b005b6103a7600480360381019080803590602001908201803590602001919091929391929390505050610d79565b005b6103e36004803603810190808035906020019082018035906020019190919293919293908035600019169060200190929190505050611112565b005b3480156103f157600080fd5b5061044c600480360381019080803590602001908201803590602001908080601f016020809104026020016040519081016040528093929190818152602001838380828437820191505050505050919291929050505061160e565b6040518082815260200191505060405180910390f35b34801561046e57600080fd5b506104bb600480360381019080803590602001908201803590602001919091929391929390803573ffffffffffffffffffffffffffffffffffffffff16906020019092919050505061163c565b604051808381526020018260ff1660ff1681526020019250505060405180910390f35b3480156104ea57600080fd5b50610545600480360381019080803590602001908201803590602001908080601f0160208091040260200160405190810160405280939291908181526020018383808284378201915050505050509192919290505050611724565b6040518082815260200191505060405180910390f35b34801561056757600080fd5b5061059460048036038101908080359060200190820180359060200191909192939192939050505061181d565b6040518082815260200191505060405180910390f35b60006005838360405180838380828437820191505092505050908152602001604051809103902060020154905092915050565b6000816009816040518082805190602001908083835b60208310151561061857805182526020820191506020810190506020830392506105f3565b6001836020036101000a038019825116818451168082178552505050505050905001915050908152602001604051809103902060009054906101000a900460ff1615156106d1576005836040518082805190602001908083835b6020831015156106975780518252602082019150602081019050602083039250610672565b6001836020036101000a03801982511681845116808217855250505050505090500191505090815260200160405180910390206004015491505b50919050565b6060600b838360405180838380828437820191505092505050908152602001604051809103902080548060200260200160405190810160405280929190818152602001828054801561077e57602002820191906000526020600020905b8160009054906101000a900473ffffffffffffffffffffffffffffffffffffffff1673ffffffffffffffffffffffffffffffffffffffff1681526020019060010190808311610734575b5050505050905092915050565b60a0604051908101604052808481526020018360ff168152602001600081526020018260ff1681526020016000815250600586866040518083838082843782019150509250505090815260200160405180910390206000820151816000015560208201518160010160006101000a81548160ff021916908360ff1602179055506040820151816002015560608201518160030160006101000a81548160ff021916908360ff16021790555060808201518160040155905050600760003373ffffffffffffffffffffffffffffffffffffffff1673ffffffffffffffffffffffffffffffffffffffff1681526020019081526020016000208585909180600181540180825580915050906001820390600052602060002001600090919293909192939091929091925091906108c0929190611aa2565b505060005442016006868660405180838380828437820191505092505050908152602001604051809103902081905550336008868660405180838380828437820191505092505050908152602001604051809103902060006101000a81548173ffffffffffffffffffffffffffffffffffffffff021916908373ffffffffffffffffffffffffffffffffffffffff16021790555060016009868660405180838380828437820191505092505050908152602001604051809103902060006101000a81548160ff0219169083151502179055505050505050565b606080600c60003373ffffffffffffffffffffffffffffffffffffffff1673ffffffffffffffffffffffffffffffffffffffff16815260200190815260200160002060000180549050604051908082528060200260200182016040528015610a105781602001602082028038833980820191505090505b509050600c60003373ffffffffffffffffffffffffffffffffffffffff1673ffffffffffffffffffffffffffffffffffffffff168152602001908152602001600020600001805480602002602001604051908101604052809291908181526020018280548015610aa357602002820191906000526020600020905b81546000191681526020019060010190808311610a8b575b505050505090508091505090565b60006006838360405180838380828437820191505092505050908152602001604051809103902054905092915050565b6000600460009054906101000a900473ffffffffffffffffffffffffffffffffffffffff1673ffffffffffffffffffffffffffffffffffffffff163373ffffffffffffffffffffffffffffffffffffffff161415610d745782828080601f0160208091040260200160405190810160405280939291908181526020018383808284378201915050505050506006816040518082805190602001908083835b602083101515610ba45780518252602082019150602081019050602083039250610b7f565b6001836020036101000a03801982511681845116808217855250505050505090500191505090815260200160405180910390205442101515610d7257600584846040518083838082843782019150509250505090815260200160405180910390209150816000015482600201541415610d6c57600015156009858560405180838380828437820191505092505050908152602001604051809103902060009054906101000a90505050428260040181905550610c9184848080601f016020809104026020016040519081016040528093929190818152602001838380828437820191505050505050611850565b7f0919547352c3feb5516e059a7a2c5bf9739f61eb5c02673dbb990c9d71147c7e6008858560405180838380828437820191505092505050908152602001604051809103902060009054906101000a900473ffffffffffffffffffffffffffffffffffffffff1685858560000154604051808573ffffffffffffffffffffffffffffffffffffffff1673ffffffffffffffffffffffffffffffffffffffff16815260200180602001838152602001828103825285858281815260200192508082843782019150509550505050505060405180910390a1610d71565b600080fd5b5b505b505050565b60008083838080601f0160208091040260200160405190810160405280939291908181526020018383808284378201915050505050506006816040518082805190602001908083835b602083101515610de75780518252602082019150602081019050602083039250610dc2565b6001836020036101000a0380198251168184511680821785525050505050509050019150509081526020016040518091039020544210151561110b5784848080601f0160208091040260200160405190810160405280939291908181526020018383808284378201915050505050506009816040518082805190602001908083835b602083101515610e8e5780518252602082019150602081019050602083039250610e69565b6001836020036101000a038019825116818451168082178552505050505050905001915050908152602001604051809103902060009054906101000a900460ff1615156111095785858080601f0160208091040260200160405190810160405280939291908181526020018383808284378201915050505050506008816040518082805190602001908083835b602083101515610f405780518252602082019150602081019050602083039250610f1b565b6001836020036101000a038019825116818451168082178552505050505050905001915050908152602001604051809103902060009054906101000a900473ffffffffffffffffffffffffffffffffffffffff1673ffffffffffffffffffffffffffffffffffffffff163373ffffffffffffffffffffffffffffffffffffffff161415611107576008878760405180838380828437820191505092505050908152602001604051809103902060009054906101000a900473ffffffffffffffffffffffffffffffffffffffff1694506005878760405180838380828437820191505092505050908152602001604051809103902093508473ffffffffffffffffffffffffffffffffffffffff166108fc85600001549081150290604051600060405180830381858888f1935050505015611106577fd169e4413209130c0ad529abc8385aedc3f0be5237db60476597303dad223ef28588888760000154604051808573ffffffffffffffffffffffffffffffffffffffff1673ffffffffffffffffffffffffffffffffffffffff16815260200180602001838152602001828103825285858281815260200192508082843782019150509550505050505060405180910390a15b5b505b505b5050505050565b600061111c611b22565b84848080601f016020809104026020016040519081016040528093929190818152602001838380828437820191505050505050346005826040518082805190602001908083835b6020831015156111885780518252602082019150602081019050602083039250611163565b6001836020036101000a0380198251168184511680821785525050505050509050019150509081526020016040518091039020600201546005836040518082805190602001908083835b6020831015156111f757805182526020820191506020810190506020830392506111d2565b6001836020036101000a03801982511681845116808217855250505050505090500191505090815260200160405180910390206000015403811115156116055786868080601f0160208091040260200160405190810160405280939291908181526020018383808284378201915050505050506006816040518082805190602001908083835b6020831015156112a2578051825260208201915060208101905060208303925061127d565b6001836020036101000a038019825116818451168082178552505050505050905001915050908152602001604051809103902054421115156116035787878080601f0160208091040260200160405190810160405280939291908181526020018383808284378201915050505050506009816040518082805190602001908083835b6020831015156113495780518252602082019150602081019050602083039250611324565b6001836020036101000a038019825116818451168082178552505050505050905001915050908152602001604051809103902060009054906101000a900460ff1615611601576000341115611600576005898960405180838380828437820191505092505050908152602001604051809103902095506113cd866002015434611a2e565b8660020181905550348560000181815250506113f76113ed346064611a4c565b8760000154611a87565b856020019060ff16908160ff168152505084600a8a8a60405180838380828437820191505092505050908152602001604051809103902060003373ffffffffffffffffffffffffffffffffffffffff1673ffffffffffffffffffffffffffffffffffffffff1681526020019081526020016000206000820151816000015560208201518160010160006101000a81548160ff021916908360ff160217905550905050600b89896040518083838082843782019150509250505090815260200160405180910390203390806001815401808255809150509060018203906000526020600020016000909192909190916101000a81548173ffffffffffffffffffffffffffffffffffffffff021916908373ffffffffffffffffffffffffffffffffffffffff16021790555050600c60003373ffffffffffffffffffffffffffffffffffffffff1673ffffffffffffffffffffffffffffffffffffffff1681526020019081526020016000206000018790806001815401808255809150509060018203906000526020600020016000909192909190915090600019169055507f1853ca9dc0208799379313b2b43364e45db022f073c72648fbc206dc0bacbcdc3334604051808373ffffffffffffffffffffffffffffffffffffffff1673ffffffffffffffffffffffffffffffffffffffff1681526020018281526020019250505060405180910390a15b5b505b505b50505050505050565b60004261161a83611724565b1115611632574261162a83611724565b039050611637565b600090505b919050565b600080600a858560405180838380828437820191505092505050908152602001604051809103902060008473ffffffffffffffffffffffffffffffffffffffff1673ffffffffffffffffffffffffffffffffffffffff16815260200190815260200160002060000154600a868660405180838380828437820191505092505050908152602001604051809103902060008573ffffffffffffffffffffffffffffffffffffffff1673ffffffffffffffffffffffffffffffffffffffff16815260200190815260200160002060010160009054906101000a900460ff1691509150935093915050565b600080600d836040518082805190602001908083835b60208310151561175f578051825260208201915060208101905060208303925061173a565b6001836020036101000a03801982511681845116808217855250505050505090500191505090815260200160405180910390205414156117a9576117a2826105dd565b9050611818565b600d826040518082805190602001908083835b6020831015156117e157805182526020820191506020810190506020830392506117bc565b6001836020036101000a03801982511681845116808217855250505050505090500191505090815260200160405180910390205490505b919050565b60006005838360405180838380828437820191505092505050908152602001604051809103902060040154905092915050565b600061185b826105dd565b90506000600d836040518082805190602001908083835b6020831015156118975780518252602082019150602081019050602083039250611872565b6001836020036101000a038019825116818451168082178552505050505050905001915050908152602001604051809103902054141561194a576003548101600d836040518082805190602001908083835b60208310151561190e57805182526020820191506020810190506020830392506118e9565b6001836020036101000a038019825116818451168082178552505050505050905001915050908152602001604051809103902081905550611a2a565b600354600d836040518082805190602001908083835b6020831015156119855780518252602082019150602081019050602083039250611960565b6001836020036101000a03801982511681845116808217855250505050505090500191505090815260200160405180910390205401600d836040518082805190602001908083835b6020831015156119f257805182526020820191506020810190506020830392506119cd565b6001836020036101000a0380198251168184511680821785525050505050509050019150509081526020016040518091039020819055505b5050565b6000808284019050838110151515611a4257fe5b8091505092915050565b6000806000841415611a615760009150611a80565b8284029050828482811515611a7257fe5b04141515611a7c57fe5b8091505b5092915050565b6000808284811515611a9557fe5b0490508091505092915050565b828054600181600116156101000203166002900490600052602060002090601f016020900481019282601f10611ae357803560ff1916838001178555611b11565b82800160010185558215611b11579182015b82811115611b10578235825591602001919060010190611af5565b5b509050611b1e9190611b3f565b5090565b604080519081016040528060008152602001600060ff1681525090565b611b6191905b80821115611b5d576000816000905550600101611b45565b5090565b905600a165627a7a7230582088bb884a86d93f2a380293c8427259550b580d3ee6fb3e8e6866e834cac16dd80029",
  "source": "pragma solidity ^0.4.19;\r\n\r\nimport \"./SafeMath.sol\";\r\n\r\ncontract CollectFund {\r\n\r\n    uint deadline = 1 days;\r\n    using SafeMath for uint256;\r\n    uint256 length;\r\n    uint256 i;\r\n    uint256 duePeriod = 30 days;\r\n    address admin;\r\n\r\n    /*Store proposals raised by borrowers*/\r\n    struct BorrowerProposal {\r\n        uint256 fundingGoal;                                //Funding goal in Ether\r\n        uint8 interestRate;                                 //Rate of interest offered by borrower in the proposal\r\n        uint256 fundingReached;                             //Proposal funding reached\r\n        uint8 tenureInMonths;                               //Proposal loan duration\r\n        uint256 installmentStartTS;                         //If proposal goal achieved proposal start timestamp \r\n    }\r\n\r\n    /*Store lender contribution information per proposal per lender address*/\r\n    struct LenderInfo {\r\n        uint256 amount;                                     //Contributed amount\r\n        uint8 fundRatio;                                    //Store contribution ration in an unsigned integer format\r\n    }\r\n\r\n    /*Store contributed proposals per lender*/\r\n    struct LenderContributions{\r\n        bytes32[] proposalID;                               //Store contributed proposal ids\r\n    }\r\n\r\n    mapping (string => BorrowerProposal) mapProposalsWithProposalIDs;                   //map proposal information with proposal ids\r\n    mapping (string => uint256) mapProposalWithDeadline;                                //map proposal expiration with proposal ids, default 1 day\r\n    mapping (address => string[]) mapBorrowerWithProposalIDs;                           //map borrower's raised porposals with his address\r\n    mapping (string => address) mapProposalWithOwner;                                   //map proposal ids with proposal owners/borrower's address\r\n    mapping (string => bool) proposalOpen;                                              //map proposal ids with activity status\r\n    mapping (string => mapping(address =>LenderInfo)) mapProposalWithLenderInfo;        //map proposal ids and contributer's address with contribution - 2d\r\n    mapping (string => address[]) mapLendersWithProposal;                               //map proposal ids with contributers\r\n    mapping (address => LenderContributions) mapProposalIDsWithLenders;                 //map contributer's information with contributed proposal ids\r\n    mapping (string => uint256) mapProposalIDWithNextDueDate;                           //map next instllment due date with proposal/loan ids\r\n\r\n\r\n    event EtherTransfer(address _from, uint256 _value);                                             \r\n    event GoalReached(address _proposalOwner, string _proposalID, uint256 _fundingGoal);            \r\n    event GetFundAfterGoalReached(address _proposalOwner, string _proposalID, uint256 _amount);\r\n    event WithdrawFundWhenGoalNotReached(address _lender, string _proposalID, uint256 _amount);\r\n\r\n    modifier checkDeadline(string _proposalID) {\r\n        if (now <= mapProposalWithDeadline[_proposalID])\r\n        _;\r\n    }\r\n\r\n    modifier afterDeadline(string _proposalID) {\r\n        if (now >= mapProposalWithDeadline[_proposalID])\r\n        _;\r\n    }\r\n\r\n    modifier checkProposalOwner(string _proposalID) {\r\n        if ( msg.sender == mapProposalWithOwner[_proposalID])\r\n        _;\r\n    }\r\n\r\n    modifier checkProposalStatus(string _proposalID) {\r\n        if ( proposalOpen[_proposalID])\r\n        _;\r\n    }\r\n\r\n    modifier proposalGoalReached(string _proposalID) {\r\n        if ( !proposalOpen[_proposalID])\r\n        _;\r\n    }\r\n\r\n    modifier fundingOverflow(string _proposalID, uint256 _amount) {\r\n        if (_amount <= (mapProposalsWithProposalIDs[_proposalID].fundingGoal - mapProposalsWithProposalIDs[_proposalID].fundingReached))\r\n        _;\r\n    }\r\n\r\n    modifier onlyAdmin() {\r\n        if (msg.sender == admin) {\r\n            _;\r\n        }\r\n    }\r\n\r\n    function CollectFund() {\r\n        admin = msg.sender;\r\n    }\r\n\r\n    /*Borrower proposal submission with generated proposal id, proposal funding goal, rate of interest and loan tenure */\r\n    function submitProposal(string _proposalID, uint256 _fundingGoal, uint8 _interestRate, uint8 _tenureInMonths) external {\r\n        mapProposalsWithProposalIDs[_proposalID] = BorrowerProposal(_fundingGoal,_interestRate,0, _tenureInMonths,0);\r\n        mapBorrowerWithProposalIDs[msg.sender].push(_proposalID);\r\n        mapProposalWithDeadline[_proposalID] = now+deadline;\r\n        mapProposalWithOwner[_proposalID] = msg.sender;\r\n        proposalOpen[_proposalID] = true;\r\n    }\r\n\r\n    /*Lend Ethers to proposal by proposal id*/\r\n    function lendMoneyToProposal(string _proposalID, bytes32 _proposalId) payable fundingOverflow(_proposalID,msg.value) checkDeadline(_proposalID) checkProposalStatus(_proposalID) external {\r\n        if (msg.value > 0 ) {\r\n            BorrowerProposal storage currentProposal = mapProposalsWithProposalIDs[_proposalID];\r\n            currentProposal.fundingReached = SafeMath.add(currentProposal.fundingReached,msg.value);\r\n            LenderInfo memory currentLender;\r\n            currentLender.amount = msg.value;\r\n            currentLender.fundRatio = uint8(SafeMath.div((SafeMath.mul(msg.value, 100)),(currentProposal.fundingGoal)));\r\n            mapProposalWithLenderInfo[_proposalID][msg.sender] = currentLender;\r\n            mapLendersWithProposal[_proposalID].push(msg.sender);\r\n            mapProposalIDsWithLenders[msg.sender].proposalID.push(_proposalId);       \r\n            EtherTransfer(msg.sender,msg.value);\r\n        }\r\n    }\r\n\r\n    /*Admin to close proposal after deadline and successful funding*/\r\n    function reachedGoal(string _proposalID) onlyAdmin afterDeadline(_proposalID) external {\r\n        BorrowerProposal storage currentProposal = mapProposalsWithProposalIDs[_proposalID];\r\n        if (currentProposal.fundingReached == currentProposal.fundingGoal) {\r\n            proposalOpen[_proposalID] == false;\r\n            currentProposal.installmentStartTS = now;\r\n            setNextDueDate(_proposalID);\r\n            GoalReached(mapProposalWithOwner[_proposalID], _proposalID, currentProposal.fundingGoal);\r\n        }\r\n        else{\r\n            throw;\r\n        }\r\n\r\n    }\r\n\r\n    /*Contract internal function to set next installment due date*/\r\n    function setNextDueDate(string _proposalID) internal {\r\n        uint256 installmentStart = getInstallmentStartTS(_proposalID);\r\n        if (mapProposalIDWithNextDueDate[_proposalID] == 0){\r\n            mapProposalIDWithNextDueDate[_proposalID] = installmentStart + duePeriod;\r\n        }\r\n        else {\r\n            mapProposalIDWithNextDueDate[_proposalID] = mapProposalIDWithNextDueDate[_proposalID] + duePeriod;\r\n        }\r\n    }\r\n\r\n    /*Get installment due date by proposal/loan id*/\r\n    function getProposalDueDate(string _proposalID) view returns(uint256) {\r\n        if (mapProposalIDWithNextDueDate[_proposalID] == 0){\r\n            return getInstallmentStartTS(_proposalID);\r\n        }\r\n        else {\r\n            return mapProposalIDWithNextDueDate[_proposalID];\r\n        }\r\n    }\r\n\r\n    /*Get days left in installment due date by proposal/loan id*/\r\n    function getDaysRemainingInInstallmentDue(string _proposalID) view returns(uint256) {\r\n        if (getProposalDueDate(_proposalID) > now) {\r\n            return (getProposalDueDate(_proposalID) - now);\r\n        }\r\n        else {\r\n            return 0;\r\n        }\r\n    }\r\n\r\n    /*Get funding as borrower if proposal was successful to be triggered by proposal owner by proposal id*/\r\n    function getMoneyAsBorrowerAfterDeadline(string _proposalID) payable afterDeadline(_proposalID) proposalGoalReached(_proposalID) checkProposalOwner(_proposalID) external {\r\n        address proposalOwner = mapProposalWithOwner[_proposalID];\r\n        BorrowerProposal storage currentProposal = mapProposalsWithProposalIDs[_proposalID];\r\n        if (proposalOwner.send(currentProposal.fundingGoal)) {\r\n            GetFundAfterGoalReached(proposalOwner, _proposalID, currentProposal.fundingGoal);\r\n        }\r\n    }\r\n\r\n    /*Get proposal submission timestamp by proposal id */\r\n    function getProposalStartTS(string _proposalID) view external returns(uint256) {\r\n        return mapProposalsWithProposalIDs[_proposalID].installmentStartTS;\r\n\r\n    }\r\n\r\n    /*Check funding reached by proposal id*/\r\n    function checkProposalFunding(string _proposalID) view external returns(uint256){\r\n        return (mapProposalsWithProposalIDs[_proposalID].fundingReached);\r\n    }\r\n\r\n    /* */\r\n    function getProposalExpiration(string _proposalID) view external returns(uint256){\r\n        return mapProposalWithDeadline[_proposalID];\r\n    }\r\n\r\n    function getProposalLenders(string _proposalID) view external returns(address[]){\r\n        return (mapLendersWithProposal[_proposalID]);\r\n    }\r\n\r\n    function getLenderDetails(string _proposalID, address _lender) view external returns(uint256, uint8) {\r\n    return (mapProposalWithLenderInfo[_proposalID][_lender].amount, mapProposalWithLenderInfo[_proposalID][_lender].fundRatio);\r\n    }\r\n\r\n    function getLenderProposals() view external returns(bytes32[]) {\r\n        bytes32[] memory lenderContributedProposals = new bytes32[](mapProposalIDsWithLenders[msg.sender].proposalID.length);\r\n        lenderContributedProposals = mapProposalIDsWithLenders[msg.sender].proposalID;\r\n        return (lenderContributedProposals);\r\n    }\r\n\r\n    function getInstallmentStartTS(string _proposalID) view proposalGoalReached(_proposalID) returns(uint256) {\r\n        return (mapProposalsWithProposalIDs[_proposalID].installmentStartTS);\r\n    }\r\n\r\n}",
  "sourcePath": "D:\\work\\P2P-Lending\\WithSafeMath\\contracts\\CollectFund.sol",
  "compiler": {
    "name": "solc",
    "version": "0.4.23+commit.124ca40d.Emscripten.clang"
  },
  "schemaVersion": "2.0.0",
  "updatedAt": "2018-05-10T09:59:50.989Z"
}