{
  "contractName": "CollectFund",
  "abi": [
    {
      "constant": true,
      "inputs": [
        {
          "name": "",
          "type": "uint256"
        }
      ],
      "name": "AllProposalIDs",
      "outputs": [
        {
          "name": "proposalID",
          "type": "bytes32"
        }
      ],
      "payable": false,
      "stateMutability": "view",
      "type": "function"
    },
    {
      "inputs": [],
      "payable": false,
      "stateMutability": "nonpayable",
      "type": "constructor"
    },
    {
      "anonymous": false,
      "inputs": [
        {
          "indexed": false,
          "name": "_from",
          "type": "address"
        },
        {
          "indexed": false,
          "name": "_value",
          "type": "uint256"
        }
      ],
      "name": "EtherTransfer",
      "type": "event"
    },
    {
      "anonymous": false,
      "inputs": [
        {
          "indexed": false,
          "name": "_proposalOwner",
          "type": "address"
        },
        {
          "indexed": false,
          "name": "_proposalID",
          "type": "bytes32"
        },
        {
          "indexed": false,
          "name": "_fundingGoal",
          "type": "uint256"
        }
      ],
      "name": "GoalReached",
      "type": "event"
    },
    {
      "anonymous": false,
      "inputs": [
        {
          "indexed": false,
          "name": "_proposalOwner",
          "type": "address"
        },
        {
          "indexed": false,
          "name": "_proposalID",
          "type": "bytes32"
        },
        {
          "indexed": false,
          "name": "_amount",
          "type": "uint256"
        }
      ],
      "name": "GetFundAfterGoalReached",
      "type": "event"
    },
    {
      "anonymous": false,
      "inputs": [
        {
          "indexed": false,
          "name": "_lender",
          "type": "address"
        },
        {
          "indexed": false,
          "name": "_proposalID",
          "type": "bytes32"
        },
        {
          "indexed": false,
          "name": "_amount",
          "type": "uint256"
        }
      ],
      "name": "WithdrawFundWhenGoalNotReached",
      "type": "event"
    },
    {
      "constant": false,
      "inputs": [
        {
          "name": "_proposalID",
          "type": "bytes32"
        },
        {
          "name": "_fundingGoal",
          "type": "uint256"
        },
        {
          "name": "_interestRate",
          "type": "uint8"
        },
        {
          "name": "_tenureInMonths",
          "type": "uint8"
        },
        {
          "name": "_borrower",
          "type": "address"
        },
        {
          "name": "_ts",
          "type": "uint256"
        }
      ],
      "name": "submitProposal",
      "outputs": [],
      "payable": false,
      "stateMutability": "nonpayable",
      "type": "function"
    },
    {
      "constant": false,
      "inputs": [
        {
          "name": "_proposalID",
          "type": "bytes32"
        },
        {
          "name": "_amount",
          "type": "uint256"
        },
        {
          "name": "_lender",
          "type": "address"
        },
        {
          "name": "_ts",
          "type": "uint256"
        }
      ],
      "name": "lendMoneyToProposal",
      "outputs": [],
      "payable": true,
      "stateMutability": "payable",
      "type": "function"
    },
    {
      "constant": false,
      "inputs": [
        {
          "name": "_proposalID",
          "type": "bytes32"
        },
        {
          "name": "_ts",
          "type": "uint256"
        }
      ],
      "name": "checkGoalReached",
      "outputs": [],
      "payable": false,
      "stateMutability": "nonpayable",
      "type": "function"
    },
    {
      "constant": true,
      "inputs": [
        {
          "name": "_proposalID",
          "type": "bytes32"
        }
      ],
      "name": "getProposalDetailsByProposalID",
      "outputs": [
        {
          "name": "",
          "type": "uint256"
        },
        {
          "name": "",
          "type": "uint8"
        },
        {
          "name": "",
          "type": "uint256"
        },
        {
          "name": "",
          "type": "uint8"
        },
        {
          "name": "",
          "type": "uint256"
        },
        {
          "name": "",
          "type": "bool"
        },
        {
          "name": "",
          "type": "bool"
        }
      ],
      "payable": false,
      "stateMutability": "view",
      "type": "function"
    },
    {
      "constant": true,
      "inputs": [
        {
          "name": "_proposalID",
          "type": "bytes32"
        }
      ],
      "name": "getProposalDueDate",
      "outputs": [
        {
          "name": "",
          "type": "uint256"
        }
      ],
      "payable": false,
      "stateMutability": "view",
      "type": "function"
    },
    {
      "constant": true,
      "inputs": [
        {
          "name": "_borrower",
          "type": "address"
        }
      ],
      "name": "getBorrowerSuccessfulProposals",
      "outputs": [
        {
          "name": "",
          "type": "bytes32[]"
        }
      ],
      "payable": false,
      "stateMutability": "view",
      "type": "function"
    },
    {
      "constant": true,
      "inputs": [
        {
          "name": "_proposalID",
          "type": "bytes32"
        },
        {
          "name": "_ts",
          "type": "uint256"
        }
      ],
      "name": "getDaysRemainingInInstallmentDue",
      "outputs": [
        {
          "name": "",
          "type": "uint256"
        }
      ],
      "payable": false,
      "stateMutability": "view",
      "type": "function"
    },
    {
      "constant": false,
      "inputs": [
        {
          "name": "_proposalID",
          "type": "bytes32"
        },
        {
          "name": "_ts",
          "type": "uint256"
        }
      ],
      "name": "getMoneyAsBorrowerAfterDeadline",
      "outputs": [],
      "payable": true,
      "stateMutability": "payable",
      "type": "function"
    },
    {
      "constant": true,
      "inputs": [
        {
          "name": "_proposalID",
          "type": "bytes32"
        }
      ],
      "name": "checkProposalFunding",
      "outputs": [
        {
          "name": "",
          "type": "uint256"
        }
      ],
      "payable": false,
      "stateMutability": "view",
      "type": "function"
    },
    {
      "constant": true,
      "inputs": [
        {
          "name": "_proposalID",
          "type": "bytes32"
        }
      ],
      "name": "getProposalExpiration",
      "outputs": [
        {
          "name": "",
          "type": "uint256"
        }
      ],
      "payable": false,
      "stateMutability": "view",
      "type": "function"
    },
    {
      "constant": true,
      "inputs": [
        {
          "name": "_proposalID",
          "type": "bytes32"
        }
      ],
      "name": "getProposalOwner",
      "outputs": [
        {
          "name": "",
          "type": "address"
        }
      ],
      "payable": false,
      "stateMutability": "view",
      "type": "function"
    },
    {
      "constant": true,
      "inputs": [
        {
          "name": "_proposalID",
          "type": "bytes32"
        }
      ],
      "name": "getProposalLendersWithDetails",
      "outputs": [
        {
          "name": "",
          "type": "address[]"
        },
        {
          "name": "",
          "type": "uint256[]"
        },
        {
          "name": "",
          "type": "uint8[]"
        }
      ],
      "payable": false,
      "stateMutability": "view",
      "type": "function"
    },
    {
      "constant": true,
      "inputs": [
        {
          "name": "_proposalID",
          "type": "bytes32"
        },
        {
          "name": "_lender",
          "type": "address"
        }
      ],
      "name": "getLenderDetails",
      "outputs": [
        {
          "name": "",
          "type": "uint256"
        },
        {
          "name": "",
          "type": "uint8"
        }
      ],
      "payable": false,
      "stateMutability": "view",
      "type": "function"
    },
    {
      "constant": true,
      "inputs": [
        {
          "name": "_borrower",
          "type": "address"
        }
      ],
      "name": "getBorrrowerSpecificProposals",
      "outputs": [
        {
          "name": "",
          "type": "bytes32[]"
        }
      ],
      "payable": false,
      "stateMutability": "view",
      "type": "function"
    },
    {
      "constant": true,
      "inputs": [],
      "name": "getAllProposalsForBorrowerList",
      "outputs": [
        {
          "name": "",
          "type": "bytes32[]"
        }
      ],
      "payable": false,
      "stateMutability": "view",
      "type": "function"
    },
    {
      "constant": true,
      "inputs": [
        {
          "name": "_lender",
          "type": "address"
        }
      ],
      "name": "getLenderSuccessfulProposals",
      "outputs": [
        {
          "name": "",
          "type": "bytes32[]"
        }
      ],
      "payable": false,
      "stateMutability": "view",
      "type": "function"
    },
    {
      "constant": true,
      "inputs": [
        {
          "name": "_proposalID",
          "type": "bytes32"
        }
      ],
      "name": "getInstallmentStartTS",
      "outputs": [
        {
          "name": "",
          "type": "uint256"
        }
      ],
      "payable": false,
      "stateMutability": "view",
      "type": "function"
    }
  ],
  "bytecode": "0x60806040526201518060005562278d0060035534801561001e57600080fd5b5033600460006101000a81548173ffffffffffffffffffffffffffffffffffffffff021916908373ffffffffffffffffffffffffffffffffffffffff160217905550611fcc8061006f6000396000f3006080604052600436106100fc576000357c0100000000000000000000000000000000000000000000000000000000900463ffffffff1680630171ce83146101015780630973f70b146101805780632c9ca75c146101f25780633f48b4331461024a5780634466f1b21461028f57806349bff7dc1461031257806353015bd51461038357806354738a54146103be57806387a965f2146104565780639276c8c41461049f57806396edcb401461050b578063994a7bd6146105a35780639b91e76b146105e85780639f4192df146106fe578063b0f60ac814610743578063d4c1695d14610771578063d84fcbc7146107b6578063fec1976e1461084e575b600080fd5b34801561010d57600080fd5b5061017e600480360381019080803560001916906020019092919080359060200190929190803560ff169060200190929190803560ff169060200190929190803573ffffffffffffffffffffffffffffffffffffffff1690602001909291908035906020019092919050505061089d565b005b34801561018c57600080fd5b506101cf6004803603810190808035600019169060200190929190803573ffffffffffffffffffffffffffffffffffffffff169060200190929190505050610af7565b604051808381526020018260ff1660ff1681526020019250505060405180910390f35b610248600480360381019080803560001916906020019092919080359060200190929190803573ffffffffffffffffffffffffffffffffffffffff16906020019092919080359060200190929190505050610bca565b005b34801561025657600080fd5b506102796004803603810190808035600019169060200190929190505050610ed5565b6040518082815260200191505060405180910390f35b34801561029b57600080fd5b506102be6004803603810190808035600019169060200190929190505050610efa565b604051808881526020018760ff1660ff1681526020018681526020018560ff1660ff168152602001848152602001831515151581526020018215151515815260200197505050505050505060405180910390f35b34801561031e57600080fd5b506103416004803603810190808035600019169060200190929190505050611025565b604051808273ffffffffffffffffffffffffffffffffffffffff1673ffffffffffffffffffffffffffffffffffffffff16815260200191505060405180910390f35b34801561038f57600080fd5b506103bc60048036038101908080356000191690602001909291908035906020019092919050505061106a565b005b3480156103ca57600080fd5b506103ff600480360381019080803573ffffffffffffffffffffffffffffffffffffffff1690602001909291905050506112bf565b6040518080602001828103825283818151815260200191508051906020019060200280838360005b83811015610442578082015181840152602081019050610427565b505050509050019250505060405180910390f35b34801561046257600080fd5b506104816004803603810190808035906020019092919050505061135a565b60405180826000191660001916815260200191505060405180910390f35b3480156104ab57600080fd5b506104b4611383565b6040518080602001828103825283818151815260200191508051906020019060200280838360005b838110156104f75780820151818401526020810190506104dc565b505050509050019250505060405180910390f35b34801561051757600080fd5b5061054c600480360381019080803573ffffffffffffffffffffffffffffffffffffffff16906020019092919050505061149d565b6040518080602001828103825283818151815260200191508051906020019060200280838360005b8381101561058f578082015181840152602081019050610574565b505050509050019250505060405180910390f35b3480156105af57600080fd5b506105d2600480360381019080803560001916906020019092919050505061169a565b6040518082815260200191505060405180910390f35b3480156105f457600080fd5b5061061760048036038101908080356000191690602001909291905050506116f1565b60405180806020018060200180602001848103845287818151815260200191508051906020019060200280838360005b83811015610662578082015181840152602081019050610647565b50505050905001848103835286818151815260200191508051906020019060200280838360005b838110156106a4578082015181840152602081019050610689565b50505050905001848103825285818151815260200191508051906020019060200280838360005b838110156106e65780820151818401526020810190506106cb565b50505050905001965050505050505060405180910390f35b34801561070a57600080fd5b5061072d60048036038101908080356000191690602001909291905050506119c4565b6040518082815260200191505060405180910390f35b61076f600480360381019080803560001916906020019092919080359060200190929190505050611a1d565b005b34801561077d57600080fd5b506107a06004803603810190808035600019169060200190929190505050611c0c565b6040518082815260200191505060405180910390f35b3480156107c257600080fd5b506107f7600480360381019080803573ffffffffffffffffffffffffffffffffffffffff169060200190929190505050611c34565b6040518080602001828103825283818151815260200191508051906020019060200280838360005b8381101561083a57808201518184015260208101905061081f565b505050509050019250505060405180910390f35b34801561085a57600080fd5b50610887600480360381019080803560001916906020019092919080359060200190929190505050611e2b565b6040518082815260200191505060405180910390f35b60a0604051908101604052808681526020018560ff168152602001600081526020018460ff168152602001828152506006600088600019166000191681526020019081526020016000206000820151816000015560208201518160010160006101000a81548160ff021916908360ff1602179055506040820151816002015560608201518160030160006101000a81548160ff021916908360ff16021790555060808201518160040155905050600860008373ffffffffffffffffffffffffffffffffffffffff1673ffffffffffffffffffffffffffffffffffffffff1681526020019081526020016000208690806001815401808255809150509060018203906000526020600020016000909192909190915090600019169055506000548101600760008860001916600019168152602001908152602001600020819055508160096000886000191660001916815260200190815260200160002060006101000a81548173ffffffffffffffffffffffffffffffffffffffff021916908373ffffffffffffffffffffffffffffffffffffffff1602179055506001600a6000886000191660001916815260200190815260200160002060006101000a81548160ff0219169083151502179055506000600f6000886000191660001916815260200190815260200160002060006101000a81548160ff0219169083151502179055506005602060405190810160405280886000191681525090806001815401808255809150509060018203906000526020600020016000909192909190915060008201518160000190600019169055505050505050505050565b600080600b6000856000191660001916815260200190815260200160002060008473ffffffffffffffffffffffffffffffffffffffff1673ffffffffffffffffffffffffffffffffffffffff16815260200190815260200160002060000154600b6000866000191660001916815260200190815260200160002060008573ffffffffffffffffffffffffffffffffffffffff1673ffffffffffffffffffffffffffffffffffffffff16815260200190815260200160002060010160009054906101000a900460ff16915091509250929050565b6000610bd4611f6c565b858560066000836000191660001916815260200190815260200160002060020154600660008460001916600019168152602001908152602001600020600001540381111515610ecb5787856007600083600019166000191681526020019081526020016000205481111515610ec85789600a6000826000191660001916815260200190815260200160002060009054906101000a900460ff1615610ec6576000341115610ec557600660008c600019166000191681526020019081526020016000209650610ca687600201548b611e5a565b876002018190555089866000018181525050610cd0610cc68b6064611e78565b8860000154611eb3565b866020019060ff16908160ff168152505085600b60008d6000191660001916815260200190815260200160002060008b73ffffffffffffffffffffffffffffffffffffffff1673ffffffffffffffffffffffffffffffffffffffff1681526020019081526020016000206000820151816000015560208201518160010160006101000a81548160ff021916908360ff160217905550905050600c60008c600019166000191681526020019081526020016000208990806001815401808255809150509060018203906000526020600020016000909192909190916101000a81548173ffffffffffffffffffffffffffffffffffffffff021916908373ffffffffffffffffffffffffffffffffffffffff16021790555050600d60008a73ffffffffffffffffffffffffffffffffffffffff1673ffffffffffffffffffffffffffffffffffffffff1681526020019081526020016000206000018b90806001815401808255809150509060018203906000526020600020016000909192909190915090600019169055507f1853ca9dc0208799379313b2b43364e45db022f073c72648fbc206dc0bacbcdc898b604051808373ffffffffffffffffffffffffffffffffffffffff1673ffffffffffffffffffffffffffffffffffffffff1681526020018281526020019250505060405180910390a15b5b505b50505b5050505050505050565b6000600760008360001916600019168152602001908152602001600020549050919050565b600080600080600080600060066000896000191660001916815260200190815260200160002060000154600660008a6000191660001916815260200190815260200160002060010160009054906101000a900460ff16600660008b6000191660001916815260200190815260200160002060020154600660008c6000191660001916815260200190815260200160002060030160009054906101000a900460ff16600660008d6000191660001916815260200190815260200160002060040154600f60008e6000191660001916815260200190815260200160002060009054906101000a900460ff16600a60008f6000191660001916815260200190815260200160002060009054906101000a900460ff169650965096509650965096509650919395979092949650565b600060096000836000191660001916815260200190815260200160002060009054906101000a900473ffffffffffffffffffffffffffffffffffffffff169050919050565b6000600460009054906101000a900473ffffffffffffffffffffffffffffffffffffffff1673ffffffffffffffffffffffffffffffffffffffff163373ffffffffffffffffffffffffffffffffffffffff1614156112ba57828260076000836000191660001916815260200190815260200160002054811015156112b757600660008660001916600019168152602001908152602001600020925082600001548360020154141561125d5760001515600a6000876000191660001916815260200190815260200160002060009054906101000a90505050836010600087600019166000191681526020019081526020016000208190555061116a85611ece565b6001600f6000876000191660001916815260200190815260200160002060006101000a81548160ff0219169083151502179055507fca7dda9f30e83b1017ab663d6725df4277f3c589212935d66d45cd9853076ed360096000876000191660001916815260200190815260200160002060009054906101000a900473ffffffffffffffffffffffffffffffffffffffff16868560000154604051808473ffffffffffffffffffffffffffffffffffffffff1673ffffffffffffffffffffffffffffffffffffffff1681526020018360001916600019168152602001828152602001935050505060405180910390a16112b6565b60001515600a6000876000191660001916815260200190815260200160002060009054906101000a9050505060001515600f6000876000191660001916815260200190815260200160002060009054906101000a905050505b5b50505b505050565b6060600860008373ffffffffffffffffffffffffffffffffffffffff1673ffffffffffffffffffffffffffffffffffffffff16815260200190815260200160002080548060200260200160405190810160405280929190818152602001828054801561134e57602002820191906000526020600020905b81546000191681526020019060010190808311611336575b50505050509050919050565b60058181548110151561136957fe5b906000526020600020016000915090508060000154905081565b60608061138e611f89565b6005805490506001819055506001546040519080825280602002602001820160405280156113cb5781602001602082028038833980820191505090505b50915060006002819055505b60015460025410156114955760056002548154811015156113f457fe5b906000526020600020016020604051908101604052908160008201546000191660001916815250509050600a600082600001516000191660001916815260200190815260200160002060009054906101000a900460ff161561147e5780600001518260025481518110151561146557fe5b9060200190602002019060001916908160001916815250505b6002600081548092919060010191905055506113d7565b819250505090565b60608060606000600d60008673ffffffffffffffffffffffffffffffffffffffff1673ffffffffffffffffffffffffffffffffffffffff168152602001908152602001600020600001805490506001819055506001546040519080825280602002602001820160405280156115215781602001602082028038833980820191505090505b5092506001546040519080825280602002602001820160405280156115555781602001602082028038833980820191505090505b509150600d60008673ffffffffffffffffffffffffffffffffffffffff1673ffffffffffffffffffffffffffffffffffffffff1681526020019081526020016000206000018054806020026020016040519081016040528092919081815260200182805480156115e857602002820191906000526020600020905b815460001916815260200190600101908083116115d0575b5050505050925060006002819055505b600154600254101561168f578260025481518110151561161457fe5b906020019060200201519050600f6000826000191660001916815260200190815260200160002060009054906101000a900460ff161561167857808260025481518110151561165f57fe5b9060200190602002019060001916908160001916815250505b6002600081548092919060010191905055506115f8565b819350505050919050565b600081600a6000826000191660001916815260200190815260200160002060009054906101000a900460ff1615156116eb576010600084600019166000191681526020019081526020016000205491505b50919050565b6060806060806060806000600c60008960001916600019168152602001908152602001600020805490506001819055506001546040519080825280602002602001820160405280156117525781602001602082028038833980820191505090505b5093506001546040519080825280602002602001820160405280156117865781602001602082028038833980820191505090505b5092506001546040519080825280602002602001820160405280156117ba5781602001602082028038833980820191505090505b509150600c6000896000191660001916815260200190815260200160002080548060200260200160405190810160405280929190818152602001828054801561185857602002820191906000526020600020905b8160009054906101000a900473ffffffffffffffffffffffffffffffffffffffff1673ffffffffffffffffffffffffffffffffffffffff168152602001906001019080831161180e575b5050505050935060006002819055505b60015460025410156119b0578360025481518110151561188457fe5b906020019060200201519050600b6000896000191660001916815260200190815260200160002060008273ffffffffffffffffffffffffffffffffffffffff1673ffffffffffffffffffffffffffffffffffffffff16815260200190815260200160002060000154836002548151811015156118fc57fe5b9060200190602002018181525050600b6000896000191660001916815260200190815260200160002060008273ffffffffffffffffffffffffffffffffffffffff1673ffffffffffffffffffffffffffffffffffffffff16815260200190815260200160002060010160009054906101000a900460ff168260025481518110151561198357fe5b9060200190602002019060ff16908160ff1681525050600260008154809291906001019190505550611868565b838383965096509650505050509193909250565b600080600e600084600019166000191681526020019081526020016000205414156119f9576119f28261169a565b9050611a18565b600e600083600019166000191681526020019081526020016000205490505b919050565b60008083836007600083600019166000191681526020019081526020016000205481101515611c045785600a6000826000191660001916815260200190815260200160002060009054906101000a900460ff161515611c02578660096000826000191660001916815260200190815260200160002060009054906101000a900473ffffffffffffffffffffffffffffffffffffffff1673ffffffffffffffffffffffffffffffffffffffff163373ffffffffffffffffffffffffffffffffffffffff161415611c005760096000896000191660001916815260200190815260200160002060009054906101000a900473ffffffffffffffffffffffffffffffffffffffff16955060066000896000191660001916815260200190815260200160002094508573ffffffffffffffffffffffffffffffffffffffff166108fc86600001549081150290604051600060405180830381858888f1935050505015611bff577f9d1f44b07a1e13b6770919ebe68747618bac8204edf2025dc82e47a1f813551586898760000154604051808473ffffffffffffffffffffffffffffffffffffffff1673ffffffffffffffffffffffffffffffffffffffff1681526020018360001916600019168152602001828152602001935050505060405180910390a15b5b505b505b505050505050565b6000600660008360001916600019168152602001908152602001600020600201549050919050565b60608060606000600860008673ffffffffffffffffffffffffffffffffffffffff1673ffffffffffffffffffffffffffffffffffffffff16815260200190815260200160002080549050600181905550600154604051908082528060200260200182016040528015611cb55781602001602082028038833980820191505090505b509250600154604051908082528060200260200182016040528015611ce95781602001602082028038833980820191505090505b509150600860008673ffffffffffffffffffffffffffffffffffffffff1673ffffffffffffffffffffffffffffffffffffffff168152602001908152602001600020805480602002602001604051908101604052809291908181526020018280548015611d7957602002820191906000526020600020905b81546000191681526020019060010190808311611d61575b5050505050925060006002819055505b6001546002541015611e205782600254815181101515611da557fe5b906020019060200201519050600f6000826000191660001916815260200190815260200160002060009054906101000a900460ff1615611e09578082600254815181101515611df057fe5b9060200190602002019060001916908160001916815250505b600260008154809291906001019190505550611d89565b819350505050919050565b600081611e37846119c4565b1115611e4f5781611e47846119c4565b039050611e54565b600090505b92915050565b6000808284019050838110151515611e6e57fe5b8091505092915050565b6000806000841415611e8d5760009150611eac565b8284029050828482811515611e9e57fe5b04141515611ea857fe5b8091505b5092915050565b6000808284811515611ec157fe5b0490508091505092915050565b6000611ed98261169a565b90506000600e60008460001916600019168152602001908152602001600020541415611f28576003548101600e6000846000191660001916815260200190815260200160002081905550611f68565b600354600e600084600019166000191681526020019081526020016000205401600e60008460001916600019168152602001908152602001600020819055505b5050565b604080519081016040528060008152602001600060ff1681525090565b6020604051908101604052806000801916815250905600a165627a7a723058201acffe88542adfbd08577271c8cf13bde45ed63b1a48cd4ae4ae17bae3e4000e0029",
  "source": "pragma solidity ^0.4.19;\r\n\r\nimport \"./SafeMath.sol\";\r\n\r\ncontract CollectFund {\r\n\r\n    uint deadline = 1 days;\r\n    using SafeMath for uint256;\r\n    uint256 length;\r\n    uint256 i;\r\n    uint256 duePeriod = 30 days;\r\n    address admin;\r\n\r\n    /*Store proposals raised by borrowers*/\r\n    struct BorrowerProposal {\r\n        uint256 fundingGoal;                                //Funding goal in Ether\r\n        uint8 interestRate;                                 //Rate of interest offered by borrower in the proposal\r\n        uint256 fundingReached;                             //Proposal funding reached\r\n        uint8 tenureInMonths;                               //Proposal loan duration\r\n        uint256 proposalSubmissionTS;                         //If proposal goal achieved proposal start timestamp \r\n    }\r\n\r\n    struct ProposalIDs{\r\n        bytes32 proposalID;\r\n    }\r\n\r\n    ProposalIDs[] public AllProposalIDs;\r\n\r\n    /*Store lender contribution information per proposal per lender address*/\r\n    struct LenderInfo {\r\n        uint256 amount;                                     //Contributed amount\r\n        uint8 fundRatio;                                    //Store contribution ration in an unsigned integer format\r\n    }\r\n\r\n    /*Store contributed proposals per lender*/\r\n    struct LenderContributions{\r\n        bytes32[] proposalID;                               //Store contributed proposal ids\r\n    }\r\n\r\n    mapping (bytes32 => BorrowerProposal) mapProposalsWithProposalIDs;                   //map proposal information with proposal ids\r\n    mapping (bytes32 => uint256) mapProposalWithDeadline;                                //map proposal expiration with proposal ids, default 1 day\r\n    mapping (address => bytes32[]) mapBorrowerWithProposalIDs;                           //map borrower's raised porposals with his address\r\n    mapping (bytes32 => address) mapProposalWithOwner;                                   //map proposal ids with proposal owners/borrower's address\r\n    mapping (bytes32 => bool) mapProposalOpenStatusWithProposalID;                                              //map proposal ids with activity status\r\n    mapping (bytes32 => mapping(address =>LenderInfo)) mapProposalWithLenderInfo;        //map proposal ids and contributer's address with contribution - 2d\r\n    mapping (bytes32 => address[]) mapLendersWithProposal;                               //map proposal ids with contributers\r\n    mapping (address => LenderContributions) mapProposalIDsWithLenders;                 //map contributer's information with contributed proposal ids\r\n    mapping (bytes32 => uint256) mapProposalIDWithNextDueDate;                           //map next instllment due date with proposal/loan ids\r\n    mapping (bytes32 => bool) mapProposalSuccessStatusWithProposalID;\r\n    mapping (bytes32 => uint256) mapProposalWithInstallmentStartTS;\r\n\r\n\r\n    event EtherTransfer(address _from, uint256 _value);                                             \r\n    event GoalReached(address _proposalOwner, bytes32 _proposalID, uint256 _fundingGoal);            \r\n    event GetFundAfterGoalReached(address _proposalOwner, bytes32 _proposalID, uint256 _amount);\r\n    event WithdrawFundWhenGoalNotReached(address _lender, bytes32 _proposalID, uint256 _amount);\r\n\r\n    modifier checkDeadline(bytes32 _proposalID, uint256 _ts) {\r\n        if (_ts <= mapProposalWithDeadline[_proposalID])\r\n        _;\r\n    }\r\n\r\n    modifier afterDeadline(bytes32 _proposalID, uint256 _ts) {\r\n        if (_ts >= mapProposalWithDeadline[_proposalID])\r\n        _;\r\n    }\r\n\r\n    modifier checkProposalOwner(bytes32 _proposalID) {\r\n        if ( msg.sender == mapProposalWithOwner[_proposalID])\r\n        _;\r\n    }\r\n\r\n    modifier checkProposalStatus(bytes32 _proposalID) {\r\n        if ( mapProposalOpenStatusWithProposalID[_proposalID])\r\n        _;\r\n    }\r\n\r\n    modifier proposalGoalReached(bytes32 _proposalID) {\r\n        if ( !mapProposalOpenStatusWithProposalID[_proposalID])\r\n        _;\r\n    }\r\n\r\n    modifier fundingOverflow(bytes32 _proposalID, uint256 _amount) {\r\n        if (_amount <= (mapProposalsWithProposalIDs[_proposalID].fundingGoal - mapProposalsWithProposalIDs[_proposalID].fundingReached))\r\n        _;\r\n    }\r\n\r\n    modifier onlyAdmin() {\r\n        if (msg.sender == admin) {\r\n            _;\r\n        }\r\n    }\r\n\r\n    function CollectFund() {\r\n        admin = msg.sender;\r\n    }\r\n\r\n    /*Borrower proposal submission with generated proposal id, proposal funding goal, rate of interest and loan tenure */\r\n    function submitProposal(bytes32 _proposalID, uint256 _fundingGoal, uint8 _interestRate, uint8 _tenureInMonths, address _borrower, uint256 _ts) external {\r\n        mapProposalsWithProposalIDs[_proposalID] = BorrowerProposal(_fundingGoal,_interestRate,0, _tenureInMonths,_ts);\r\n        mapBorrowerWithProposalIDs[_borrower].push(_proposalID);\r\n        mapProposalWithDeadline[_proposalID] = _ts+deadline;\r\n        mapProposalWithOwner[_proposalID] = _borrower;\r\n        mapProposalOpenStatusWithProposalID[_proposalID] = true;\r\n        mapProposalSuccessStatusWithProposalID[_proposalID] = false;\r\n        AllProposalIDs.push(ProposalIDs(_proposalID)); \r\n    }\r\n\r\n    /*Lend Ethers to proposal by proposal id*/\r\n    function lendMoneyToProposal(bytes32 _proposalID, uint256 _amount, address _lender, uint256 _ts) payable fundingOverflow(_proposalID,_amount) checkDeadline(_proposalID,_ts) checkProposalStatus(_proposalID) external {\r\n        if (msg.value > 0 ) {\r\n            BorrowerProposal storage currentProposal = mapProposalsWithProposalIDs[_proposalID];\r\n            currentProposal.fundingReached = SafeMath.add(currentProposal.fundingReached,_amount);\r\n            LenderInfo memory currentLender;\r\n            currentLender.amount = _amount;\r\n            currentLender.fundRatio = uint8(SafeMath.div((SafeMath.mul(_amount, 100)),(currentProposal.fundingGoal)));\r\n            mapProposalWithLenderInfo[_proposalID][_lender] = currentLender;\r\n            mapLendersWithProposal[_proposalID].push(_lender);\r\n            mapProposalIDsWithLenders[_lender].proposalID.push(_proposalID);       \r\n            EtherTransfer(_lender,_amount);\r\n        }\r\n    }\r\n\r\n    /*Admin to close proposal after deadline and successful funding*/\r\n    function checkGoalReached(bytes32 _proposalID, uint256 _ts) onlyAdmin afterDeadline(_proposalID,_ts) external {\r\n        BorrowerProposal storage currentProposal = mapProposalsWithProposalIDs[_proposalID];\r\n        if (currentProposal.fundingReached == currentProposal.fundingGoal) {\r\n            mapProposalOpenStatusWithProposalID[_proposalID] == false;\r\n            mapProposalWithInstallmentStartTS[_proposalID] = _ts;\r\n            setNextDueDate(_proposalID);\r\n            mapProposalSuccessStatusWithProposalID[_proposalID] = true;\r\n            GoalReached(mapProposalWithOwner[_proposalID], _proposalID, currentProposal.fundingGoal);\r\n        }\r\n        else{\r\n            mapProposalOpenStatusWithProposalID[_proposalID] == false;\r\n            mapProposalSuccessStatusWithProposalID[_proposalID] == false;\r\n        }\r\n\r\n    }\r\n\r\n    /*Contract internal function to set next installment due date*/\r\n    function setNextDueDate(bytes32 _proposalID) internal {\r\n        uint256 installmentStart = getInstallmentStartTS(_proposalID);\r\n        if (mapProposalIDWithNextDueDate[_proposalID] == 0){\r\n            mapProposalIDWithNextDueDate[_proposalID] = installmentStart + duePeriod;\r\n        }\r\n        else {\r\n            mapProposalIDWithNextDueDate[_proposalID] = mapProposalIDWithNextDueDate[_proposalID] + duePeriod;\r\n        }\r\n    }\r\n\r\n    function getProposalDetailsByProposalID(bytes32 _proposalID) external view returns(uint256,uint8,uint256,uint8,uint256,bool,bool) {\r\n        return (mapProposalsWithProposalIDs[_proposalID].fundingGoal,\r\n        mapProposalsWithProposalIDs[_proposalID].interestRate,\r\n        mapProposalsWithProposalIDs[_proposalID].fundingReached,\r\n        mapProposalsWithProposalIDs[_proposalID].tenureInMonths,\r\n        mapProposalsWithProposalIDs[_proposalID].proposalSubmissionTS,\r\n        mapProposalSuccessStatusWithProposalID[_proposalID],\r\n        mapProposalOpenStatusWithProposalID[_proposalID]);\r\n    }\r\n\r\n    /*Get installment due date by proposal/loan id*/\r\n    function getProposalDueDate(bytes32 _proposalID) view returns(uint256) {\r\n        if (mapProposalIDWithNextDueDate[_proposalID] == 0){\r\n            return getInstallmentStartTS(_proposalID);\r\n        }\r\n        else {\r\n            return mapProposalIDWithNextDueDate[_proposalID];\r\n        }\r\n    }\r\n\r\n    function getProposalTenure(bytes32 _proposalID) view internal returns(uint8) {\r\n        return mapProposalsWithProposalIDs[_proposalID].tenureInMonths;\r\n    }\r\n\r\n    function getBorrowerSuccessfulProposals(address _borrower) view returns(bytes32[]) {\r\n        length = mapBorrowerWithProposalIDs[_borrower].length;\r\n        bytes32[] memory proposalIDs = new bytes32[](length);\r\n        bytes32[] memory successfulProposals = new bytes32[](length);\r\n        proposalIDs = mapBorrowerWithProposalIDs[_borrower];\r\n        for (i = 0; i < length; i++) {\r\n            bytes32 currentProposalID = proposalIDs[i];\r\n            if (mapProposalSuccessStatusWithProposalID[currentProposalID]) {\r\n                successfulProposals[i] = currentProposalID;\r\n            }\r\n        }\r\n        return (successfulProposals);\r\n    }\r\n\r\n    /*Get days left in installment due date by proposal/loan id*/\r\n    function getDaysRemainingInInstallmentDue(bytes32 _proposalID, uint256 _ts) view returns(uint256) {\r\n        if (getProposalDueDate(_proposalID) > _ts) {\r\n            return (getProposalDueDate(_proposalID) - _ts);\r\n        }\r\n        else {\r\n            return 0;\r\n        }\r\n    }\r\n\r\n    /*Get funding as borrower if proposal was successful to be triggered by proposal owner by proposal id*/\r\n    function getMoneyAsBorrowerAfterDeadline(bytes32 _proposalID, uint256 _ts) payable afterDeadline(_proposalID, _ts) proposalGoalReached(_proposalID) checkProposalOwner(_proposalID) external {\r\n        address proposalOwner = mapProposalWithOwner[_proposalID];\r\n        BorrowerProposal storage currentProposal = mapProposalsWithProposalIDs[_proposalID];\r\n        if (proposalOwner.send(currentProposal.fundingGoal)) {\r\n            GetFundAfterGoalReached(proposalOwner, _proposalID, currentProposal.fundingGoal);\r\n        }\r\n    }\r\n\r\n    /*Check funding reached by proposal id*/\r\n    function checkProposalFunding(bytes32 _proposalID) view external returns(uint256) {\r\n        return (mapProposalsWithProposalIDs[_proposalID].fundingReached);\r\n    }\r\n\r\n    /* */\r\n    function getProposalExpiration(bytes32 _proposalID) view external returns(uint256) {\r\n        return mapProposalWithDeadline[_proposalID];\r\n    }\r\n\r\n    function getProposalOwner(bytes32 _proposalID) view external returns(address) {\r\n        return mapProposalWithOwner[_proposalID];\r\n    }\r\n\r\n    function getProposalLendersWithDetails(bytes32 _proposalID) view external returns(address[],uint256[], uint8[]) {\r\n        length = mapLendersWithProposal[_proposalID].length;\r\n        address[] memory lenderAddresses = new address[](length);\r\n        uint256[] memory lenderContributions = new uint256[](length);\r\n        uint8[] memory lenderFundRatios = new uint8[](length);\r\n        lenderAddresses = mapLendersWithProposal[_proposalID];\r\n        for ( i = 0 ; i < length; i++) {\r\n            address currentLender = lenderAddresses[i];\r\n            lenderContributions[i] = mapProposalWithLenderInfo[_proposalID][currentLender].amount;\r\n            lenderFundRatios[i] = mapProposalWithLenderInfo[_proposalID][currentLender].fundRatio;\r\n        }\r\n        return (lenderAddresses,lenderContributions,lenderFundRatios);\r\n    }\r\n\r\n    function getLenderDetails(bytes32 _proposalID, address _lender) view external returns(uint256, uint8) {\r\n    return (mapProposalWithLenderInfo[_proposalID][_lender].amount, mapProposalWithLenderInfo[_proposalID][_lender].fundRatio);\r\n    }\r\n\r\n    function getBorrrowerSpecificProposals(address _borrower) view external returns(bytes32[]) {\r\n        return (mapBorrowerWithProposalIDs[_borrower]);\r\n    }\r\n\r\n    function getAllProposalsForBorrowerList() view external returns(bytes32[]) {\r\n        length = AllProposalIDs.length;\r\n        bytes32[] memory activeProposals = new bytes32[](length);\r\n        for (i = 0; i < length; i++) {\r\n            ProposalIDs memory currentProposalID;\r\n            currentProposalID = AllProposalIDs[i];\r\n            if (mapProposalOpenStatusWithProposalID[currentProposalID.proposalID]) {\r\n                activeProposals[i] = currentProposalID.proposalID;\r\n            }\r\n        }\r\n        return (activeProposals);\r\n    }\r\n\r\n    function getLenderSuccessfulProposals(address _lender) view external returns(bytes32[]) {\r\n        length = mapProposalIDsWithLenders[_lender].proposalID.length;\r\n        bytes32[] memory lenderContributedProposals = new bytes32[](length);\r\n        bytes32[] memory successfulProposals = new bytes32[](length);\r\n        lenderContributedProposals = mapProposalIDsWithLenders[_lender].proposalID;\r\n        for (i = 0; i < length; i++ ) {\r\n            bytes32 currentProposalID = lenderContributedProposals[i];\r\n            if (mapProposalSuccessStatusWithProposalID[currentProposalID]) {\r\n                successfulProposals[i] = currentProposalID;\r\n            }\r\n        }\r\n        return (successfulProposals);\r\n    }\r\n\r\n    /*Get proposal submission timestamp by proposal id */\r\n    function getInstallmentStartTS(bytes32 _proposalID) view proposalGoalReached(_proposalID) returns(uint256) {\r\n        return (mapProposalWithInstallmentStartTS[_proposalID]);\r\n    }\r\n\r\n}",
  "sourcePath": "D:\\work\\P2P-Lending\\WithSafeMath\\contracts\\CollectFund.sol",
  "compiler": {
    "name": "solc",
    "version": "0.4.23+commit.124ca40d.Emscripten.clang"
  },
  "schemaVersion": "2.0.0",
  "updatedAt": "2018-05-15T04:05:31.255Z"
}