{
  "contractName": "PayInstallments",
  "abi": [
    {
      "constant": true,
      "inputs": [
        {
          "name": "_proposalID",
          "type": "bytes32"
        },
        {
          "name": "_lender",
          "type": "address"
        }
      ],
      "name": "getLenderDetails",
      "outputs": [
        {
          "name": "",
          "type": "uint256"
        },
        {
          "name": "",
          "type": "uint8"
        }
      ],
      "payable": false,
      "stateMutability": "view",
      "type": "function"
    },
    {
      "constant": false,
      "inputs": [
        {
          "name": "_proposalID",
          "type": "bytes32"
        }
      ],
      "name": "getMoneyAsBorrowerAfterDeadline",
      "outputs": [],
      "payable": true,
      "stateMutability": "payable",
      "type": "function"
    },
    {
      "constant": true,
      "inputs": [],
      "name": "getBorrrowerSpecificProposals",
      "outputs": [
        {
          "name": "",
          "type": "bytes32[]"
        }
      ],
      "payable": false,
      "stateMutability": "view",
      "type": "function"
    },
    {
      "constant": true,
      "inputs": [
        {
          "name": "_proposalID",
          "type": "bytes32"
        }
      ],
      "name": "getDaysRemainingInInstallmentDue",
      "outputs": [
        {
          "name": "",
          "type": "uint256"
        }
      ],
      "payable": false,
      "stateMutability": "view",
      "type": "function"
    },
    {
      "constant": true,
      "inputs": [
        {
          "name": "_proposalID",
          "type": "bytes32"
        }
      ],
      "name": "getProposalExpiration",
      "outputs": [
        {
          "name": "",
          "type": "uint256"
        }
      ],
      "payable": false,
      "stateMutability": "view",
      "type": "function"
    },
    {
      "constant": true,
      "inputs": [
        {
          "name": "_proposalID",
          "type": "bytes32"
        }
      ],
      "name": "getProposalDetailsByProposalID",
      "outputs": [
        {
          "name": "",
          "type": "uint256"
        },
        {
          "name": "",
          "type": "uint8"
        },
        {
          "name": "",
          "type": "uint256"
        },
        {
          "name": "",
          "type": "uint8"
        },
        {
          "name": "",
          "type": "uint256"
        },
        {
          "name": "",
          "type": "bool"
        },
        {
          "name": "",
          "type": "bool"
        }
      ],
      "payable": false,
      "stateMutability": "view",
      "type": "function"
    },
    {
      "constant": true,
      "inputs": [
        {
          "name": "",
          "type": "uint256"
        }
      ],
      "name": "AllProposalIDs",
      "outputs": [
        {
          "name": "proposalID",
          "type": "bytes32"
        }
      ],
      "payable": false,
      "stateMutability": "view",
      "type": "function"
    },
    {
      "constant": true,
      "inputs": [],
      "name": "getAllProposalsForBorrowerList",
      "outputs": [
        {
          "name": "",
          "type": "bytes32[]"
        }
      ],
      "payable": false,
      "stateMutability": "view",
      "type": "function"
    },
    {
      "constant": true,
      "inputs": [
        {
          "name": "_proposalID",
          "type": "bytes32"
        }
      ],
      "name": "getInstallmentStartTS",
      "outputs": [
        {
          "name": "",
          "type": "uint256"
        }
      ],
      "payable": false,
      "stateMutability": "view",
      "type": "function"
    },
    {
      "constant": true,
      "inputs": [
        {
          "name": "_proposalID",
          "type": "bytes32"
        }
      ],
      "name": "getProposalLendersWithDetails",
      "outputs": [
        {
          "name": "",
          "type": "address[]"
        },
        {
          "name": "",
          "type": "uint256[]"
        },
        {
          "name": "",
          "type": "uint8[]"
        }
      ],
      "payable": false,
      "stateMutability": "view",
      "type": "function"
    },
    {
      "constant": true,
      "inputs": [
        {
          "name": "_proposalID",
          "type": "bytes32"
        }
      ],
      "name": "getProposalDueDate",
      "outputs": [
        {
          "name": "",
          "type": "uint256"
        }
      ],
      "payable": false,
      "stateMutability": "view",
      "type": "function"
    },
    {
      "constant": true,
      "inputs": [],
      "name": "getLenderSuccessfulProposals",
      "outputs": [
        {
          "name": "",
          "type": "bytes32[]"
        }
      ],
      "payable": false,
      "stateMutability": "view",
      "type": "function"
    },
    {
      "constant": true,
      "inputs": [
        {
          "name": "_proposalID",
          "type": "bytes32"
        }
      ],
      "name": "checkProposalFunding",
      "outputs": [
        {
          "name": "",
          "type": "uint256"
        }
      ],
      "payable": false,
      "stateMutability": "view",
      "type": "function"
    },
    {
      "constant": false,
      "inputs": [
        {
          "name": "_proposalID",
          "type": "bytes32"
        }
      ],
      "name": "checkGoalReached",
      "outputs": [],
      "payable": false,
      "stateMutability": "nonpayable",
      "type": "function"
    },
    {
      "constant": false,
      "inputs": [
        {
          "name": "_proposalID",
          "type": "bytes32"
        }
      ],
      "name": "lendMoneyToProposal",
      "outputs": [],
      "payable": true,
      "stateMutability": "payable",
      "type": "function"
    },
    {
      "constant": false,
      "inputs": [
        {
          "name": "_proposalID",
          "type": "bytes32"
        },
        {
          "name": "_fundingGoal",
          "type": "uint256"
        },
        {
          "name": "_interestRate",
          "type": "uint8"
        },
        {
          "name": "_tenureInMonths",
          "type": "uint8"
        }
      ],
      "name": "submitProposal",
      "outputs": [],
      "payable": false,
      "stateMutability": "nonpayable",
      "type": "function"
    },
    {
      "anonymous": false,
      "inputs": [
        {
          "indexed": false,
          "name": "_proposalID",
          "type": "bytes32"
        },
        {
          "indexed": false,
          "name": "_amount",
          "type": "uint256"
        },
        {
          "indexed": false,
          "name": "_from",
          "type": "address"
        },
        {
          "indexed": false,
          "name": "_to",
          "type": "address"
        }
      ],
      "name": "InstallmentTransfer",
      "type": "event"
    },
    {
      "anonymous": false,
      "inputs": [
        {
          "indexed": false,
          "name": "_from",
          "type": "address"
        },
        {
          "indexed": false,
          "name": "_value",
          "type": "uint256"
        }
      ],
      "name": "EtherTransfer",
      "type": "event"
    },
    {
      "anonymous": false,
      "inputs": [
        {
          "indexed": false,
          "name": "_proposalOwner",
          "type": "address"
        },
        {
          "indexed": false,
          "name": "_proposalID",
          "type": "bytes32"
        },
        {
          "indexed": false,
          "name": "_fundingGoal",
          "type": "uint256"
        }
      ],
      "name": "GoalReached",
      "type": "event"
    },
    {
      "anonymous": false,
      "inputs": [
        {
          "indexed": false,
          "name": "_proposalOwner",
          "type": "address"
        },
        {
          "indexed": false,
          "name": "_proposalID",
          "type": "bytes32"
        },
        {
          "indexed": false,
          "name": "_amount",
          "type": "uint256"
        }
      ],
      "name": "GetFundAfterGoalReached",
      "type": "event"
    },
    {
      "anonymous": false,
      "inputs": [
        {
          "indexed": false,
          "name": "_lender",
          "type": "address"
        },
        {
          "indexed": false,
          "name": "_proposalID",
          "type": "bytes32"
        },
        {
          "indexed": false,
          "name": "_amount",
          "type": "uint256"
        }
      ],
      "name": "WithdrawFundWhenGoalNotReached",
      "type": "event"
    },
    {
      "constant": false,
      "inputs": [
        {
          "name": "_amount",
          "type": "uint256"
        }
      ],
      "name": "setLateInstallmentFee",
      "outputs": [],
      "payable": false,
      "stateMutability": "nonpayable",
      "type": "function"
    },
    {
      "constant": false,
      "inputs": [
        {
          "name": "_proposalID",
          "type": "bytes32"
        }
      ],
      "name": "calculateInstallment",
      "outputs": [
        {
          "name": "_installmentAmount",
          "type": "uint256"
        }
      ],
      "payable": false,
      "stateMutability": "nonpayable",
      "type": "function"
    },
    {
      "constant": true,
      "inputs": [
        {
          "name": "_proposalID",
          "type": "bytes32"
        }
      ],
      "name": "getDueInstallment",
      "outputs": [
        {
          "name": "_installment",
          "type": "uint256"
        }
      ],
      "payable": false,
      "stateMutability": "view",
      "type": "function"
    },
    {
      "constant": false,
      "inputs": [
        {
          "name": "_proposalID",
          "type": "bytes32"
        }
      ],
      "name": "payInstallment",
      "outputs": [],
      "payable": true,
      "stateMutability": "payable",
      "type": "function"
    }
  ],
  "bytecode": "0x60806040526201518060005562278d00600355600060115533600460006101000a81548173ffffffffffffffffffffffffffffffffffffffff021916908373ffffffffffffffffffffffffffffffffffffffff160217905550612206806100676000396000f300608060405260043610610112576000357c0100000000000000000000000000000000000000000000000000000000900463ffffffff1680630973f70b146101175780630a629bdd146101895780630e37e926146101ad5780631e606c1b146101d1578063371943411461023d5780633e1d8c65146102825780633f48b433146102c7578063414c1efc1461030c5780634466f1b2146103395780635a634294146103bc57806387a965f2146104015780639276c8c41461044a578063994a7bd6146104b65780639b91e76b146104fb5780639f4192df14610611578063a5ba044514610656578063d4c1695d146106c2578063e1947c6a14610707578063e7f6549a14610738578063eaaa3e071461075c575b600080fd5b34801561012357600080fd5b506101666004803603810190808035600019169060200190929190803573ffffffffffffffffffffffffffffffffffffffff1690602001909291905050506107b1565b604051808381526020018260ff1660ff1681526020019250505060405180910390f35b6101ab6004803603810190808035600019169060200190929190505050610884565b005b6101cf6004803603810190808035600019169060200190929190505050610bc0565b005b3480156101dd57600080fd5b506101e6610dac565b6040518080602001828103825283818151815260200191508051906020019060200280838360005b8381101561022957808201518184015260208101905061020e565b505050509050019250505060405180910390f35b34801561024957600080fd5b5061026c6004803603810190808035600019169060200190929190505050610e45565b6040518082815260200191505060405180910390f35b34801561028e57600080fd5b506102b16004803603810190808035600019169060200190929190505050610ea8565b6040518082815260200191505060405180910390f35b3480156102d357600080fd5b506102f66004803603810190808035600019169060200190929190505050610ed6565b6040518082815260200191505060405180910390f35b34801561031857600080fd5b5061033760048036038101908080359060200190929190505050610efb565b005b34801561034557600080fd5b506103686004803603810190808035600019169060200190929190505050610f5c565b604051808881526020018760ff1660ff1681526020018681526020018560ff1660ff168152602001848152602001831515151581526020018215151515815260200197505050505050505060405180910390f35b3480156103c857600080fd5b506103eb6004803603810190808035600019169060200190929190505050611087565b6040518082815260200191505060405180910390f35b34801561040d57600080fd5b5061042c6004803603810190808035906020019092919050505061117c565b60405180826000191660001916815260200191505060405180910390f35b34801561045657600080fd5b5061045f6111a5565b6040518080602001828103825283818151815260200191508051906020019060200280838360005b838110156104a2578082015181840152602081019050610487565b505050509050019250505060405180910390f35b3480156104c257600080fd5b506104e560048036038101908080356000191690602001909291905050506112e7565b6040518082815260200191505060405180910390f35b34801561050757600080fd5b5061052a600480360381019080803560001916906020019092919050505061133e565b60405180806020018060200180602001848103845287818151815260200191508051906020019060200280838360005b8381101561057557808201518184015260208101905061055a565b50505050905001848103835286818151815260200191508051906020019060200280838360005b838110156105b757808201518184015260208101905061059c565b50505050905001848103825285818151815260200191508051906020019060200280838360005b838110156105f95780820151818401526020810190506105de565b50505050905001965050505050505060405180910390f35b34801561061d57600080fd5b506106406004803603810190808035600019169060200190929190505050611611565b6040518082815260200191505060405180910390f35b34801561066257600080fd5b5061066b61166a565b6040518080602001828103825283818151815260200191508051906020019060200280838360005b838110156106ae578082015181840152602081019050610693565b505050509050019250505060405180910390f35b3480156106ce57600080fd5b506106f1600480360381019080803560001916906020019092919050505061188b565b6040518082815260200191505060405180910390f35b34801561071357600080fd5b5061073660048036038101908080356000191690602001909291905050506118b3565b005b61075a6004803603810190808035600019169060200190929190505050611b05565b005b34801561076857600080fd5b506107af600480360381019080803560001916906020019092919080359060200190929190803560ff169060200190929190803560ff169060200190929190505050611e0b565b005b600080600b6000856000191660001916815260200190815260200160002060008473ffffffffffffffffffffffffffffffffffffffff1673ffffffffffffffffffffffffffffffffffffffff16815260200190815260200160002060000154600b6000866000191660001916815260200190815260200160002060008573ffffffffffffffffffffffffffffffffffffffff1673ffffffffffffffffffffffffffffffffffffffff16815260200190815260200160002060010160009054906101000a900460ff16915091509250929050565b6000806000808460096000826000191660001916815260200190815260200160002060009054906101000a900473ffffffffffffffffffffffffffffffffffffffff1673ffffffffffffffffffffffffffffffffffffffff163373ffffffffffffffffffffffffffffffffffffffff161415610bb85785600060136000836000191660001916815260200190815260200160002060010160009054906101000a900460ff1660ff161115610bb657601360008860001916600019168152602001908152602001600020955061095887610e45565b341415610bb55760006011819055505b600c60008860001916600019168152602001908152602001600020805490506011541015610bb457600c600088600019166000191681526020019081526020016000206011548154811015156109ba57fe5b9060005260206000200160009054906101000a900473ffffffffffffffffffffffffffffffffffffffff169350600b6000886000191660001916815260200190815260200160002060008573ffffffffffffffffffffffffffffffffffffffff1673ffffffffffffffffffffffffffffffffffffffff1681526020019081526020016000209450610a6d610a6687600001548760010160009054906101000a900460ff1660ff16612063565b606461209e565b92508373ffffffffffffffffffffffffffffffffffffffff166108fc849081150290604051600060405180830381858888f1935050505015610b9d577f55f661f56c0b88b15fd6da37b428444c7a4b36feff678d8eba1d3daa0dfc93528784600960008b6000191660001916815260200190815260200160002060009054906101000a900473ffffffffffffffffffffffffffffffffffffffff16876040518085600019166000191681526020018481526020018373ffffffffffffffffffffffffffffffffffffffff1673ffffffffffffffffffffffffffffffffffffffff1681526020018273ffffffffffffffffffffffffffffffffffffffff1673ffffffffffffffffffffffffffffffffffffffff16815260200194505050505060405180910390a1610b9c876120b9565b5b601160008154809291906001019190505550610968565b5b5b505b505050505050565b600080826007600082600019166000191681526020019081526020016000205442101515610da65783600a6000826000191660001916815260200190815260200160002060009054906101000a900460ff161515610da4578460096000826000191660001916815260200190815260200160002060009054906101000a900473ffffffffffffffffffffffffffffffffffffffff1673ffffffffffffffffffffffffffffffffffffffff163373ffffffffffffffffffffffffffffffffffffffff161415610da25760096000876000191660001916815260200190815260200160002060009054906101000a900473ffffffffffffffffffffffffffffffffffffffff16945060066000876000191660001916815260200190815260200160002093508473ffffffffffffffffffffffffffffffffffffffff166108fc85600001549081150290604051600060405180830381858888f1935050505015610da1577f9d1f44b07a1e13b6770919ebe68747618bac8204edf2025dc82e47a1f813551585878660000154604051808473ffffffffffffffffffffffffffffffffffffffff1673ffffffffffffffffffffffffffffffffffffffff1681526020018360001916600019168152602001828152602001935050505060405180910390a15b5b505b505b50505050565b6060600860003373ffffffffffffffffffffffffffffffffffffffff1673ffffffffffffffffffffffffffffffffffffffff168152602001908152602001600020805480602002602001604051908101604052809291908181526020018280548015610e3b57602002820191906000526020600020905b81546000191681526020019060010190808311610e23575b5050505050905090565b600080610e5183610ea8565b1115610e7d57601360008360001916600019168152602001908152602001600020600001549050610ea3565b601254601360008460001916600019168152602001908152602001600020600001540190505b919050565b600042610eb483611611565b1115610ecc5742610ec483611611565b039050610ed1565b600090505b919050565b6000600760008360001916600019168152602001908152602001600020549050919050565b600460009054906101000a900473ffffffffffffffffffffffffffffffffffffffff1673ffffffffffffffffffffffffffffffffffffffff163373ffffffffffffffffffffffffffffffffffffffff161415610f5957806012819055505b50565b600080600080600080600060066000896000191660001916815260200190815260200160002060000154600660008a6000191660001916815260200190815260200160002060010160009054906101000a900460ff16600660008b6000191660001916815260200190815260200160002060020154600660008c6000191660001916815260200190815260200160002060030160009054906101000a900460ff16600660008d6000191660001916815260200190815260200160002060040154600f60008e6000191660001916815260200190815260200160002060009054906101000a900460ff16600a60008f6000191660001916815260200190815260200160002060009054906101000a900460ff169650965096509650965096509650919395979092949650565b600080600060066000856000191660001916815260200190815260200160002091506110e082600001548360010160009054906101000a900460ff1660ff168460030160009054906101000a900460ff1660ff16612157565b905060408051908101604052808281526020018360030160009054906101000a900460ff1660ff168152506013600086600019166000191681526020019081526020016000206000820151816000015560208201518160010160006101000a81548160ff021916908360ff1602179055509050506013600085600019166000191681526020019081526020016000206000015492505050919050565b60058181548110151561118b57fe5b906000526020600020016000915090508060000154905081565b606060006111b16121a6565b60058054905060018190555060006002819055505b600154600254101561128c5760056002548154811015156111e357fe5b906000526020600020016020604051908101604052908160008201546000191660001916815250509050600a600082600001516000191660001916815260200190815260200160002060009054906101000a900460ff16156112755781816000015190806001815401808255809150509060018203906000526020600020016000909192909190915090600019169055505b6002600081548092919060010191905055506111c6565b818054806020026020016040519081016040528092919081815260200182805480156112db57602002820191906000526020600020905b815460001916815260200190600101908083116112c3575b50505050509250505090565b600081600a6000826000191660001916815260200190815260200160002060009054906101000a900460ff161515611338576010600084600019166000191681526020019081526020016000205491505b50919050565b6060806060806060806000600c600089600019166000191681526020019081526020016000208054905060018190555060015460405190808252806020026020018201604052801561139f5781602001602082028038833980820191505090505b5093506001546040519080825280602002602001820160405280156113d35781602001602082028038833980820191505090505b5092506001546040519080825280602002602001820160405280156114075781602001602082028038833980820191505090505b509150600c600089600019166000191681526020019081526020016000208054806020026020016040519081016040528092919081815260200182805480156114a557602002820191906000526020600020905b8160009054906101000a900473ffffffffffffffffffffffffffffffffffffffff1673ffffffffffffffffffffffffffffffffffffffff168152602001906001019080831161145b575b5050505050935060006002819055505b60015460025410156115fd57836002548151811015156114d157fe5b906020019060200201519050600b6000896000191660001916815260200190815260200160002060008273ffffffffffffffffffffffffffffffffffffffff1673ffffffffffffffffffffffffffffffffffffffff168152602001908152602001600020600001548360025481518110151561154957fe5b9060200190602002018181525050600b6000896000191660001916815260200190815260200160002060008273ffffffffffffffffffffffffffffffffffffffff1673ffffffffffffffffffffffffffffffffffffffff16815260200190815260200160002060010160009054906101000a900460ff16826002548151811015156115d057fe5b9060200190602002019060ff16908160ff16815250506002600081548092919060010191905055506114b5565b838383965096509650505050509193909250565b600080600e600084600019166000191681526020019081526020016000205414156116465761163f826112e7565b9050611665565b600e600083600019166000191681526020019081526020016000205490505b919050565b606080600080600d60003373ffffffffffffffffffffffffffffffffffffffff1673ffffffffffffffffffffffffffffffffffffffff168152602001908152602001600020600001805490506001819055506001546040519080825280602002602001820160405280156116ed5781602001602082028038833980820191505090505b509250600d60003373ffffffffffffffffffffffffffffffffffffffff1673ffffffffffffffffffffffffffffffffffffffff16815260200190815260200160002060000180548060200260200160405190810160405280929190818152602001828054801561178057602002820191906000526020600020905b81546000191681526020019060010190808311611768575b5050505050925060006002819055505b600154600254101561182f57826002548151811015156117ac57fe5b906020019060200201519050600f6000826000191660001916815260200190815260200160002060009054906101000a900460ff161561181857818190806001815401808255809150509060018203906000526020600020016000909192909190915090600019169055505b600260008154809291906001019190505550611790565b8180548060200260200160405190810160405280929190818152602001828054801561187e57602002820191906000526020600020905b81546000191681526020019060010190808311611866575b5050505050935050505090565b6000600660008360001916600019168152602001908152602001600020600201549050919050565b6000600460009054906101000a900473ffffffffffffffffffffffffffffffffffffffff1673ffffffffffffffffffffffffffffffffffffffff163373ffffffffffffffffffffffffffffffffffffffff161415611b0157816007600082600019166000191681526020019081526020016000205442101515611aff576006600084600019166000191681526020019081526020016000209150816000015482600201541415611aa55760001515600a6000856000191660001916815260200190815260200160002060009054906101000a9050505042601060008560001916600019168152602001908152602001600020819055506119b2836120b9565b6001600f6000856000191660001916815260200190815260200160002060006101000a81548160ff0219169083151502179055507fca7dda9f30e83b1017ab663d6725df4277f3c589212935d66d45cd9853076ed360096000856000191660001916815260200190815260200160002060009054906101000a900473ffffffffffffffffffffffffffffffffffffffff16848460000154604051808473ffffffffffffffffffffffffffffffffffffffff1673ffffffffffffffffffffffffffffffffffffffff1681526020018360001916600019168152602001828152602001935050505060405180910390a1611afe565b60001515600a6000856000191660001916815260200190815260200160002060009054906101000a9050505060001515600f6000856000191660001916815260200190815260200160002060009054906101000a905050505b5b505b5050565b6000611b0f6121bd565b823460066000836000191660001916815260200190815260200160002060020154600660008460001916600019168152602001908152602001600020600001540381111515611e0457846007600082600019166000191681526020019081526020016000205442111515611e025785600a6000826000191660001916815260200190815260200160002060009054906101000a900460ff1615611e00576000341115611dff576006600088600019166000191681526020019081526020016000209550611be0866002015434612188565b866002018190555034856000018181525050611c0a611c00346064612063565b876000015461209e565b856020019060ff16908160ff168152505084600b6000896000191660001916815260200190815260200160002060003373ffffffffffffffffffffffffffffffffffffffff1673ffffffffffffffffffffffffffffffffffffffff1681526020019081526020016000206000820151816000015560208201518160010160006101000a81548160ff021916908360ff160217905550905050600c600088600019166000191681526020019081526020016000203390806001815401808255809150509060018203906000526020600020016000909192909190916101000a81548173ffffffffffffffffffffffffffffffffffffffff021916908373ffffffffffffffffffffffffffffffffffffffff16021790555050600d60003373ffffffffffffffffffffffffffffffffffffffff1673ffffffffffffffffffffffffffffffffffffffff1681526020019081526020016000206000018790806001815401808255809150509060018203906000526020600020016000909192909190915090600019169055507f1853ca9dc0208799379313b2b43364e45db022f073c72648fbc206dc0bacbcdc3334604051808373ffffffffffffffffffffffffffffffffffffffff1673ffffffffffffffffffffffffffffffffffffffff1681526020018281526020019250505060405180910390a15b5b505b505b5050505050565b60a0604051908101604052808481526020018360ff168152602001600081526020018260ff168152602001428152506006600086600019166000191681526020019081526020016000206000820151816000015560208201518160010160006101000a81548160ff021916908360ff1602179055506040820151816002015560608201518160030160006101000a81548160ff021916908360ff16021790555060808201518160040155905050600860003373ffffffffffffffffffffffffffffffffffffffff1673ffffffffffffffffffffffffffffffffffffffff1681526020019081526020016000208490806001815401808255809150509060018203906000526020600020016000909192909190915090600019169055506000544201600760008660001916600019168152602001908152602001600020819055503360096000866000191660001916815260200190815260200160002060006101000a81548173ffffffffffffffffffffffffffffffffffffffff021916908373ffffffffffffffffffffffffffffffffffffffff1602179055506001600a6000866000191660001916815260200190815260200160002060006101000a81548160ff0219169083151502179055506000600f6000866000191660001916815260200190815260200160002060006101000a81548160ff021916908315150217905550600560206040519081016040528086600019168152509080600181540180825580915050906001820390600052602060002001600090919290919091506000820151816000019060001916905550505050505050565b60008060008414156120785760009150612097565b828402905082848281151561208957fe5b0414151561209357fe5b8091505b5092915050565b60008082848115156120ac57fe5b0490508091505092915050565b60006120c4826112e7565b90506000600e60008460001916600019168152602001908152602001600020541415612113576003548101600e6000846000191660001916815260200190815260200160002081905550612153565b600354600e600084600019166000191681526020019081526020016000205401600e60008460001916600019168152602001908152602001600020819055505b5050565b600061217f6121798561217461216d8888612063565b606461209e565b612188565b8361209e565b90509392505050565b600080828401905083811015151561219c57fe5b8091505092915050565b602060405190810160405280600080191681525090565b604080519081016040528060008152602001600060ff16815250905600a165627a7a723058201f87f97c4367c0c7234eb8e02aa9f191fd1b48d4894d768b6ab380f946c466110029",
  "source": "pragma solidity ^0.4.19;\r\n\r\nimport \"./SafeMath.sol\";\r\nimport \"./EMICalculator.sol\";\r\nimport \"./CollectFund.sol\";\r\n\r\ncontract PayInstallments is CollectFund {\r\n    \r\n    uint256 i = 0;\r\n    uint256 lateInstallmentFee;\r\n\r\n    struct Installment {\r\n        uint256 installmentAmount;\r\n        uint8 remainingTenure;\r\n    }\r\n\r\n    mapping (bytes32 => Installment ) mapInstallmentsWithProposal;\r\n\r\n    event InstallmentTransfer(bytes32 _proposalID, uint256 _amount, address _from, address _to );\r\n\r\n    modifier checkInstallmentTenure(bytes32 _proposalID) {\r\n        if ( mapInstallmentsWithProposal[_proposalID].remainingTenure > 0) \r\n        _;\r\n    }   \r\n\r\n    function setLateInstallmentFee (uint256 _amount) onlyAdmin {\r\n        lateInstallmentFee = _amount;\r\n    }\r\n    \r\n    function calculateInstallment (bytes32 _proposalID) returns (uint256 _installmentAmount) {\r\n        BorrowerProposal storage currentProposal = mapProposalsWithProposalIDs[_proposalID];\r\n        uint256 installmentAmount = EMICalculator.calculateInstallment(currentProposal.fundingGoal, currentProposal.interestRate, currentProposal.tenureInMonths);\r\n        mapInstallmentsWithProposal[_proposalID] = Installment(installmentAmount, currentProposal.tenureInMonths);\r\n        return mapInstallmentsWithProposal[_proposalID].installmentAmount;\r\n    }\r\n\r\n    function getDueInstallment(bytes32 _proposalID) view returns (uint256 _installment) { \r\n        if (getDaysRemainingInInstallmentDue(_proposalID) > 0) {\r\n            return mapInstallmentsWithProposal[_proposalID].installmentAmount;\r\n        }\r\n        else {\r\n            return (mapInstallmentsWithProposal[_proposalID].installmentAmount + lateInstallmentFee);\r\n        }\r\n    }\r\n\r\n    function payInstallment(bytes32 _proposalID) payable checkProposalOwner(_proposalID) checkInstallmentTenure(_proposalID) {\r\n        Installment storage currentInstallment = mapInstallmentsWithProposal[_proposalID];\r\n        LenderInfo storage currentLenderInfo;\r\n        if (msg.value == getDueInstallment(_proposalID)){\r\n            for (i = 0; i < mapLendersWithProposal[_proposalID].length ; i++) {\r\n            address currentLender = mapLendersWithProposal[_proposalID][i];\r\n            currentLenderInfo = mapProposalWithLenderInfo[_proposalID][currentLender];\r\n            uint256 amount = SafeMath.div((SafeMath.mul(currentInstallment.installmentAmount, currentLenderInfo.fundRatio)), 100);\r\n            if (currentLender.send(amount)) {\r\n                InstallmentTransfer(_proposalID, amount, mapProposalWithOwner[_proposalID], currentLender);\r\n                setNextDueDate(_proposalID);\r\n               }\r\n            }\r\n        }\r\n    }\r\n\r\n}",
  "sourcePath": "D:\\work\\P2P-Lending\\WithSafeMath\\contracts\\PayInstallments.sol",
  "compiler": {
    "name": "solc",
    "version": "0.4.23+commit.124ca40d.Emscripten.clang"
  },
  "schemaVersion": "2.0.0",
  "updatedAt": "2018-05-11T06:17:11.526Z"
}