{
  "contractName": "PayInstallments",
  "abi": [
    {
      "constant": false,
      "inputs": [
        {
          "name": "_proposalID",
          "type": "bytes32"
        },
        {
          "name": "_fundingGoal",
          "type": "uint256"
        },
        {
          "name": "_interestRate",
          "type": "uint8"
        },
        {
          "name": "_tenureInMonths",
          "type": "uint8"
        },
        {
          "name": "_borrower",
          "type": "address"
        },
        {
          "name": "_ts",
          "type": "uint256"
        }
      ],
      "name": "submitProposal",
      "outputs": [],
      "payable": false,
      "stateMutability": "nonpayable",
      "type": "function"
    },
    {
      "constant": true,
      "inputs": [
        {
          "name": "_proposalID",
          "type": "bytes32"
        },
        {
          "name": "_lender",
          "type": "address"
        }
      ],
      "name": "getLenderDetails",
      "outputs": [
        {
          "name": "",
          "type": "uint256"
        },
        {
          "name": "",
          "type": "uint8"
        }
      ],
      "payable": false,
      "stateMutability": "view",
      "type": "function"
    },
    {
      "constant": false,
      "inputs": [
        {
          "name": "_proposalID",
          "type": "bytes32"
        },
        {
          "name": "_amount",
          "type": "uint256"
        },
        {
          "name": "_lender",
          "type": "address"
        },
        {
          "name": "_ts",
          "type": "uint256"
        }
      ],
      "name": "lendMoneyToProposal",
      "outputs": [],
      "payable": true,
      "stateMutability": "payable",
      "type": "function"
    },
    {
      "constant": true,
      "inputs": [
        {
          "name": "_proposalID",
          "type": "bytes32"
        }
      ],
      "name": "getProposalExpiration",
      "outputs": [
        {
          "name": "",
          "type": "uint256"
        }
      ],
      "payable": false,
      "stateMutability": "view",
      "type": "function"
    },
    {
      "constant": true,
      "inputs": [
        {
          "name": "_proposalID",
          "type": "bytes32"
        }
      ],
      "name": "getProposalDetailsByProposalID",
      "outputs": [
        {
          "name": "",
          "type": "uint256"
        },
        {
          "name": "",
          "type": "uint8"
        },
        {
          "name": "",
          "type": "uint256"
        },
        {
          "name": "",
          "type": "uint8"
        },
        {
          "name": "",
          "type": "uint256"
        },
        {
          "name": "",
          "type": "bool"
        },
        {
          "name": "",
          "type": "bool"
        }
      ],
      "payable": false,
      "stateMutability": "view",
      "type": "function"
    },
    {
      "constant": true,
      "inputs": [
        {
          "name": "_proposalID",
          "type": "bytes32"
        }
      ],
      "name": "getProposalOwner",
      "outputs": [
        {
          "name": "",
          "type": "address"
        }
      ],
      "payable": false,
      "stateMutability": "view",
      "type": "function"
    },
    {
      "constant": false,
      "inputs": [
        {
          "name": "_proposalID",
          "type": "bytes32"
        },
        {
          "name": "_ts",
          "type": "uint256"
        }
      ],
      "name": "checkGoalReached",
      "outputs": [],
      "payable": false,
      "stateMutability": "nonpayable",
      "type": "function"
    },
    {
      "constant": true,
      "inputs": [
        {
          "name": "_borrower",
          "type": "address"
        }
      ],
      "name": "getBorrrowerSpecificProposals",
      "outputs": [
        {
          "name": "",
          "type": "bytes32[]"
        }
      ],
      "payable": false,
      "stateMutability": "view",
      "type": "function"
    },
    {
      "constant": true,
      "inputs": [
        {
          "name": "",
          "type": "uint256"
        }
      ],
      "name": "AllProposalIDs",
      "outputs": [
        {
          "name": "proposalID",
          "type": "bytes32"
        }
      ],
      "payable": false,
      "stateMutability": "view",
      "type": "function"
    },
    {
      "constant": true,
      "inputs": [],
      "name": "getAllProposalsForBorrowerList",
      "outputs": [
        {
          "name": "",
          "type": "bytes32[]"
        }
      ],
      "payable": false,
      "stateMutability": "view",
      "type": "function"
    },
    {
      "constant": true,
      "inputs": [
        {
          "name": "_lender",
          "type": "address"
        }
      ],
      "name": "getLenderSuccessfulProposals",
      "outputs": [
        {
          "name": "",
          "type": "bytes32[]"
        }
      ],
      "payable": false,
      "stateMutability": "view",
      "type": "function"
    },
    {
      "constant": true,
      "inputs": [
        {
          "name": "_proposalID",
          "type": "bytes32"
        }
      ],
      "name": "getInstallmentStartTS",
      "outputs": [
        {
          "name": "",
          "type": "uint256"
        }
      ],
      "payable": false,
      "stateMutability": "view",
      "type": "function"
    },
    {
      "constant": true,
      "inputs": [
        {
          "name": "_proposalID",
          "type": "bytes32"
        }
      ],
      "name": "getProposalLendersWithDetails",
      "outputs": [
        {
          "name": "",
          "type": "address[]"
        },
        {
          "name": "",
          "type": "uint256[]"
        },
        {
          "name": "",
          "type": "uint8[]"
        }
      ],
      "payable": false,
      "stateMutability": "view",
      "type": "function"
    },
    {
      "constant": true,
      "inputs": [
        {
          "name": "_proposalID",
          "type": "bytes32"
        }
      ],
      "name": "getProposalDueDate",
      "outputs": [
        {
          "name": "",
          "type": "uint256"
        }
      ],
      "payable": false,
      "stateMutability": "view",
      "type": "function"
    },
    {
      "constant": false,
      "inputs": [
        {
          "name": "_proposalID",
          "type": "bytes32"
        },
        {
          "name": "_ts",
          "type": "uint256"
        }
      ],
      "name": "getMoneyAsBorrowerAfterDeadline",
      "outputs": [],
      "payable": true,
      "stateMutability": "payable",
      "type": "function"
    },
    {
      "constant": true,
      "inputs": [
        {
          "name": "_proposalID",
          "type": "bytes32"
        }
      ],
      "name": "checkProposalFunding",
      "outputs": [
        {
          "name": "",
          "type": "uint256"
        }
      ],
      "payable": false,
      "stateMutability": "view",
      "type": "function"
    },
    {
      "constant": true,
      "inputs": [
        {
          "name": "_borrower",
          "type": "address"
        }
      ],
      "name": "getBorrowerSuccessfulProposals",
      "outputs": [
        {
          "name": "",
          "type": "bytes32[]"
        }
      ],
      "payable": false,
      "stateMutability": "view",
      "type": "function"
    },
    {
      "constant": true,
      "inputs": [
        {
          "name": "_proposalID",
          "type": "bytes32"
        },
        {
          "name": "_ts",
          "type": "uint256"
        }
      ],
      "name": "getDaysRemainingInInstallmentDue",
      "outputs": [
        {
          "name": "",
          "type": "uint256"
        }
      ],
      "payable": false,
      "stateMutability": "view",
      "type": "function"
    },
    {
      "anonymous": false,
      "inputs": [
        {
          "indexed": false,
          "name": "_proposalID",
          "type": "bytes32"
        },
        {
          "indexed": false,
          "name": "_amount",
          "type": "uint256"
        },
        {
          "indexed": false,
          "name": "_from",
          "type": "address"
        },
        {
          "indexed": false,
          "name": "_to",
          "type": "address"
        }
      ],
      "name": "InstallmentTransfer",
      "type": "event"
    },
    {
      "anonymous": false,
      "inputs": [
        {
          "indexed": false,
          "name": "_from",
          "type": "address"
        },
        {
          "indexed": false,
          "name": "_value",
          "type": "uint256"
        }
      ],
      "name": "EtherTransfer",
      "type": "event"
    },
    {
      "anonymous": false,
      "inputs": [
        {
          "indexed": false,
          "name": "_proposalOwner",
          "type": "address"
        },
        {
          "indexed": false,
          "name": "_proposalID",
          "type": "bytes32"
        },
        {
          "indexed": false,
          "name": "_fundingGoal",
          "type": "uint256"
        }
      ],
      "name": "GoalReached",
      "type": "event"
    },
    {
      "anonymous": false,
      "inputs": [
        {
          "indexed": false,
          "name": "_proposalOwner",
          "type": "address"
        },
        {
          "indexed": false,
          "name": "_proposalID",
          "type": "bytes32"
        },
        {
          "indexed": false,
          "name": "_amount",
          "type": "uint256"
        }
      ],
      "name": "GetFundAfterGoalReached",
      "type": "event"
    },
    {
      "anonymous": false,
      "inputs": [
        {
          "indexed": false,
          "name": "_lender",
          "type": "address"
        },
        {
          "indexed": false,
          "name": "_proposalID",
          "type": "bytes32"
        },
        {
          "indexed": false,
          "name": "_amount",
          "type": "uint256"
        }
      ],
      "name": "WithdrawFundWhenGoalNotReached",
      "type": "event"
    },
    {
      "constant": false,
      "inputs": [
        {
          "name": "_amount",
          "type": "uint256"
        }
      ],
      "name": "setLateInstallmentFee",
      "outputs": [],
      "payable": false,
      "stateMutability": "nonpayable",
      "type": "function"
    },
    {
      "constant": false,
      "inputs": [
        {
          "name": "_proposalID",
          "type": "bytes32"
        }
      ],
      "name": "calculateInstallment",
      "outputs": [
        {
          "name": "_installmentAmount",
          "type": "uint256"
        }
      ],
      "payable": false,
      "stateMutability": "nonpayable",
      "type": "function"
    },
    {
      "constant": true,
      "inputs": [
        {
          "name": "_proposalID",
          "type": "bytes32"
        },
        {
          "name": "_ts",
          "type": "uint256"
        }
      ],
      "name": "getDueInstallment",
      "outputs": [
        {
          "name": "_installment",
          "type": "uint256"
        },
        {
          "name": "_nextDueDate",
          "type": "uint256"
        },
        {
          "name": "_remainingTenure",
          "type": "uint8"
        }
      ],
      "payable": false,
      "stateMutability": "view",
      "type": "function"
    },
    {
      "constant": false,
      "inputs": [
        {
          "name": "_proposalID",
          "type": "bytes32"
        },
        {
          "name": "_ts",
          "type": "uint256"
        }
      ],
      "name": "payInstallment",
      "outputs": [],
      "payable": true,
      "stateMutability": "payable",
      "type": "function"
    }
  ],
  "bytecode": "0x60806040526201518060005562278d00600355600060115533600460006101000a81548173ffffffffffffffffffffffffffffffffffffffff021916908373ffffffffffffffffffffffffffffffffffffffff160217905550612742806100676000396000f300608060405260043610610128576000357c0100000000000000000000000000000000000000000000000000000000900463ffffffff1680630171ce831461012d5780630973f70b146101ac5780632c9ca75c1461021e5780633f48b43314610276578063414c1efc146102bb5780634466f1b2146102e857806349bff7dc1461036b57806353015bd5146103dc57806354738a54146104175780635a634294146104af57806387a965f2146104f45780639276c8c41461053d57806396edcb40146105a9578063994a7bd6146106415780639b91e76b146106865780639f4192df1461079c5780639f6f6230146107e1578063b0f60ac814610844578063d4c1695d14610872578063d84fcbc7146108b7578063e1c7f3d11461094f578063fec1976e1461097d575b600080fd5b34801561013957600080fd5b506101aa600480360381019080803560001916906020019092919080359060200190929190803560ff169060200190929190803560ff169060200190929190803573ffffffffffffffffffffffffffffffffffffffff169060200190929190803590602001909291905050506109cc565b005b3480156101b857600080fd5b506101fb6004803603810190808035600019169060200190929190803573ffffffffffffffffffffffffffffffffffffffff169060200190929190505050610c26565b604051808381526020018260ff1660ff1681526020019250505060405180910390f35b610274600480360381019080803560001916906020019092919080359060200190929190803573ffffffffffffffffffffffffffffffffffffffff16906020019092919080359060200190929190505050610cf9565b005b34801561028257600080fd5b506102a56004803603810190808035600019169060200190929190505050611004565b6040518082815260200191505060405180910390f35b3480156102c757600080fd5b506102e660048036038101908080359060200190929190505050611029565b005b3480156102f457600080fd5b50610317600480360381019080803560001916906020019092919050505061108a565b604051808881526020018760ff1660ff1681526020018681526020018560ff1660ff168152602001848152602001831515151581526020018215151515815260200197505050505050505060405180910390f35b34801561037757600080fd5b5061039a60048036038101908080356000191690602001909291905050506111b5565b604051808273ffffffffffffffffffffffffffffffffffffffff1673ffffffffffffffffffffffffffffffffffffffff16815260200191505060405180910390f35b3480156103e857600080fd5b506104156004803603810190808035600019169060200190929190803590602001909291905050506111fa565b005b34801561042357600080fd5b50610458600480360381019080803573ffffffffffffffffffffffffffffffffffffffff16906020019092919050505061144f565b6040518080602001828103825283818151815260200191508051906020019060200280838360005b8381101561049b578082015181840152602081019050610480565b505050509050019250505060405180910390f35b3480156104bb57600080fd5b506104de60048036038101908080356000191690602001909291905050506114ea565b6040518082815260200191505060405180910390f35b34801561050057600080fd5b5061051f600480360381019080803590602001909291905050506115df565b60405180826000191660001916815260200191505060405180910390f35b34801561054957600080fd5b50610552611608565b6040518080602001828103825283818151815260200191508051906020019060200280838360005b8381101561059557808201518184015260208101905061057a565b505050509050019250505060405180910390f35b3480156105b557600080fd5b506105ea600480360381019080803573ffffffffffffffffffffffffffffffffffffffff169060200190929190505050611722565b6040518080602001828103825283818151815260200191508051906020019060200280838360005b8381101561062d578082015181840152602081019050610612565b505050509050019250505060405180910390f35b34801561064d57600080fd5b50610670600480360381019080803560001916906020019092919050505061191f565b6040518082815260200191505060405180910390f35b34801561069257600080fd5b506106b56004803603810190808035600019169060200190929190505050611976565b60405180806020018060200180602001848103845287818151815260200191508051906020019060200280838360005b838110156107005780820151818401526020810190506106e5565b50505050905001848103835286818151815260200191508051906020019060200280838360005b83811015610742578082015181840152602081019050610727565b50505050905001848103825285818151815260200191508051906020019060200280838360005b83811015610784578082015181840152602081019050610769565b50505050905001965050505050505060405180910390f35b3480156107a857600080fd5b506107cb6004803603810190808035600019169060200190929190505050611c49565b6040518082815260200191505060405180910390f35b3480156107ed57600080fd5b5061081a600480360381019080803560001916906020019092919080359060200190929190505050611ca2565b604051808481526020018381526020018260ff1660ff168152602001935050505060405180910390f35b610870600480360381019080803560001916906020019092919080359060200190929190505050611d37565b005b34801561087e57600080fd5b506108a16004803603810190808035600019169060200190929190505050611f26565b6040518082815260200191505060405180910390f35b3480156108c357600080fd5b506108f8600480360381019080803573ffffffffffffffffffffffffffffffffffffffff169060200190929190505050611f4e565b6040518080602001828103825283818151815260200191508051906020019060200280838360005b8381101561093b578082015181840152602081019050610920565b505050509050019250505060405180910390f35b61097b600480360381019080803560001916906020019092919080359060200190929190505050612145565b005b34801561098957600080fd5b506109b660048036038101908080356000191690602001909291908035906020019092919050505061253b565b6040518082815260200191505060405180910390f35b60a0604051908101604052808681526020018560ff168152602001600081526020018460ff168152602001828152506006600088600019166000191681526020019081526020016000206000820151816000015560208201518160010160006101000a81548160ff021916908360ff1602179055506040820151816002015560608201518160030160006101000a81548160ff021916908360ff16021790555060808201518160040155905050600860008373ffffffffffffffffffffffffffffffffffffffff1673ffffffffffffffffffffffffffffffffffffffff1681526020019081526020016000208690806001815401808255809150509060018203906000526020600020016000909192909190915090600019169055506000548101600760008860001916600019168152602001908152602001600020819055508160096000886000191660001916815260200190815260200160002060006101000a81548173ffffffffffffffffffffffffffffffffffffffff021916908373ffffffffffffffffffffffffffffffffffffffff1602179055506001600a6000886000191660001916815260200190815260200160002060006101000a81548160ff0219169083151502179055506000600f6000886000191660001916815260200190815260200160002060006101000a81548160ff0219169083151502179055506005602060405190810160405280886000191681525090806001815401808255809150509060018203906000526020600020016000909192909190915060008201518160000190600019169055505050505050505050565b600080600b6000856000191660001916815260200190815260200160002060008473ffffffffffffffffffffffffffffffffffffffff1673ffffffffffffffffffffffffffffffffffffffff16815260200190815260200160002060000154600b6000866000191660001916815260200190815260200160002060008573ffffffffffffffffffffffffffffffffffffffff1673ffffffffffffffffffffffffffffffffffffffff16815260200190815260200160002060010160009054906101000a900460ff16915091509250929050565b6000610d036126e2565b858560066000836000191660001916815260200190815260200160002060020154600660008460001916600019168152602001908152602001600020600001540381111515610ffa5787856007600083600019166000191681526020019081526020016000205481111515610ff75789600a6000826000191660001916815260200190815260200160002060009054906101000a900460ff1615610ff5576000341115610ff457600660008c600019166000191681526020019081526020016000209650610dd587600201548b61256a565b876002018190555089866000018181525050610dff610df58b6064612588565b88600001546125c3565b866020019060ff16908160ff168152505085600b60008d6000191660001916815260200190815260200160002060008b73ffffffffffffffffffffffffffffffffffffffff1673ffffffffffffffffffffffffffffffffffffffff1681526020019081526020016000206000820151816000015560208201518160010160006101000a81548160ff021916908360ff160217905550905050600c60008c600019166000191681526020019081526020016000208990806001815401808255809150509060018203906000526020600020016000909192909190916101000a81548173ffffffffffffffffffffffffffffffffffffffff021916908373ffffffffffffffffffffffffffffffffffffffff16021790555050600d60008a73ffffffffffffffffffffffffffffffffffffffff1673ffffffffffffffffffffffffffffffffffffffff1681526020019081526020016000206000018b90806001815401808255809150509060018203906000526020600020016000909192909190915090600019169055507f1853ca9dc0208799379313b2b43364e45db022f073c72648fbc206dc0bacbcdc898b604051808373ffffffffffffffffffffffffffffffffffffffff1673ffffffffffffffffffffffffffffffffffffffff1681526020018281526020019250505060405180910390a15b5b505b50505b5050505050505050565b6000600760008360001916600019168152602001908152602001600020549050919050565b600460009054906101000a900473ffffffffffffffffffffffffffffffffffffffff1673ffffffffffffffffffffffffffffffffffffffff163373ffffffffffffffffffffffffffffffffffffffff16141561108757806012819055505b50565b600080600080600080600060066000896000191660001916815260200190815260200160002060000154600660008a6000191660001916815260200190815260200160002060010160009054906101000a900460ff16600660008b6000191660001916815260200190815260200160002060020154600660008c6000191660001916815260200190815260200160002060030160009054906101000a900460ff16600660008d6000191660001916815260200190815260200160002060040154600f60008e6000191660001916815260200190815260200160002060009054906101000a900460ff16600a60008f6000191660001916815260200190815260200160002060009054906101000a900460ff169650965096509650965096509650919395979092949650565b600060096000836000191660001916815260200190815260200160002060009054906101000a900473ffffffffffffffffffffffffffffffffffffffff169050919050565b6000600460009054906101000a900473ffffffffffffffffffffffffffffffffffffffff1673ffffffffffffffffffffffffffffffffffffffff163373ffffffffffffffffffffffffffffffffffffffff16141561144a57828260076000836000191660001916815260200190815260200160002054811015156114475760066000866000191660001916815260200190815260200160002092508260000154836002015414156113ed5760001515600a6000876000191660001916815260200190815260200160002060009054906101000a9050505083601060008760001916600019168152602001908152602001600020819055506112fa856125de565b6001600f6000876000191660001916815260200190815260200160002060006101000a81548160ff0219169083151502179055507fca7dda9f30e83b1017ab663d6725df4277f3c589212935d66d45cd9853076ed360096000876000191660001916815260200190815260200160002060009054906101000a900473ffffffffffffffffffffffffffffffffffffffff16868560000154604051808473ffffffffffffffffffffffffffffffffffffffff1673ffffffffffffffffffffffffffffffffffffffff1681526020018360001916600019168152602001828152602001935050505060405180910390a1611446565b60001515600a6000876000191660001916815260200190815260200160002060009054906101000a9050505060001515600f6000876000191660001916815260200190815260200160002060009054906101000a905050505b5b50505b505050565b6060600860008373ffffffffffffffffffffffffffffffffffffffff1673ffffffffffffffffffffffffffffffffffffffff1681526020019081526020016000208054806020026020016040519081016040528092919081815260200182805480156114de57602002820191906000526020600020905b815460001916815260200190600101908083116114c6575b50505050509050919050565b6000806000600660008560001916600019168152602001908152602001600020915061154382600001548360010160009054906101000a900460ff1660ff168460030160009054906101000a900460ff1660ff1661267c565b905060408051908101604052808281526020018360030160009054906101000a900460ff1660ff168152506013600086600019166000191681526020019081526020016000206000820151816000015560208201518160010160006101000a81548160ff021916908360ff1602179055509050506013600085600019166000191681526020019081526020016000206000015492505050919050565b6005818154811015156115ee57fe5b906000526020600020016000915090508060000154905081565b6060806116136126ff565b6005805490506001819055506001546040519080825280602002602001820160405280156116505781602001602082028038833980820191505090505b50915060006002819055505b600154600254101561171a57600560025481548110151561167957fe5b906000526020600020016020604051908101604052908160008201546000191660001916815250509050600a600082600001516000191660001916815260200190815260200160002060009054906101000a900460ff1615611703578060000151826002548151811015156116ea57fe5b9060200190602002019060001916908160001916815250505b60026000815480929190600101919050555061165c565b819250505090565b60608060606000600d60008673ffffffffffffffffffffffffffffffffffffffff1673ffffffffffffffffffffffffffffffffffffffff168152602001908152602001600020600001805490506001819055506001546040519080825280602002602001820160405280156117a65781602001602082028038833980820191505090505b5092506001546040519080825280602002602001820160405280156117da5781602001602082028038833980820191505090505b509150600d60008673ffffffffffffffffffffffffffffffffffffffff1673ffffffffffffffffffffffffffffffffffffffff16815260200190815260200160002060000180548060200260200160405190810160405280929190818152602001828054801561186d57602002820191906000526020600020905b81546000191681526020019060010190808311611855575b5050505050925060006002819055505b6001546002541015611914578260025481518110151561189957fe5b906020019060200201519050600f6000826000191660001916815260200190815260200160002060009054906101000a900460ff16156118fd5780826002548151811015156118e457fe5b9060200190602002019060001916908160001916815250505b60026000815480929190600101919050555061187d565b819350505050919050565b600081600a6000826000191660001916815260200190815260200160002060009054906101000a900460ff161515611970576010600084600019166000191681526020019081526020016000205491505b50919050565b6060806060806060806000600c60008960001916600019168152602001908152602001600020805490506001819055506001546040519080825280602002602001820160405280156119d75781602001602082028038833980820191505090505b509350600154604051908082528060200260200182016040528015611a0b5781602001602082028038833980820191505090505b509250600154604051908082528060200260200182016040528015611a3f5781602001602082028038833980820191505090505b509150600c60008960001916600019168152602001908152602001600020805480602002602001604051908101604052809291908181526020018280548015611add57602002820191906000526020600020905b8160009054906101000a900473ffffffffffffffffffffffffffffffffffffffff1673ffffffffffffffffffffffffffffffffffffffff1681526020019060010190808311611a93575b5050505050935060006002819055505b6001546002541015611c355783600254815181101515611b0957fe5b906020019060200201519050600b6000896000191660001916815260200190815260200160002060008273ffffffffffffffffffffffffffffffffffffffff1673ffffffffffffffffffffffffffffffffffffffff1681526020019081526020016000206000015483600254815181101515611b8157fe5b9060200190602002018181525050600b6000896000191660001916815260200190815260200160002060008273ffffffffffffffffffffffffffffffffffffffff1673ffffffffffffffffffffffffffffffffffffffff16815260200190815260200160002060010160009054906101000a900460ff1682600254815181101515611c0857fe5b9060200190602002019060ff16908160ff1681525050600260008154809291906001019190505550611aed565b838383965096509650505050509193909250565b600080600e60008460001916600019168152602001908152602001600020541415611c7e57611c778261191f565b9050611c9d565b600e600083600019166000191681526020019081526020016000205490505b919050565b600080600080611cb2868661253b565b1115611cf45760136000866000191660001916815260200190815260200160002060000154611ce086611c49565b611ce9876126ad565b925092509250611d30565b6012546013600087600019166000191681526020019081526020016000206000015401611d2086611c49565b611d29876126ad565b9250925092505b9250925092565b60008083836007600083600019166000191681526020019081526020016000205481101515611f1e5785600a6000826000191660001916815260200190815260200160002060009054906101000a900460ff161515611f1c578660096000826000191660001916815260200190815260200160002060009054906101000a900473ffffffffffffffffffffffffffffffffffffffff1673ffffffffffffffffffffffffffffffffffffffff163373ffffffffffffffffffffffffffffffffffffffff161415611f1a5760096000896000191660001916815260200190815260200160002060009054906101000a900473ffffffffffffffffffffffffffffffffffffffff16955060066000896000191660001916815260200190815260200160002094508573ffffffffffffffffffffffffffffffffffffffff166108fc86600001549081150290604051600060405180830381858888f1935050505015611f19577f9d1f44b07a1e13b6770919ebe68747618bac8204edf2025dc82e47a1f813551586898760000154604051808473ffffffffffffffffffffffffffffffffffffffff1673ffffffffffffffffffffffffffffffffffffffff1681526020018360001916600019168152602001828152602001935050505060405180910390a15b5b505b505b505050505050565b6000600660008360001916600019168152602001908152602001600020600201549050919050565b60608060606000600860008673ffffffffffffffffffffffffffffffffffffffff1673ffffffffffffffffffffffffffffffffffffffff16815260200190815260200160002080549050600181905550600154604051908082528060200260200182016040528015611fcf5781602001602082028038833980820191505090505b5092506001546040519080825280602002602001820160405280156120035781602001602082028038833980820191505090505b509150600860008673ffffffffffffffffffffffffffffffffffffffff1673ffffffffffffffffffffffffffffffffffffffff16815260200190815260200160002080548060200260200160405190810160405280929190818152602001828054801561209357602002820191906000526020600020905b8154600019168152602001906001019080831161207b575b5050505050925060006002819055505b600154600254101561213a57826002548151811015156120bf57fe5b906020019060200201519050600f6000826000191660001916815260200190815260200160002060009054906101000a900460ff161561212357808260025481518110151561210a57fe5b9060200190602002019060001916908160001916815250505b6002600081548092919060010191905055506120a3565b819350505050919050565b60008060008060008660096000826000191660001916815260200190815260200160002060009054906101000a900473ffffffffffffffffffffffffffffffffffffffff1673ffffffffffffffffffffffffffffffffffffffff163373ffffffffffffffffffffffffffffffffffffffff1614156125315787600060136000836000191660001916815260200190815260200160002060010160009054906101000a900460ff1660ff16111561252f5788600a6000826000191660001916815260200190815260200160002060009054906101000a900460ff16151561252d57601360008b60001916600019168152602001908152602001600020975061224c8a8a611ca2565b905050809650508534141561252c5760006011819055505b600c60008b6000191660001916815260200190815260200160002080549050601154101561252b57600c60008b600019166000191681526020019081526020016000206011548154811015156122b657fe5b9060005260206000200160009054906101000a900473ffffffffffffffffffffffffffffffffffffffff169450600b60008b6000191660001916815260200190815260200160002060008673ffffffffffffffffffffffffffffffffffffffff1673ffffffffffffffffffffffffffffffffffffffff168152602001908152602001600020965061236961236289600001548960010160009054906101000a900460ff1660ff16612588565b60646125c3565b93508473ffffffffffffffffffffffffffffffffffffffff166108fc859081150290604051600060405180830381858888f1935050505015612514577f55f661f56c0b88b15fd6da37b428444c7a4b36feff678d8eba1d3daa0dfc93528a85600960008e6000191660001916815260200190815260200160002060009054906101000a900473ffffffffffffffffffffffffffffffffffffffff16886040518085600019166000191681526020018481526020018373ffffffffffffffffffffffffffffffffffffffff1673ffffffffffffffffffffffffffffffffffffffff1681526020018273ffffffffffffffffffffffffffffffffffffffff1673ffffffffffffffffffffffffffffffffffffffff16815260200194505050505060405180910390a16124988a6125de565b60008860010160009054906101000a900460ff1660ff1614156124e25760016124c08b6126ad565b038860010160006101000a81548160ff021916908360ff160217905550612513565b60018860010160008282829054906101000a900460ff160392506101000a81548160ff021916908360ff1602179055505b5b601160008154809291906001019190505550612264565b5b5b505b505b5050505050505050565b60008161254784611c49565b111561255f578161255784611c49565b039050612564565b600090505b92915050565b600080828401905083811015151561257e57fe5b8091505092915050565b600080600084141561259d57600091506125bc565b82840290508284828115156125ae57fe5b041415156125b857fe5b8091505b5092915050565b60008082848115156125d157fe5b0490508091505092915050565b60006125e98261191f565b90506000600e60008460001916600019168152602001908152602001600020541415612638576003548101600e6000846000191660001916815260200190815260200160002081905550612678565b600354600e600084600019166000191681526020019081526020016000205401600e60008460001916600019168152602001908152602001600020819055505b5050565b60006126a461269e856126996126928888612588565b60646125c3565b61256a565b836125c3565b90509392505050565b600060066000836000191660001916815260200190815260200160002060030160009054906101000a900460ff169050919050565b604080519081016040528060008152602001600060ff1681525090565b6020604051908101604052806000801916815250905600a165627a7a7230582088174a2640b4e50e46d96c4bc3502b66a88dc278278edea0020747e4d0f520870029",
  "source": "pragma solidity ^0.4.19;\r\n\r\nimport \"./SafeMath.sol\";\r\nimport \"./EMICalculator.sol\";\r\nimport \"./CollectFund.sol\";\r\n\r\ncontract PayInstallments is CollectFund {\r\n    \r\n    uint256 i = 0;\r\n    uint256 lateInstallmentFee;\r\n\r\n    struct Installment {\r\n        uint256 installmentAmount;\r\n        uint8 remainingTenure;\r\n    }\r\n\r\n    mapping (bytes32 => Installment ) mapInstallmentsWithProposal;\r\n\r\n    event InstallmentTransfer(bytes32 _proposalID, uint256 _amount, address _from, address _to );\r\n\r\n    modifier checkInstallmentTenure(bytes32 _proposalID) {\r\n        if ( mapInstallmentsWithProposal[_proposalID].remainingTenure > 0) \r\n        _;\r\n    }   \r\n\r\n    function setLateInstallmentFee (uint256 _amount) onlyAdmin {\r\n        lateInstallmentFee = _amount;\r\n    }\r\n    \r\n    function calculateInstallment (bytes32 _proposalID) returns (uint256 _installmentAmount) {\r\n        BorrowerProposal storage currentProposal = mapProposalsWithProposalIDs[_proposalID];\r\n        uint256 installmentAmount = EMICalculator.calculateInstallment(currentProposal.fundingGoal, currentProposal.interestRate, currentProposal.tenureInMonths);\r\n        mapInstallmentsWithProposal[_proposalID] = Installment(installmentAmount, currentProposal.tenureInMonths);\r\n        return mapInstallmentsWithProposal[_proposalID].installmentAmount;\r\n    }\r\n\r\n    function getDueInstallment(bytes32 _proposalID, uint256 _ts) view returns (uint256 _installment, uint256 _nextDueDate, uint8 _remainingTenure) { \r\n        if (getDaysRemainingInInstallmentDue(_proposalID,_ts) > 0) {\r\n            return (mapInstallmentsWithProposal[_proposalID].installmentAmount,getProposalDueDate(_proposalID),getProposalTenure(_proposalID)) ;\r\n        }\r\n        else {\r\n            return ((mapInstallmentsWithProposal[_proposalID].installmentAmount + lateInstallmentFee),getProposalDueDate(_proposalID),getProposalTenure(_proposalID));\r\n        }\r\n    }\r\n\r\n    function payInstallment(bytes32 _proposalID, uint256 _ts) payable checkProposalOwner(_proposalID) checkInstallmentTenure(_proposalID) proposalGoalReached(_proposalID) {\r\n        Installment storage currentInstallment = mapInstallmentsWithProposal[_proposalID];\r\n        LenderInfo storage currentLenderInfo;\r\n        uint256 getCurrentInstallment;\r\n        (getCurrentInstallment,,) = getDueInstallment(_proposalID, _ts);\r\n        if (msg.value == getCurrentInstallment) {\r\n            for (i = 0; i < mapLendersWithProposal[_proposalID].length ; i++) {\r\n            address currentLender = mapLendersWithProposal[_proposalID][i];\r\n            currentLenderInfo = mapProposalWithLenderInfo[_proposalID][currentLender];\r\n            uint256 amount = SafeMath.div((SafeMath.mul(currentInstallment.installmentAmount, currentLenderInfo.fundRatio)), 100);\r\n            if (currentLender.send(amount)) {\r\n                InstallmentTransfer(_proposalID, amount, mapProposalWithOwner[_proposalID], currentLender);\r\n                setNextDueDate(_proposalID);\r\n                if (currentInstallment.remainingTenure == 0){\r\n                    currentInstallment.remainingTenure = getProposalTenure(_proposalID) - 1;\r\n                }\r\n                else {\r\n                    currentInstallment.remainingTenure -= 1;\r\n                }\r\n               }\r\n            }\r\n        }\r\n    }\r\n\r\n}",
  "sourcePath": "D:\\work\\P2P-Lending\\WithSafeMath\\contracts\\PayInstallments.sol",
  "compiler": {
    "name": "solc",
    "version": "0.4.23+commit.124ca40d.Emscripten.clang"
  },
  "schemaVersion": "2.0.0",
  "updatedAt": "2018-05-15T04:05:31.271Z"
}