{
  "contractName": "PayInstallments",
  "abi": [
    {
      "constant": true,
      "inputs": [
        {
          "name": "_proposalID",
          "type": "bytes32"
        },
        {
          "name": "_lender",
          "type": "address"
        }
      ],
      "name": "getLenderDetails",
      "outputs": [
        {
          "name": "",
          "type": "uint256"
        },
        {
          "name": "",
          "type": "uint8"
        }
      ],
      "payable": false,
      "stateMutability": "view",
      "type": "function"
    },
    {
      "constant": false,
      "inputs": [
        {
          "name": "_proposalID",
          "type": "bytes32"
        }
      ],
      "name": "getMoneyAsBorrowerAfterDeadline",
      "outputs": [],
      "payable": true,
      "stateMutability": "payable",
      "type": "function"
    },
    {
      "constant": true,
      "inputs": [
        {
          "name": "_proposalID",
          "type": "bytes32"
        }
      ],
      "name": "getDaysRemainingInInstallmentDue",
      "outputs": [
        {
          "name": "",
          "type": "uint256"
        }
      ],
      "payable": false,
      "stateMutability": "view",
      "type": "function"
    },
    {
      "constant": true,
      "inputs": [
        {
          "name": "_proposalID",
          "type": "bytes32"
        }
      ],
      "name": "getProposalExpiration",
      "outputs": [
        {
          "name": "",
          "type": "uint256"
        }
      ],
      "payable": false,
      "stateMutability": "view",
      "type": "function"
    },
    {
      "constant": true,
      "inputs": [
        {
          "name": "_proposalID",
          "type": "bytes32"
        }
      ],
      "name": "getProposalDetailsByProposalID",
      "outputs": [
        {
          "name": "",
          "type": "uint256"
        },
        {
          "name": "",
          "type": "uint8"
        },
        {
          "name": "",
          "type": "uint256"
        },
        {
          "name": "",
          "type": "uint8"
        },
        {
          "name": "",
          "type": "uint256"
        },
        {
          "name": "",
          "type": "bool"
        },
        {
          "name": "",
          "type": "bool"
        }
      ],
      "payable": false,
      "stateMutability": "view",
      "type": "function"
    },
    {
      "constant": true,
      "inputs": [
        {
          "name": "_proposalID",
          "type": "bytes32"
        }
      ],
      "name": "getProposalOwner",
      "outputs": [
        {
          "name": "",
          "type": "address"
        }
      ],
      "payable": false,
      "stateMutability": "view",
      "type": "function"
    },
    {
      "constant": true,
      "inputs": [
        {
          "name": "_borrower",
          "type": "address"
        }
      ],
      "name": "getBorrrowerSpecificProposals",
      "outputs": [
        {
          "name": "",
          "type": "bytes32[]"
        }
      ],
      "payable": false,
      "stateMutability": "view",
      "type": "function"
    },
    {
      "constant": false,
      "inputs": [
        {
          "name": "_proposalID",
          "type": "bytes32"
        },
        {
          "name": "_amount",
          "type": "uint256"
        },
        {
          "name": "_lender",
          "type": "address"
        }
      ],
      "name": "lendMoneyToProposal",
      "outputs": [],
      "payable": true,
      "stateMutability": "payable",
      "type": "function"
    },
    {
      "constant": true,
      "inputs": [
        {
          "name": "",
          "type": "uint256"
        }
      ],
      "name": "AllProposalIDs",
      "outputs": [
        {
          "name": "proposalID",
          "type": "bytes32"
        }
      ],
      "payable": false,
      "stateMutability": "view",
      "type": "function"
    },
    {
      "constant": false,
      "inputs": [
        {
          "name": "_proposalID",
          "type": "bytes32"
        },
        {
          "name": "_fundingGoal",
          "type": "uint256"
        },
        {
          "name": "_interestRate",
          "type": "uint8"
        },
        {
          "name": "_tenureInMonths",
          "type": "uint8"
        },
        {
          "name": "_borrower",
          "type": "address"
        }
      ],
      "name": "submitProposal",
      "outputs": [],
      "payable": false,
      "stateMutability": "nonpayable",
      "type": "function"
    },
    {
      "constant": true,
      "inputs": [],
      "name": "getAllProposalsForBorrowerList",
      "outputs": [
        {
          "name": "",
          "type": "bytes32[]"
        }
      ],
      "payable": false,
      "stateMutability": "view",
      "type": "function"
    },
    {
      "constant": true,
      "inputs": [
        {
          "name": "_lender",
          "type": "address"
        }
      ],
      "name": "getLenderSuccessfulProposals",
      "outputs": [
        {
          "name": "",
          "type": "bytes32[]"
        }
      ],
      "payable": false,
      "stateMutability": "view",
      "type": "function"
    },
    {
      "constant": true,
      "inputs": [
        {
          "name": "_proposalID",
          "type": "bytes32"
        }
      ],
      "name": "getInstallmentStartTS",
      "outputs": [
        {
          "name": "",
          "type": "uint256"
        }
      ],
      "payable": false,
      "stateMutability": "view",
      "type": "function"
    },
    {
      "constant": true,
      "inputs": [
        {
          "name": "_proposalID",
          "type": "bytes32"
        }
      ],
      "name": "getProposalLendersWithDetails",
      "outputs": [
        {
          "name": "",
          "type": "address[]"
        },
        {
          "name": "",
          "type": "uint256[]"
        },
        {
          "name": "",
          "type": "uint8[]"
        }
      ],
      "payable": false,
      "stateMutability": "view",
      "type": "function"
    },
    {
      "constant": true,
      "inputs": [
        {
          "name": "_proposalID",
          "type": "bytes32"
        }
      ],
      "name": "getProposalDueDate",
      "outputs": [
        {
          "name": "",
          "type": "uint256"
        }
      ],
      "payable": false,
      "stateMutability": "view",
      "type": "function"
    },
    {
      "constant": true,
      "inputs": [
        {
          "name": "_proposalID",
          "type": "bytes32"
        }
      ],
      "name": "checkProposalFunding",
      "outputs": [
        {
          "name": "",
          "type": "uint256"
        }
      ],
      "payable": false,
      "stateMutability": "view",
      "type": "function"
    },
    {
      "constant": true,
      "inputs": [
        {
          "name": "_borrower",
          "type": "address"
        }
      ],
      "name": "getBorrowerSuccessfulProposals",
      "outputs": [
        {
          "name": "",
          "type": "bytes32[]"
        }
      ],
      "payable": false,
      "stateMutability": "view",
      "type": "function"
    },
    {
      "constant": false,
      "inputs": [
        {
          "name": "_proposalID",
          "type": "bytes32"
        }
      ],
      "name": "checkGoalReached",
      "outputs": [],
      "payable": false,
      "stateMutability": "nonpayable",
      "type": "function"
    },
    {
      "anonymous": false,
      "inputs": [
        {
          "indexed": false,
          "name": "_proposalID",
          "type": "bytes32"
        },
        {
          "indexed": false,
          "name": "_amount",
          "type": "uint256"
        },
        {
          "indexed": false,
          "name": "_from",
          "type": "address"
        },
        {
          "indexed": false,
          "name": "_to",
          "type": "address"
        }
      ],
      "name": "InstallmentTransfer",
      "type": "event"
    },
    {
      "anonymous": false,
      "inputs": [
        {
          "indexed": false,
          "name": "_from",
          "type": "address"
        },
        {
          "indexed": false,
          "name": "_value",
          "type": "uint256"
        }
      ],
      "name": "EtherTransfer",
      "type": "event"
    },
    {
      "anonymous": false,
      "inputs": [
        {
          "indexed": false,
          "name": "_proposalOwner",
          "type": "address"
        },
        {
          "indexed": false,
          "name": "_proposalID",
          "type": "bytes32"
        },
        {
          "indexed": false,
          "name": "_fundingGoal",
          "type": "uint256"
        }
      ],
      "name": "GoalReached",
      "type": "event"
    },
    {
      "anonymous": false,
      "inputs": [
        {
          "indexed": false,
          "name": "_proposalOwner",
          "type": "address"
        },
        {
          "indexed": false,
          "name": "_proposalID",
          "type": "bytes32"
        },
        {
          "indexed": false,
          "name": "_amount",
          "type": "uint256"
        }
      ],
      "name": "GetFundAfterGoalReached",
      "type": "event"
    },
    {
      "anonymous": false,
      "inputs": [
        {
          "indexed": false,
          "name": "_lender",
          "type": "address"
        },
        {
          "indexed": false,
          "name": "_proposalID",
          "type": "bytes32"
        },
        {
          "indexed": false,
          "name": "_amount",
          "type": "uint256"
        }
      ],
      "name": "WithdrawFundWhenGoalNotReached",
      "type": "event"
    },
    {
      "constant": false,
      "inputs": [
        {
          "name": "_amount",
          "type": "uint256"
        }
      ],
      "name": "setLateInstallmentFee",
      "outputs": [],
      "payable": false,
      "stateMutability": "nonpayable",
      "type": "function"
    },
    {
      "constant": false,
      "inputs": [
        {
          "name": "_proposalID",
          "type": "bytes32"
        }
      ],
      "name": "calculateInstallment",
      "outputs": [
        {
          "name": "_installmentAmount",
          "type": "uint256"
        }
      ],
      "payable": false,
      "stateMutability": "nonpayable",
      "type": "function"
    },
    {
      "constant": true,
      "inputs": [
        {
          "name": "_proposalID",
          "type": "bytes32"
        }
      ],
      "name": "getDueInstallment",
      "outputs": [
        {
          "name": "_installment",
          "type": "uint256"
        },
        {
          "name": "_nextDueDate",
          "type": "uint256"
        },
        {
          "name": "_remainingTenure",
          "type": "uint8"
        }
      ],
      "payable": false,
      "stateMutability": "view",
      "type": "function"
    },
    {
      "constant": false,
      "inputs": [
        {
          "name": "_proposalID",
          "type": "bytes32"
        }
      ],
      "name": "payInstallment",
      "outputs": [],
      "payable": true,
      "stateMutability": "payable",
      "type": "function"
    }
  ],
  "bytecode": "0x60806040526201518060005562278d00600355600060115533600460006101000a81548173ffffffffffffffffffffffffffffffffffffffff021916908373ffffffffffffffffffffffffffffffffffffffff1602179055506126ee806100676000396000f300608060405260043610610128576000357c0100000000000000000000000000000000000000000000000000000000900463ffffffff1680630973f70b1461012d5780630a629bdd1461019f5780630e37e926146101c357806337194341146101e75780633e1d8c65146102405780633f48b43314610285578063414c1efc146102ca5780634466f1b2146102f757806349bff7dc1461037a57806354738a54146103eb5780635a63429414610483578063727c7c24146104c857806387a965f2146105165780639088ec6c1461055f5780639276c8c4146105d457806396edcb4014610640578063994a7bd6146106d85780639b91e76b1461071d5780639f4192df14610833578063d4c1695d14610878578063d84fcbc7146108bd578063e1947c6a14610955575b600080fd5b34801561013957600080fd5b5061017c6004803603810190808035600019169060200190929190803573ffffffffffffffffffffffffffffffffffffffff169060200190929190505050610986565b604051808381526020018260ff1660ff1681526020019250505060405180910390f35b6101c16004803603810190808035600019169060200190929190505050610a59565b005b6101e56004803603810190808035600019169060200190929190505050610e4d565b005b3480156101f357600080fd5b506102166004803603810190808035600019169060200190929190505050611039565b604051808481526020018381526020018260ff1660ff168152602001935050505060405180910390f35b34801561024c57600080fd5b5061026f60048036038101908080356000191690602001909291905050506110cd565b6040518082815260200191505060405180910390f35b34801561029157600080fd5b506102b460048036038101908080356000191690602001909291905050506110fb565b6040518082815260200191505060405180910390f35b3480156102d657600080fd5b506102f560048036038101908080359060200190929190505050611120565b005b34801561030357600080fd5b506103266004803603810190808035600019169060200190929190505050611181565b604051808881526020018760ff1660ff1681526020018681526020018560ff1660ff168152602001848152602001831515151581526020018215151515815260200197505050505050505060405180910390f35b34801561038657600080fd5b506103a960048036038101908080356000191690602001909291905050506112ac565b604051808273ffffffffffffffffffffffffffffffffffffffff1673ffffffffffffffffffffffffffffffffffffffff16815260200191505060405180910390f35b3480156103f757600080fd5b5061042c600480360381019080803573ffffffffffffffffffffffffffffffffffffffff1690602001909291905050506112f1565b6040518080602001828103825283818151815260200191508051906020019060200280838360005b8381101561046f578082015181840152602081019050610454565b505050509050019250505060405180910390f35b34801561048f57600080fd5b506104b2600480360381019080803560001916906020019092919050505061138c565b6040518082815260200191505060405180910390f35b610514600480360381019080803560001916906020019092919080359060200190929190803573ffffffffffffffffffffffffffffffffffffffff169060200190929190505050611481565b005b34801561052257600080fd5b5061054160048036038101908080359060200190929190505050611789565b60405180826000191660001916815260200191505060405180910390f35b34801561056b57600080fd5b506105d2600480360381019080803560001916906020019092919080359060200190929190803560ff169060200190929190803560ff169060200190929190803573ffffffffffffffffffffffffffffffffffffffff1690602001909291905050506117b2565b005b3480156105e057600080fd5b506105e9611a0b565b6040518080602001828103825283818151815260200191508051906020019060200280838360005b8381101561062c578082015181840152602081019050610611565b505050509050019250505060405180910390f35b34801561064c57600080fd5b50610681600480360381019080803573ffffffffffffffffffffffffffffffffffffffff169060200190929190505050611b25565b6040518080602001828103825283818151815260200191508051906020019060200280838360005b838110156106c45780820151818401526020810190506106a9565b505050509050019250505060405180910390f35b3480156106e457600080fd5b506107076004803603810190808035600019169060200190929190505050611d22565b6040518082815260200191505060405180910390f35b34801561072957600080fd5b5061074c6004803603810190808035600019169060200190929190505050611d79565b60405180806020018060200180602001848103845287818151815260200191508051906020019060200280838360005b8381101561079757808201518184015260208101905061077c565b50505050905001848103835286818151815260200191508051906020019060200280838360005b838110156107d95780820151818401526020810190506107be565b50505050905001848103825285818151815260200191508051906020019060200280838360005b8381101561081b578082015181840152602081019050610800565b50505050905001965050505050505060405180910390f35b34801561083f57600080fd5b50610862600480360381019080803560001916906020019092919050505061204c565b6040518082815260200191505060405180910390f35b34801561088457600080fd5b506108a760048036038101908080356000191690602001909291905050506120a5565b6040518082815260200191505060405180910390f35b3480156108c957600080fd5b506108fe600480360381019080803573ffffffffffffffffffffffffffffffffffffffff1690602001909291905050506120cd565b6040518080602001828103825283818151815260200191508051906020019060200280838360005b83811015610941578082015181840152602081019050610926565b505050509050019250505060405180910390f35b34801561096157600080fd5b5061098460048036038101908080356000191690602001909291905050506122c4565b005b600080600b6000856000191660001916815260200190815260200160002060008473ffffffffffffffffffffffffffffffffffffffff1673ffffffffffffffffffffffffffffffffffffffff16815260200190815260200160002060000154600b6000866000191660001916815260200190815260200160002060008573ffffffffffffffffffffffffffffffffffffffff1673ffffffffffffffffffffffffffffffffffffffff16815260200190815260200160002060010160009054906101000a900460ff16915091509250929050565b60008060008060008560096000826000191660001916815260200190815260200160002060009054906101000a900473ffffffffffffffffffffffffffffffffffffffff1673ffffffffffffffffffffffffffffffffffffffff163373ffffffffffffffffffffffffffffffffffffffff161415610e445786600060136000836000191660001916815260200190815260200160002060010160009054906101000a900460ff1660ff161115610e425787600a6000826000191660001916815260200190815260200160002060009054906101000a900460ff161515610e4057601360008a600019166000191681526020019081526020016000209750610b5f89611039565b9050508096505085341415610e3f5760006011819055505b600c60008a60001916600019168152602001908152602001600020805490506011541015610e3e57600c60008a60001916600019168152602001908152602001600020601154815481101515610bc957fe5b9060005260206000200160009054906101000a900473ffffffffffffffffffffffffffffffffffffffff169450600b60008a6000191660001916815260200190815260200160002060008673ffffffffffffffffffffffffffffffffffffffff1673ffffffffffffffffffffffffffffffffffffffff1681526020019081526020016000209650610c7c610c7589600001548960010160009054906101000a900460ff1660ff16612516565b6064612551565b93508473ffffffffffffffffffffffffffffffffffffffff166108fc859081150290604051600060405180830381858888f1935050505015610e27577f55f661f56c0b88b15fd6da37b428444c7a4b36feff678d8eba1d3daa0dfc93528985600960008d6000191660001916815260200190815260200160002060009054906101000a900473ffffffffffffffffffffffffffffffffffffffff16886040518085600019166000191681526020018481526020018373ffffffffffffffffffffffffffffffffffffffff1673ffffffffffffffffffffffffffffffffffffffff1681526020018273ffffffffffffffffffffffffffffffffffffffff1673ffffffffffffffffffffffffffffffffffffffff16815260200194505050505060405180910390a1610dab8961256c565b60008860010160009054906101000a900460ff1660ff161415610df5576001610dd38a61260a565b038860010160006101000a81548160ff021916908360ff160217905550610e26565b60018860010160008282829054906101000a900460ff160392506101000a81548160ff021916908360ff1602179055505b5b601160008154809291906001019190505550610b77565b5b5b505b505b50505050505050565b6000808260076000826000191660001916815260200190815260200160002054421015156110335783600a6000826000191660001916815260200190815260200160002060009054906101000a900460ff161515611031578460096000826000191660001916815260200190815260200160002060009054906101000a900473ffffffffffffffffffffffffffffffffffffffff1673ffffffffffffffffffffffffffffffffffffffff163373ffffffffffffffffffffffffffffffffffffffff16141561102f5760096000876000191660001916815260200190815260200160002060009054906101000a900473ffffffffffffffffffffffffffffffffffffffff16945060066000876000191660001916815260200190815260200160002093508473ffffffffffffffffffffffffffffffffffffffff166108fc85600001549081150290604051600060405180830381858888f193505050501561102e577f9d1f44b07a1e13b6770919ebe68747618bac8204edf2025dc82e47a1f813551585878660000154604051808473ffffffffffffffffffffffffffffffffffffffff1673ffffffffffffffffffffffffffffffffffffffff1681526020018360001916600019168152602001828152602001935050505060405180910390a15b5b505b505b50505050565b600080600080611048856110cd565b111561108a57601360008560001916600019168152602001908152602001600020600001546110768561204c565b61107f8661260a565b9250925092506110c6565b60125460136000866000191660001916815260200190815260200160002060000154016110b68561204c565b6110bf8661260a565b9250925092505b9193909250565b6000426110d98361204c565b11156110f157426110e98361204c565b0390506110f6565b600090505b919050565b6000600760008360001916600019168152602001908152602001600020549050919050565b600460009054906101000a900473ffffffffffffffffffffffffffffffffffffffff1673ffffffffffffffffffffffffffffffffffffffff163373ffffffffffffffffffffffffffffffffffffffff16141561117e57806012819055505b50565b600080600080600080600060066000896000191660001916815260200190815260200160002060000154600660008a6000191660001916815260200190815260200160002060010160009054906101000a900460ff16600660008b6000191660001916815260200190815260200160002060020154600660008c6000191660001916815260200190815260200160002060030160009054906101000a900460ff16600660008d6000191660001916815260200190815260200160002060040154600f60008e6000191660001916815260200190815260200160002060009054906101000a900460ff16600a60008f6000191660001916815260200190815260200160002060009054906101000a900460ff169650965096509650965096509650919395979092949650565b600060096000836000191660001916815260200190815260200160002060009054906101000a900473ffffffffffffffffffffffffffffffffffffffff169050919050565b6060600860008373ffffffffffffffffffffffffffffffffffffffff1673ffffffffffffffffffffffffffffffffffffffff16815260200190815260200160002080548060200260200160405190810160405280929190818152602001828054801561138057602002820191906000526020600020905b81546000191681526020019060010190808311611368575b50505050509050919050565b600080600060066000856000191660001916815260200190815260200160002091506113e582600001548360010160009054906101000a900460ff1660ff168460030160009054906101000a900460ff1660ff1661263f565b905060408051908101604052808281526020018360030160009054906101000a900460ff1660ff168152506013600086600019166000191681526020019081526020016000206000820151816000015560208201518160010160006101000a81548160ff021916908360ff1602179055509050506013600085600019166000191681526020019081526020016000206000015492505050919050565b600061148b61268e565b8484600660008360001916600019168152602001908152602001600020600201546006600084600019166000191681526020019081526020016000206000015403811115156117805786600760008260001916600019168152602001908152602001600020544211151561177e5787600a6000826000191660001916815260200190815260200160002060009054906101000a900460ff161561177c57600034111561177b57600660008a60001916600019168152602001908152602001600020955061155c866002015489612670565b86600201819055508785600001818152505061158661157c896064612516565b8760000154612551565b856020019060ff16908160ff168152505084600b60008b6000191660001916815260200190815260200160002060008973ffffffffffffffffffffffffffffffffffffffff1673ffffffffffffffffffffffffffffffffffffffff1681526020019081526020016000206000820151816000015560208201518160010160006101000a81548160ff021916908360ff160217905550905050600c60008a600019166000191681526020019081526020016000208790806001815401808255809150509060018203906000526020600020016000909192909190916101000a81548173ffffffffffffffffffffffffffffffffffffffff021916908373ffffffffffffffffffffffffffffffffffffffff16021790555050600d60008873ffffffffffffffffffffffffffffffffffffffff1673ffffffffffffffffffffffffffffffffffffffff1681526020019081526020016000206000018990806001815401808255809150509060018203906000526020600020016000909192909190915090600019169055507f1853ca9dc0208799379313b2b43364e45db022f073c72648fbc206dc0bacbcdc8789604051808373ffffffffffffffffffffffffffffffffffffffff1673ffffffffffffffffffffffffffffffffffffffff1681526020018281526020019250505060405180910390a15b5b505b505b50505050505050565b60058181548110151561179857fe5b906000526020600020016000915090508060000154905081565b60a0604051908101604052808581526020018460ff168152602001600081526020018360ff168152602001428152506006600087600019166000191681526020019081526020016000206000820151816000015560208201518160010160006101000a81548160ff021916908360ff1602179055506040820151816002015560608201518160030160006101000a81548160ff021916908360ff16021790555060808201518160040155905050600860008273ffffffffffffffffffffffffffffffffffffffff1673ffffffffffffffffffffffffffffffffffffffff1681526020019081526020016000208590806001815401808255809150509060018203906000526020600020016000909192909190915090600019169055506000544201600760008760001916600019168152602001908152602001600020819055508060096000876000191660001916815260200190815260200160002060006101000a81548173ffffffffffffffffffffffffffffffffffffffff021916908373ffffffffffffffffffffffffffffffffffffffff1602179055506001600a6000876000191660001916815260200190815260200160002060006101000a81548160ff0219169083151502179055506000600f6000876000191660001916815260200190815260200160002060006101000a81548160ff02191690831515021790555060056020604051908101604052808760001916815250908060018154018082558091505090600182039060005260206000200160009091929091909150600082015181600001906000191690555050505050505050565b606080611a166126ab565b600580549050600181905550600154604051908082528060200260200182016040528015611a535781602001602082028038833980820191505090505b50915060006002819055505b6001546002541015611b1d576005600254815481101515611a7c57fe5b906000526020600020016020604051908101604052908160008201546000191660001916815250509050600a600082600001516000191660001916815260200190815260200160002060009054906101000a900460ff1615611b0657806000015182600254815181101515611aed57fe5b9060200190602002019060001916908160001916815250505b600260008154809291906001019190505550611a5f565b819250505090565b60608060606000600d60008673ffffffffffffffffffffffffffffffffffffffff1673ffffffffffffffffffffffffffffffffffffffff16815260200190815260200160002060000180549050600181905550600154604051908082528060200260200182016040528015611ba95781602001602082028038833980820191505090505b509250600154604051908082528060200260200182016040528015611bdd5781602001602082028038833980820191505090505b509150600d60008673ffffffffffffffffffffffffffffffffffffffff1673ffffffffffffffffffffffffffffffffffffffff168152602001908152602001600020600001805480602002602001604051908101604052809291908181526020018280548015611c7057602002820191906000526020600020905b81546000191681526020019060010190808311611c58575b5050505050925060006002819055505b6001546002541015611d175782600254815181101515611c9c57fe5b906020019060200201519050600f6000826000191660001916815260200190815260200160002060009054906101000a900460ff1615611d00578082600254815181101515611ce757fe5b9060200190602002019060001916908160001916815250505b600260008154809291906001019190505550611c80565b819350505050919050565b600081600a6000826000191660001916815260200190815260200160002060009054906101000a900460ff161515611d73576010600084600019166000191681526020019081526020016000205491505b50919050565b6060806060806060806000600c6000896000191660001916815260200190815260200160002080549050600181905550600154604051908082528060200260200182016040528015611dda5781602001602082028038833980820191505090505b509350600154604051908082528060200260200182016040528015611e0e5781602001602082028038833980820191505090505b509250600154604051908082528060200260200182016040528015611e425781602001602082028038833980820191505090505b509150600c60008960001916600019168152602001908152602001600020805480602002602001604051908101604052809291908181526020018280548015611ee057602002820191906000526020600020905b8160009054906101000a900473ffffffffffffffffffffffffffffffffffffffff1673ffffffffffffffffffffffffffffffffffffffff1681526020019060010190808311611e96575b5050505050935060006002819055505b60015460025410156120385783600254815181101515611f0c57fe5b906020019060200201519050600b6000896000191660001916815260200190815260200160002060008273ffffffffffffffffffffffffffffffffffffffff1673ffffffffffffffffffffffffffffffffffffffff1681526020019081526020016000206000015483600254815181101515611f8457fe5b9060200190602002018181525050600b6000896000191660001916815260200190815260200160002060008273ffffffffffffffffffffffffffffffffffffffff1673ffffffffffffffffffffffffffffffffffffffff16815260200190815260200160002060010160009054906101000a900460ff168260025481518110151561200b57fe5b9060200190602002019060ff16908160ff1681525050600260008154809291906001019190505550611ef0565b838383965096509650505050509193909250565b600080600e600084600019166000191681526020019081526020016000205414156120815761207a82611d22565b90506120a0565b600e600083600019166000191681526020019081526020016000205490505b919050565b6000600660008360001916600019168152602001908152602001600020600201549050919050565b60608060606000600860008673ffffffffffffffffffffffffffffffffffffffff1673ffffffffffffffffffffffffffffffffffffffff1681526020019081526020016000208054905060018190555060015460405190808252806020026020018201604052801561214e5781602001602082028038833980820191505090505b5092506001546040519080825280602002602001820160405280156121825781602001602082028038833980820191505090505b509150600860008673ffffffffffffffffffffffffffffffffffffffff1673ffffffffffffffffffffffffffffffffffffffff16815260200190815260200160002080548060200260200160405190810160405280929190818152602001828054801561221257602002820191906000526020600020905b815460001916815260200190600101908083116121fa575b5050505050925060006002819055505b60015460025410156122b9578260025481518110151561223e57fe5b906020019060200201519050600f6000826000191660001916815260200190815260200160002060009054906101000a900460ff16156122a257808260025481518110151561228957fe5b9060200190602002019060001916908160001916815250505b600260008154809291906001019190505550612222565b819350505050919050565b6000600460009054906101000a900473ffffffffffffffffffffffffffffffffffffffff1673ffffffffffffffffffffffffffffffffffffffff163373ffffffffffffffffffffffffffffffffffffffff161415612512578160076000826000191660001916815260200190815260200160002054421015156125105760066000846000191660001916815260200190815260200160002091508160000154826002015414156124b65760001515600a6000856000191660001916815260200190815260200160002060009054906101000a9050505042601060008560001916600019168152602001908152602001600020819055506123c38361256c565b6001600f6000856000191660001916815260200190815260200160002060006101000a81548160ff0219169083151502179055507fca7dda9f30e83b1017ab663d6725df4277f3c589212935d66d45cd9853076ed360096000856000191660001916815260200190815260200160002060009054906101000a900473ffffffffffffffffffffffffffffffffffffffff16848460000154604051808473ffffffffffffffffffffffffffffffffffffffff1673ffffffffffffffffffffffffffffffffffffffff1681526020018360001916600019168152602001828152602001935050505060405180910390a161250f565b60001515600a6000856000191660001916815260200190815260200160002060009054906101000a9050505060001515600f6000856000191660001916815260200190815260200160002060009054906101000a905050505b5b505b5050565b600080600084141561252b576000915061254a565b828402905082848281151561253c57fe5b0414151561254657fe5b8091505b5092915050565b600080828481151561255f57fe5b0490508091505092915050565b600061257782611d22565b90506000600e600084600019166000191681526020019081526020016000205414156125c6576003548101600e6000846000191660001916815260200190815260200160002081905550612606565b600354600e600084600019166000191681526020019081526020016000205401600e60008460001916600019168152602001908152602001600020819055505b5050565b600060066000836000191660001916815260200190815260200160002060030160009054906101000a900460ff169050919050565b60006126676126618561265c6126558888612516565b6064612551565b612670565b83612551565b90509392505050565b600080828401905083811015151561268457fe5b8091505092915050565b604080519081016040528060008152602001600060ff1681525090565b6020604051908101604052806000801916815250905600a165627a7a72305820988e6e7d17fb9f8b3fc2996e002aa88576e95d1c601c00c35b971edc18197d860029",
  "source": "pragma solidity ^0.4.19;\r\n\r\nimport \"./SafeMath.sol\";\r\nimport \"./EMICalculator.sol\";\r\nimport \"./CollectFund.sol\";\r\n\r\ncontract PayInstallments is CollectFund {\r\n    \r\n    uint256 i = 0;\r\n    uint256 lateInstallmentFee;\r\n\r\n    struct Installment {\r\n        uint256 installmentAmount;\r\n        uint8 remainingTenure;\r\n    }\r\n\r\n    mapping (bytes32 => Installment ) mapInstallmentsWithProposal;\r\n\r\n    event InstallmentTransfer(bytes32 _proposalID, uint256 _amount, address _from, address _to );\r\n\r\n    modifier checkInstallmentTenure(bytes32 _proposalID) {\r\n        if ( mapInstallmentsWithProposal[_proposalID].remainingTenure > 0) \r\n        _;\r\n    }   \r\n\r\n    function setLateInstallmentFee (uint256 _amount) onlyAdmin {\r\n        lateInstallmentFee = _amount;\r\n    }\r\n    \r\n    function calculateInstallment (bytes32 _proposalID) returns (uint256 _installmentAmount) {\r\n        BorrowerProposal storage currentProposal = mapProposalsWithProposalIDs[_proposalID];\r\n        uint256 installmentAmount = EMICalculator.calculateInstallment(currentProposal.fundingGoal, currentProposal.interestRate, currentProposal.tenureInMonths);\r\n        mapInstallmentsWithProposal[_proposalID] = Installment(installmentAmount, currentProposal.tenureInMonths);\r\n        return mapInstallmentsWithProposal[_proposalID].installmentAmount;\r\n    }\r\n\r\n    function getDueInstallment(bytes32 _proposalID) view returns (uint256 _installment, uint256 _nextDueDate, uint8 _remainingTenure) { \r\n        if (getDaysRemainingInInstallmentDue(_proposalID) > 0) {\r\n            return (mapInstallmentsWithProposal[_proposalID].installmentAmount,getProposalDueDate(_proposalID),getProposalTenure(_proposalID)) ;\r\n        }\r\n        else {\r\n            return ((mapInstallmentsWithProposal[_proposalID].installmentAmount + lateInstallmentFee),getProposalDueDate(_proposalID),getProposalTenure(_proposalID));\r\n        }\r\n    }\r\n\r\n    function payInstallment(bytes32 _proposalID) payable checkProposalOwner(_proposalID) checkInstallmentTenure(_proposalID) proposalGoalReached(_proposalID) {\r\n        Installment storage currentInstallment = mapInstallmentsWithProposal[_proposalID];\r\n        LenderInfo storage currentLenderInfo;\r\n        uint256 getCurrentInstallment;\r\n        (getCurrentInstallment,,) = getDueInstallment(_proposalID);\r\n        if (msg.value == getCurrentInstallment) {\r\n            for (i = 0; i < mapLendersWithProposal[_proposalID].length ; i++) {\r\n            address currentLender = mapLendersWithProposal[_proposalID][i];\r\n            currentLenderInfo = mapProposalWithLenderInfo[_proposalID][currentLender];\r\n            uint256 amount = SafeMath.div((SafeMath.mul(currentInstallment.installmentAmount, currentLenderInfo.fundRatio)), 100);\r\n            if (currentLender.send(amount)) {\r\n                InstallmentTransfer(_proposalID, amount, mapProposalWithOwner[_proposalID], currentLender);\r\n                setNextDueDate(_proposalID);\r\n                if (currentInstallment.remainingTenure == 0){\r\n                    currentInstallment.remainingTenure = getProposalTenure(_proposalID) - 1;\r\n                }\r\n                else {\r\n                    currentInstallment.remainingTenure -= 1;\r\n                }\r\n               }\r\n            }\r\n        }\r\n    }\r\n\r\n}",
  "sourcePath": "D:\\work\\P2P-Lending\\WithSafeMath\\contracts\\PayInstallments.sol",
  "compiler": {
    "name": "solc",
    "version": "0.4.23+commit.124ca40d.Emscripten.clang"
  },
  "schemaVersion": "2.0.0",
  "updatedAt": "2018-05-14T06:00:33.636Z"
}