{
  "contractName": "PayInstallments",
  "abi": [
    {
      "constant": true,
      "inputs": [
        {
          "name": "_proposalID",
          "type": "string"
        }
      ],
      "name": "checkProposalFunding",
      "outputs": [
        {
          "name": "",
          "type": "uint256"
        }
      ],
      "payable": false,
      "stateMutability": "view",
      "type": "function"
    },
    {
      "constant": true,
      "inputs": [
        {
          "name": "_proposalID",
          "type": "string"
        }
      ],
      "name": "getLenderDetails",
      "outputs": [
        {
          "name": "",
          "type": "uint256"
        },
        {
          "name": "",
          "type": "uint8"
        }
      ],
      "payable": false,
      "stateMutability": "view",
      "type": "function"
    },
    {
      "constant": true,
      "inputs": [
        {
          "name": "_proposalID",
          "type": "string"
        }
      ],
      "name": "getProposalLenders",
      "outputs": [
        {
          "name": "",
          "type": "address[]"
        }
      ],
      "payable": false,
      "stateMutability": "view",
      "type": "function"
    },
    {
      "constant": false,
      "inputs": [
        {
          "name": "_proposalID",
          "type": "string"
        },
        {
          "name": "_fundingGoal",
          "type": "uint256"
        },
        {
          "name": "_interestRate",
          "type": "uint8"
        },
        {
          "name": "_tenureInMonths",
          "type": "uint8"
        }
      ],
      "name": "submitProposal",
      "outputs": [],
      "payable": false,
      "stateMutability": "nonpayable",
      "type": "function"
    },
    {
      "constant": true,
      "inputs": [],
      "name": "getLenderProposals",
      "outputs": [
        {
          "name": "",
          "type": "bytes32[]"
        }
      ],
      "payable": false,
      "stateMutability": "view",
      "type": "function"
    },
    {
      "constant": true,
      "inputs": [
        {
          "name": "_proposalID",
          "type": "string"
        }
      ],
      "name": "getProposalExpiration",
      "outputs": [
        {
          "name": "",
          "type": "uint256"
        }
      ],
      "payable": false,
      "stateMutability": "view",
      "type": "function"
    },
    {
      "constant": false,
      "inputs": [
        {
          "name": "_proposalID",
          "type": "string"
        }
      ],
      "name": "reachedGoal",
      "outputs": [],
      "payable": false,
      "stateMutability": "nonpayable",
      "type": "function"
    },
    {
      "constant": false,
      "inputs": [
        {
          "name": "_proposalID",
          "type": "string"
        }
      ],
      "name": "getMoneyAsBorrowerAfterDeadline",
      "outputs": [],
      "payable": true,
      "stateMutability": "payable",
      "type": "function"
    },
    {
      "constant": false,
      "inputs": [
        {
          "name": "_proposalID",
          "type": "string"
        },
        {
          "name": "_proposalId",
          "type": "bytes32"
        }
      ],
      "name": "lendMoneyToProposal",
      "outputs": [],
      "payable": true,
      "stateMutability": "payable",
      "type": "function"
    },
    {
      "anonymous": false,
      "inputs": [
        {
          "indexed": false,
          "name": "_proposalID",
          "type": "string"
        },
        {
          "indexed": false,
          "name": "_amount",
          "type": "uint256"
        },
        {
          "indexed": false,
          "name": "_from",
          "type": "address"
        },
        {
          "indexed": false,
          "name": "_to",
          "type": "address"
        }
      ],
      "name": "InstallmentTransfer",
      "type": "event"
    },
    {
      "anonymous": false,
      "inputs": [
        {
          "indexed": false,
          "name": "_from",
          "type": "address"
        },
        {
          "indexed": false,
          "name": "_value",
          "type": "uint256"
        }
      ],
      "name": "EtherTransfer",
      "type": "event"
    },
    {
      "anonymous": false,
      "inputs": [
        {
          "indexed": false,
          "name": "_proposalOwner",
          "type": "address"
        },
        {
          "indexed": false,
          "name": "_proposalID",
          "type": "string"
        },
        {
          "indexed": false,
          "name": "_fundingGoal",
          "type": "uint256"
        }
      ],
      "name": "GoalReached",
      "type": "event"
    },
    {
      "anonymous": false,
      "inputs": [
        {
          "indexed": false,
          "name": "_proposalOwner",
          "type": "address"
        },
        {
          "indexed": false,
          "name": "_proposalID",
          "type": "string"
        },
        {
          "indexed": false,
          "name": "_amount",
          "type": "uint256"
        }
      ],
      "name": "GetFundAfterGoalReached",
      "type": "event"
    },
    {
      "anonymous": false,
      "inputs": [
        {
          "indexed": false,
          "name": "_lender",
          "type": "address"
        },
        {
          "indexed": false,
          "name": "_proposalID",
          "type": "string"
        },
        {
          "indexed": false,
          "name": "_amount",
          "type": "uint256"
        }
      ],
      "name": "WithdrawFundWhenGoalNotReached",
      "type": "event"
    },
    {
      "constant": false,
      "inputs": [
        {
          "name": "_proposalID",
          "type": "string"
        }
      ],
      "name": "calculateInstallment",
      "outputs": [
        {
          "name": "_installmentAmount",
          "type": "uint256"
        },
        {
          "name": "_tenure",
          "type": "uint8"
        }
      ],
      "payable": false,
      "stateMutability": "nonpayable",
      "type": "function"
    },
    {
      "constant": false,
      "inputs": [
        {
          "name": "_proposalID",
          "type": "string"
        }
      ],
      "name": "payInstallment",
      "outputs": [],
      "payable": true,
      "stateMutability": "payable",
      "type": "function"
    }
  ],
  "bytecode": "0x6080604052620151806000556000600c5533600160006101000a81548173ffffffffffffffffffffffffffffffffffffffff021916908373ffffffffffffffffffffffffffffffffffffffff160217905550611c50806100606000396000f3006080604052600436106100af576000357c0100000000000000000000000000000000000000000000000000000000900463ffffffff1680633c504ccc146100b45780636332053114610103578063686f1d741461015f5780638486d5b3146101e9578063879d8deb146102455780638d328e13146102d55780639071a888146103345780639c27cb3e146103a05780639e9584ec146103ef578063ab28856e1461042a578063c920d3e014610458575b600080fd5b3480156100c057600080fd5b506100ed600480360381019080803590602001908201803590602001919091929391929390505050610494565b6040518082815260200191505060405180910390f35b34801561010f57600080fd5b5061013c6004803603810190808035906020019082018035906020019190919293919293905050506104c7565b604051808381526020018260ff1660ff1681526020019250505060405180910390f35b34801561016b57600080fd5b506101c6600480360381019080803590602001908201803590602001908080601f01602080910402602001604051908101604052809392919081815260200183838082843782019150505050505091929192905050506105b4565b604051808381526020018260ff1660ff1681526020019250505060405180910390f35b610243600480360381019080803590602001908201803590602001908080601f0160208091040260200160405190810160405280939291908181526020018383808284378201915050505050509192919290505050610729565b005b34801561025157600080fd5b5061027e600480360381019080803590602001908201803590602001919091929391929390505050610cd8565b6040518080602001828103825283818151815260200191508051906020019060200280838360005b838110156102c15780820151818401526020810190506102a6565b505050509050019250505060405180910390f35b3480156102e157600080fd5b5061033260048036038101908080359060200190820180359060200191909192939192939080359060200190929190803560ff169060200190929190803560ff169060200190929190505050610d8c565b005b34801561034057600080fd5b50610349610f89565b6040518080602001828103825283818151815260200191508051906020019060200280838360005b8381101561038c578082015181840152602081019050610371565b505050509050019250505060405180910390f35b3480156103ac57600080fd5b506103d96004803603810190808035906020019082018035906020019190919293919293905050506110a1565b6040518082815260200191505060405180910390f35b3480156103fb57600080fd5b506104286004803603810190808035906020019082018035906020019190919293919293905050506110d1565b005b61045660048036038101908080359060200190820180359060200191909192939192939050505061131c565b005b61049260048036038101908080359060200190820180359060200191909192939192939080356000191690602001909291905050506115c1565b005b60006004838360405180838380828437820191505092505050908152602001604051809103902060020154905092915050565b60008060003390506009858560405180838380828437820191505092505050908152602001604051809103902060008273ffffffffffffffffffffffffffffffffffffffff1673ffffffffffffffffffffffffffffffffffffffff168152602001908152602001600020600001546009868660405180838380828437820191505092505050908152602001604051809103902060008373ffffffffffffffffffffffffffffffffffffffff1673ffffffffffffffffffffffffffffffffffffffff16815260200190815260200160002060010160009054906101000a900460ff1692509250509250929050565b6000806000806004856040518082805190602001908083835b6020831015156105f257805182526020820191506020810190506020830392506105cd565b6001836020036101000a0380198251168184511680821785525050505050509050019150509081526020016040518091039020915061065e82600001548360010160009054906101000a900460ff1660ff168460030160009054906101000a900460ff1660ff16611abd565b905060408051908101604052808281526020018360030160009054906101000a900460ff1660ff16815250600d866040518082805190602001908083835b6020831015156106c1578051825260208201915060208101905060208303925061069c565b6001836020036101000a03801982511681845116808217855250505050505090500191505090815260200160405180910390206000820151816000015560208201518160010160006101000a81548160ff021916908360ff1602179055509050505050915091565b600080600080846007816040518082805190602001908083835b6020831015156107685780518252602082019150602081019050602083039250610743565b6001836020036101000a038019825116818451168082178552505050505050905001915050908152602001604051809103902060009054906101000a900473ffffffffffffffffffffffffffffffffffffffff1673ffffffffffffffffffffffffffffffffffffffff163373ffffffffffffffffffffffffffffffffffffffff161415610cd057856000600d826040518082805190602001908083835b60208310151561082a5780518252602082019150602081019050602083039250610805565b6001836020036101000a038019825116818451168082178552505050505050905001915050908152602001604051809103902060010160009054906101000a900460ff1660ff161115610cce57600d876040518082805190602001908083835b6020831015156108af578051825260208201915060208101905060208303925061088a565b6001836020036101000a038019825116818451168082178552505050505050905001915050908152602001604051809103902095506000600c819055505b600a876040518082805190602001908083835b6020831015156109255780518252602082019150602081019050602083039250610900565b6001836020036101000a038019825116818451168082178552505050505050905001915050908152602001604051809103902080549050600c541015610ccd57600a876040518082805190602001908083835b60208310151561099d5780518252602082019150602081019050602083039250610978565b6001836020036101000a0380198251168184511680821785525050505050509050019150509081526020016040518091039020600c548154811015156109df57fe5b9060005260206000200160009054906101000a900473ffffffffffffffffffffffffffffffffffffffff1693506009876040518082805190602001908083835b602083101515610a445780518252602082019150602081019050602083039250610a1f565b6001836020036101000a038019825116818451168082178552505050505050905001915050908152602001604051809103902060008573ffffffffffffffffffffffffffffffffffffffff1673ffffffffffffffffffffffffffffffffffffffff1681526020019081526020016000209450610ae2610adb87600001548760010160009054906101000a900460ff1660ff16611aee565b6064611b29565b92508373ffffffffffffffffffffffffffffffffffffffff166108fc849081150290604051600060405180830381858888f1935050505015610cb6577f9037608712293d85628cc7c70ba49b86d9c25a7dde0bd7c4e08f82cfbd610295878460078a6040518082805190602001908083835b602083101515610b795780518252602082019150602081019050602083039250610b54565b6001836020036101000a038019825116818451168082178552505050505050905001915050908152602001604051809103902060009054906101000a900473ffffffffffffffffffffffffffffffffffffffff168760405180806020018581526020018473ffffffffffffffffffffffffffffffffffffffff1673ffffffffffffffffffffffffffffffffffffffff1681526020018373ffffffffffffffffffffffffffffffffffffffff1673ffffffffffffffffffffffffffffffffffffffff168152602001828103825286818151815260200191508051906020019080838360005b83811015610c78578082015181840152602081019050610c5d565b50505050905090810190601f168015610ca55780820380516001836020036101000a031916815260200191505b509550505050505060405180910390a15b600c600081548092919060010191905055506108ed565b5b505b505050505050565b6060600a8383604051808383808284378201915050925050509081526020016040518091039020805480602002602001604051908101604052809291908181526020018280548015610d7f57602002820191906000526020600020905b8160009054906101000a900473ffffffffffffffffffffffffffffffffffffffff1673ffffffffffffffffffffffffffffffffffffffff1681526020019060010190808311610d35575b5050505050905092915050565b6080604051908101604052808481526020018360ff168152602001600081526020018260ff16815250600486866040518083838082843782019150509250505090815260200160405180910390206000820151816000015560208201518160010160006101000a81548160ff021916908360ff1602179055506040820151816002015560608201518160030160006101000a81548160ff021916908360ff160217905550905050600660003373ffffffffffffffffffffffffffffffffffffffff1673ffffffffffffffffffffffffffffffffffffffff168152602001908152602001600020858590918060018154018082558091505090600182039060005260206000200160009091929390919293909192909192509190610eb0929190611b62565b505060005442016005868660405180838380828437820191505092505050908152602001604051809103902081905550336007868660405180838380828437820191505092505050908152602001604051809103902060006101000a81548173ffffffffffffffffffffffffffffffffffffffff021916908373ffffffffffffffffffffffffffffffffffffffff16021790555060016008868660405180838380828437820191505092505050908152602001604051809103902060006101000a81548160ff0219169083151502179055505050505050565b606080600b60003373ffffffffffffffffffffffffffffffffffffffff1673ffffffffffffffffffffffffffffffffffffffff168152602001908152602001600020600001805490506040519080825280602002602001820160405280156110005781602001602082028038833980820191505090505b509050600b60003373ffffffffffffffffffffffffffffffffffffffff1673ffffffffffffffffffffffffffffffffffffffff16815260200190815260200160002060000180548060200260200160405190810160405280929190818152602001828054801561109357602002820191906000526020600020905b8154600019168152602001906001019080831161107b575b505050505090508091505090565b60006005838360405180838380828437820191505092505050908152602001604051809103902054905092915050565b600082828080601f0160208091040260200160405190810160405280939291908181526020018383808284378201915050505050506005816040518082805190602001908083835b60208310151561113e5780518252602082019150602081019050602083039250611119565b6001836020036101000a0380198251168184511680821785525050505050509050019150509081526020016040518091039020544211151561131657600160009054906101000a900473ffffffffffffffffffffffffffffffffffffffff1673ffffffffffffffffffffffffffffffffffffffff163373ffffffffffffffffffffffffffffffffffffffff1614156113155760048484604051808383808284378201915050925050509081526020016040518091039020915081600001548260020154141561131457600015156008858560405180838380828437820191505092505050908152602001604051809103902060009054906101000a905050507f0919547352c3feb5516e059a7a2c5bf9739f61eb5c02673dbb990c9d71147c7e6007858560405180838380828437820191505092505050908152602001604051809103902060009054906101000a900473ffffffffffffffffffffffffffffffffffffffff1685858560000154604051808573ffffffffffffffffffffffffffffffffffffffff1673ffffffffffffffffffffffffffffffffffffffff16815260200180602001838152602001828103825285858281815260200192508082843782019150509550505050505060405180910390a15b5b5b50505050565b60008083838080601f0160208091040260200160405190810160405280939291908181526020018383808284378201915050505050506005816040518082805190602001908083835b60208310151561138a5780518252602082019150602081019050602083039250611365565b6001836020036101000a038019825116818451168082178552505050505050905001915050908152602001604051809103902054421015156115ba5784848080601f0160208091040260200160405190810160405280939291908181526020018383808284378201915050505050506008816040518082805190602001908083835b602083101515611431578051825260208201915060208101905060208303925061140c565b6001836020036101000a038019825116818451168082178552505050505050905001915050908152602001604051809103902060009054906101000a900460ff1615156115b8576007868660405180838380828437820191505092505050908152602001604051809103902060009054906101000a900473ffffffffffffffffffffffffffffffffffffffff1693506004868660405180838380828437820191505092505050908152602001604051809103902092508373ffffffffffffffffffffffffffffffffffffffff166108fc84600001549081150290604051600060405180830381858888f19350505050156115b7577fd169e4413209130c0ad529abc8385aedc3f0be5237db60476597303dad223ef28487878660000154604051808573ffffffffffffffffffffffffffffffffffffffff1673ffffffffffffffffffffffffffffffffffffffff16815260200180602001838152602001828103825285858281815260200192508082843782019150509550505050505060405180910390a15b5b505b5050505050565b60006115cb611be2565b84848080601f016020809104026020016040519081016040528093929190818152602001838380828437820191505050505050346004826040518082805190602001908083835b6020831015156116375780518252602082019150602081019050602083039250611612565b6001836020036101000a0380198251168184511680821785525050505050509050019150509081526020016040518091039020600201546004836040518082805190602001908083835b6020831015156116a65780518252602082019150602081019050602083039250611681565b6001836020036101000a0380198251168184511680821785525050505050509050019150509081526020016040518091039020600001540381111515611ab45786868080601f0160208091040260200160405190810160405280939291908181526020018383808284378201915050505050506005816040518082805190602001908083835b602083101515611751578051825260208201915060208101905060208303925061172c565b6001836020036101000a03801982511681845116808217855250505050505090500191505090815260200160405180910390205442111515611ab25787878080601f0160208091040260200160405190810160405280939291908181526020018383808284378201915050505050506008816040518082805190602001908083835b6020831015156117f857805182526020820191506020810190506020830392506117d3565b6001836020036101000a038019825116818451168082178552505050505050905001915050908152602001604051809103902060009054906101000a900460ff1615611ab0576000341115611aaf5760048989604051808383808284378201915050925050509081526020016040518091039020955061187c866002015434611b44565b8660020181905550348560000181815250506118a661189c346064611aee565b8760000154611b29565b856020019060ff16908160ff16815250508460098a8a60405180838380828437820191505092505050908152602001604051809103902060003373ffffffffffffffffffffffffffffffffffffffff1673ffffffffffffffffffffffffffffffffffffffff1681526020019081526020016000206000820151816000015560208201518160010160006101000a81548160ff021916908360ff160217905550905050600a89896040518083838082843782019150509250505090815260200160405180910390203390806001815401808255809150509060018203906000526020600020016000909192909190916101000a81548173ffffffffffffffffffffffffffffffffffffffff021916908373ffffffffffffffffffffffffffffffffffffffff16021790555050600b60003373ffffffffffffffffffffffffffffffffffffffff1673ffffffffffffffffffffffffffffffffffffffff1681526020019081526020016000206000018790806001815401808255809150509060018203906000526020600020016000909192909190915090600019169055507f1853ca9dc0208799379313b2b43364e45db022f073c72648fbc206dc0bacbcdc3334604051808373ffffffffffffffffffffffffffffffffffffffff1673ffffffffffffffffffffffffffffffffffffffff1681526020018281526020019250505060405180910390a15b5b505b505b50505050505050565b6000611ae5611adf85611ada611ad38888611aee565b6064611b29565b611b44565b83611b29565b90509392505050565b6000806000841415611b035760009150611b22565b8284029050828482811515611b1457fe5b04141515611b1e57fe5b8091505b5092915050565b6000808284811515611b3757fe5b0490508091505092915050565b6000808284019050838110151515611b5857fe5b8091505092915050565b828054600181600116156101000203166002900490600052602060002090601f016020900481019282601f10611ba357803560ff1916838001178555611bd1565b82800160010185558215611bd1579182015b82811115611bd0578235825591602001919060010190611bb5565b5b509050611bde9190611bff565b5090565b604080519081016040528060008152602001600060ff1681525090565b611c2191905b80821115611c1d576000816000905550600101611c05565b5090565b905600a165627a7a72305820a31109c9cb9c5985cb41939a169d0aa9bead63f8de92513844fba5870088a5210029",
  "source": "pragma solidity ^0.4.19;\r\n\r\nimport \"./SafeMath.sol\";\r\nimport \"./EMICalculator.sol\";\r\nimport \"./CollectFund.sol\";\r\n\r\ncontract PayInstallments is CollectFund {\r\n\r\n    uint i = 0;\r\n    struct Installment {\r\n        uint256 installmentAmount;\r\n        uint8 remainingTenure;\r\n    }\r\n\r\n    mapping (string => Installment ) mapInstallmentsWithProposal;\r\n\r\n    event InstallmentTransfer(string _proposalID, uint256 _amount, address _from, address _to );\r\n\r\n    modifier checkInstallmentTenure(string _proposalID) {\r\n        if ( mapInstallmentsWithProposal[_proposalID].remainingTenure > 0) \r\n        _;\r\n    } \r\n    \r\n    function calculateInstallment (string _proposalID) returns (uint256 _installmentAmount, uint8 _tenure) {\r\n        BorrowerProposal storage currentProposal = mapProposalsWithProposalIDs[_proposalID];\r\n        uint256 installmentAmount = EMICalculator.calculateInstallment(currentProposal.fundingGoal, currentProposal.interestRate, currentProposal.tenureInMonths);\r\n        mapInstallmentsWithProposal[_proposalID] = Installment(installmentAmount, currentProposal.tenureInMonths);\r\n    }\r\n\r\n    function payInstallment(string _proposalID) payable checkProposalOwner(_proposalID) checkInstallmentTenure(_proposalID) {\r\n        Installment storage currentInstallment = mapInstallmentsWithProposal[_proposalID];\r\n        LenderInfo storage currentLenderInfo;\r\n\r\n        for (i = 0; i < mapLendersWithProposal[_proposalID].length ; i++) {\r\n            address currentLender = mapLendersWithProposal[_proposalID][i];\r\n            currentLenderInfo = mapProposalWithLenderInfo[_proposalID][currentLender];\r\n            uint256 amount = SafeMath.div((SafeMath.mul(currentInstallment.installmentAmount, currentLenderInfo.fundRatio)), 100);\r\n            if (currentLender.send(amount)) {\r\n                InstallmentTransfer(_proposalID, amount, mapProposalWithOwner[_proposalID], currentLender);\r\n            }\r\n        }\r\n\r\n    }\r\n\r\n}",
  "sourcePath": "D:\\work\\P2P-Lending\\WithSafeMath\\contracts\\PayInstallments.sol",
  "compiler": {
    "name": "solc",
    "version": "0.4.23+commit.124ca40d.Emscripten.clang"
  },
  "schemaVersion": "2.0.0",
  "updatedAt": "2018-05-04T10:54:23.926Z"
}