{
  "contractName": "PayInstallments",
  "abi": [
    {
      "constant": true,
      "inputs": [
        {
          "name": "_proposalID",
          "type": "string"
        }
      ],
      "name": "checkProposalFunding",
      "outputs": [
        {
          "name": "",
          "type": "uint256"
        }
      ],
      "payable": false,
      "stateMutability": "view",
      "type": "function"
    },
    {
      "constant": true,
      "inputs": [
        {
          "name": "_proposalID",
          "type": "string"
        }
      ],
      "name": "getInstallmentStartTS",
      "outputs": [
        {
          "name": "",
          "type": "uint256"
        }
      ],
      "payable": false,
      "stateMutability": "view",
      "type": "function"
    },
    {
      "constant": true,
      "inputs": [
        {
          "name": "_proposalID",
          "type": "string"
        }
      ],
      "name": "getProposalLenders",
      "outputs": [
        {
          "name": "",
          "type": "address[]"
        }
      ],
      "payable": false,
      "stateMutability": "view",
      "type": "function"
    },
    {
      "constant": false,
      "inputs": [
        {
          "name": "_proposalID",
          "type": "string"
        },
        {
          "name": "_fundingGoal",
          "type": "uint256"
        },
        {
          "name": "_interestRate",
          "type": "uint8"
        },
        {
          "name": "_tenureInMonths",
          "type": "uint8"
        }
      ],
      "name": "submitProposal",
      "outputs": [],
      "payable": false,
      "stateMutability": "nonpayable",
      "type": "function"
    },
    {
      "constant": true,
      "inputs": [],
      "name": "getLenderProposals",
      "outputs": [
        {
          "name": "",
          "type": "bytes32[]"
        }
      ],
      "payable": false,
      "stateMutability": "view",
      "type": "function"
    },
    {
      "constant": true,
      "inputs": [
        {
          "name": "_proposalID",
          "type": "string"
        }
      ],
      "name": "getProposalExpiration",
      "outputs": [
        {
          "name": "",
          "type": "uint256"
        }
      ],
      "payable": false,
      "stateMutability": "view",
      "type": "function"
    },
    {
      "constant": false,
      "inputs": [
        {
          "name": "_proposalID",
          "type": "string"
        }
      ],
      "name": "reachedGoal",
      "outputs": [],
      "payable": false,
      "stateMutability": "nonpayable",
      "type": "function"
    },
    {
      "constant": false,
      "inputs": [
        {
          "name": "_proposalID",
          "type": "string"
        }
      ],
      "name": "getMoneyAsBorrowerAfterDeadline",
      "outputs": [],
      "payable": true,
      "stateMutability": "payable",
      "type": "function"
    },
    {
      "constant": false,
      "inputs": [
        {
          "name": "_proposalID",
          "type": "string"
        },
        {
          "name": "_proposalId",
          "type": "bytes32"
        }
      ],
      "name": "lendMoneyToProposal",
      "outputs": [],
      "payable": true,
      "stateMutability": "payable",
      "type": "function"
    },
    {
      "constant": true,
      "inputs": [
        {
          "name": "_proposalID",
          "type": "string"
        }
      ],
      "name": "getDaysRemainingInInstallmentDue",
      "outputs": [
        {
          "name": "",
          "type": "uint256"
        }
      ],
      "payable": false,
      "stateMutability": "view",
      "type": "function"
    },
    {
      "constant": true,
      "inputs": [
        {
          "name": "_proposalID",
          "type": "string"
        },
        {
          "name": "_lender",
          "type": "address"
        }
      ],
      "name": "getLenderDetails",
      "outputs": [
        {
          "name": "",
          "type": "uint256"
        },
        {
          "name": "",
          "type": "uint8"
        }
      ],
      "payable": false,
      "stateMutability": "view",
      "type": "function"
    },
    {
      "constant": true,
      "inputs": [
        {
          "name": "_proposalID",
          "type": "string"
        }
      ],
      "name": "getProposalDueDate",
      "outputs": [
        {
          "name": "",
          "type": "uint256"
        }
      ],
      "payable": false,
      "stateMutability": "view",
      "type": "function"
    },
    {
      "constant": true,
      "inputs": [
        {
          "name": "_proposalID",
          "type": "string"
        }
      ],
      "name": "getProposalStartTS",
      "outputs": [
        {
          "name": "",
          "type": "uint256"
        }
      ],
      "payable": false,
      "stateMutability": "view",
      "type": "function"
    },
    {
      "anonymous": false,
      "inputs": [
        {
          "indexed": false,
          "name": "_proposalID",
          "type": "string"
        },
        {
          "indexed": false,
          "name": "_amount",
          "type": "uint256"
        },
        {
          "indexed": false,
          "name": "_from",
          "type": "address"
        },
        {
          "indexed": false,
          "name": "_to",
          "type": "address"
        }
      ],
      "name": "InstallmentTransfer",
      "type": "event"
    },
    {
      "anonymous": false,
      "inputs": [
        {
          "indexed": false,
          "name": "_from",
          "type": "address"
        },
        {
          "indexed": false,
          "name": "_value",
          "type": "uint256"
        }
      ],
      "name": "EtherTransfer",
      "type": "event"
    },
    {
      "anonymous": false,
      "inputs": [
        {
          "indexed": false,
          "name": "_proposalOwner",
          "type": "address"
        },
        {
          "indexed": false,
          "name": "_proposalID",
          "type": "string"
        },
        {
          "indexed": false,
          "name": "_fundingGoal",
          "type": "uint256"
        }
      ],
      "name": "GoalReached",
      "type": "event"
    },
    {
      "anonymous": false,
      "inputs": [
        {
          "indexed": false,
          "name": "_proposalOwner",
          "type": "address"
        },
        {
          "indexed": false,
          "name": "_proposalID",
          "type": "string"
        },
        {
          "indexed": false,
          "name": "_amount",
          "type": "uint256"
        }
      ],
      "name": "GetFundAfterGoalReached",
      "type": "event"
    },
    {
      "anonymous": false,
      "inputs": [
        {
          "indexed": false,
          "name": "_lender",
          "type": "address"
        },
        {
          "indexed": false,
          "name": "_proposalID",
          "type": "string"
        },
        {
          "indexed": false,
          "name": "_amount",
          "type": "uint256"
        }
      ],
      "name": "WithdrawFundWhenGoalNotReached",
      "type": "event"
    },
    {
      "constant": false,
      "inputs": [
        {
          "name": "_amount",
          "type": "uint256"
        }
      ],
      "name": "setLateInstallmentFee",
      "outputs": [],
      "payable": false,
      "stateMutability": "nonpayable",
      "type": "function"
    },
    {
      "constant": false,
      "inputs": [
        {
          "name": "_proposalID",
          "type": "string"
        }
      ],
      "name": "calculateInstallment",
      "outputs": [
        {
          "name": "_installmentAmount",
          "type": "uint256"
        }
      ],
      "payable": false,
      "stateMutability": "nonpayable",
      "type": "function"
    },
    {
      "constant": true,
      "inputs": [
        {
          "name": "_proposalID",
          "type": "string"
        }
      ],
      "name": "getDueInstallment",
      "outputs": [
        {
          "name": "_installment",
          "type": "uint256"
        }
      ],
      "payable": false,
      "stateMutability": "view",
      "type": "function"
    },
    {
      "constant": false,
      "inputs": [
        {
          "name": "_proposalID",
          "type": "string"
        }
      ],
      "name": "payInstallment",
      "outputs": [],
      "payable": true,
      "stateMutability": "payable",
      "type": "function"
    }
  ],
  "bytecode": "0x60806040526201518060005562278d006003556000600e5533600460006101000a81548173ffffffffffffffffffffffffffffffffffffffff021916908373ffffffffffffffffffffffffffffffffffffffff160217905550612682806100676000396000f3006080604052600436106100f1576000357c0100000000000000000000000000000000000000000000000000000000900463ffffffff168063239e81cf146100f65780633c504ccc14610173578063414c1efc146101c2578063686f1d74146101ef5780636bbe7f821461026c5780638486d5b3146102e9578063879d8deb146103455780638d328e13146103d55780639071a888146104345780639c27cb3e146104a05780639e9584ec146104ef578063ab28856e1461052a578063c920d3e014610558578063d0da551214610594578063e6ee6d7c14610611578063e7d3a5441461068d578063f38e22f11461070a575b600080fd5b34801561010257600080fd5b5061015d600480360381019080803590602001908201803590602001908080601f0160208091040260200160405190810160405280939291908181526020018383808284378201915050505050509192919290505050610759565b6040518082815260200191505060405180910390f35b34801561017f57600080fd5b506101ac60048036038101908080359060200190820180359060200191909192939192939050505061085c565b6040518082815260200191505060405180910390f35b3480156101ce57600080fd5b506101ed6004803603810190808035906020019092919050505061088f565b005b3480156101fb57600080fd5b50610256600480360381019080803590602001908201803590602001908080601f01602080910402602001604051908101604052809392919081815260200183838082843782019150505050505091929192905050506108f0565b6040518082815260200191505060405180910390f35b34801561027857600080fd5b506102d3600480360381019080803590602001908201803590602001908080601f0160208091040260200160405190810160405280939291908181526020018383808284378201915050505050509192919290505050610ad5565b6040518082815260200191505060405180910390f35b610343600480360381019080803590602001908201803590602001908080601f0160208091040260200160405190810160405280939291908181526020018383808284378201915050505050509192919290505050610bcf565b005b34801561035157600080fd5b5061037e600480360381019080803590602001908201803590602001919091929391929390505050611198565b6040518080602001828103825283818151815260200191508051906020019060200280838360005b838110156103c15780820151818401526020810190506103a6565b505050509050019250505060405180910390f35b3480156103e157600080fd5b5061043260048036038101908080359060200190820180359060200191909192939192939080359060200190929190803560ff169060200190929190803560ff16906020019092919050505061124c565b005b34801561044057600080fd5b5061044961145a565b6040518080602001828103825283818151815260200191508051906020019060200280838360005b8381101561048c578082015181840152602081019050610471565b505050509050019250505060405180910390f35b3480156104ac57600080fd5b506104d9600480360381019080803590602001908201803590602001919091929391929390505050611572565b6040518082815260200191505060405180910390f35b3480156104fb57600080fd5b506105286004803603810190808035906020019082018035906020019190919293919293905050506115a2565b005b61055660048036038101908080359060200190820180359060200191909192939192939050505061183a565b005b6105926004803603810190808035906020019082018035906020019190919293919293908035600019169060200190929190505050611bd3565b005b3480156105a057600080fd5b506105fb600480360381019080803590602001908201803590602001908080601f01602080910402602001604051908101604052809392919081815260200183838082843782019150505050505091929192905050506120cf565b6040518082815260200191505060405180910390f35b34801561061d57600080fd5b5061066a600480360381019080803590602001908201803590602001919091929391929390803573ffffffffffffffffffffffffffffffffffffffff1690602001909291905050506120fd565b604051808381526020018260ff1660ff1681526020019250505060405180910390f35b34801561069957600080fd5b506106f4600480360381019080803590602001908201803590602001908080601f01602080910402602001604051908101604052809392919081815260200183838082843782019150505050505091929192905050506121e5565b6040518082815260200191505060405180910390f35b34801561071657600080fd5b506107436004803603810190808035906020019082018035906020019190919293919293905050506122de565b6040518082815260200191505060405180910390f35b600080610765836120cf565b11156107e1576010826040518082805190602001908083835b6020831015156107a3578051825260208201915060208101905060208303925061077e565b6001836020036101000a0380198251168184511680821785525050505050509050019150509081526020016040518091039020600001549050610857565b600f546010836040518082805190602001908083835b60208310151561081c57805182526020820191506020810190506020830392506107f7565b6001836020036101000a0380198251168184511680821785525050505050509050019150509081526020016040518091039020600001540190505b919050565b60006005838360405180838380828437820191505092505050908152602001604051809103902060020154905092915050565b600460009054906101000a900473ffffffffffffffffffffffffffffffffffffffff1673ffffffffffffffffffffffffffffffffffffffff163373ffffffffffffffffffffffffffffffffffffffff1614156108ed5780600f819055505b50565b60008060006005846040518082805190602001908083835b60208310151561092d5780518252602082019150602081019050602083039250610908565b6001836020036101000a0380198251168184511680821785525050505050509050019150509081526020016040518091039020915061099982600001548360010160009054906101000a900460ff1660ff168460030160009054906101000a900460ff1660ff16612311565b905060408051908101604052808281526020018360030160009054906101000a900460ff1660ff168152506010856040518082805190602001908083835b6020831015156109fc57805182526020820191506020810190506020830392506109d7565b6001836020036101000a03801982511681845116808217855250505050505090500191505090815260200160405180910390206000820151816000015560208201518160010160006101000a81548160ff021916908360ff1602179055509050506010846040518082805190602001908083835b602083101515610a955780518252602082019150602081019050602083039250610a70565b6001836020036101000a03801982511681845116808217855250505050505090500191505090815260200160405180910390206000015492505050919050565b6000816009816040518082805190602001908083835b602083101515610b105780518252602082019150602081019050602083039250610aeb565b6001836020036101000a038019825116818451168082178552505050505050905001915050908152602001604051809103902060009054906101000a900460ff161515610bc9576005836040518082805190602001908083835b602083101515610b8f5780518252602082019150602081019050602083039250610b6a565b6001836020036101000a03801982511681845116808217855250505050505090500191505090815260200160405180910390206004015491505b50919050565b600080600080846008816040518082805190602001908083835b602083101515610c0e5780518252602082019150602081019050602083039250610be9565b6001836020036101000a038019825116818451168082178552505050505050905001915050908152602001604051809103902060009054906101000a900473ffffffffffffffffffffffffffffffffffffffff1673ffffffffffffffffffffffffffffffffffffffff163373ffffffffffffffffffffffffffffffffffffffff161415611190578560006010826040518082805190602001908083835b602083101515610cd05780518252602082019150602081019050602083039250610cab565b6001836020036101000a038019825116818451168082178552505050505050905001915050908152602001604051809103902060010160009054906101000a900460ff1660ff16111561118e576010876040518082805190602001908083835b602083101515610d555780518252602082019150602081019050602083039250610d30565b6001836020036101000a03801982511681845116808217855250505050505090500191505090815260200160405180910390209550610d9387610759565b34141561118d576000600e819055505b600b876040518082805190602001908083835b602083101515610ddb5780518252602082019150602081019050602083039250610db6565b6001836020036101000a038019825116818451168082178552505050505050905001915050908152602001604051809103902080549050600e54101561118c57600b876040518082805190602001908083835b602083101515610e535780518252602082019150602081019050602083039250610e2e565b6001836020036101000a0380198251168184511680821785525050505050509050019150509081526020016040518091039020600e54815481101515610e9557fe5b9060005260206000200160009054906101000a900473ffffffffffffffffffffffffffffffffffffffff169350600a876040518082805190602001908083835b602083101515610efa5780518252602082019150602081019050602083039250610ed5565b6001836020036101000a038019825116818451168082178552505050505050905001915050908152602001604051809103902060008573ffffffffffffffffffffffffffffffffffffffff1673ffffffffffffffffffffffffffffffffffffffff1681526020019081526020016000209450610f98610f9187600001548760010160009054906101000a900460ff1660ff16612342565b606461237d565b92508373ffffffffffffffffffffffffffffffffffffffff166108fc849081150290604051600060405180830381858888f1935050505015611175577f9037608712293d85628cc7c70ba49b86d9c25a7dde0bd7c4e08f82cfbd610295878460088a6040518082805190602001908083835b60208310151561102f578051825260208201915060208101905060208303925061100a565b6001836020036101000a038019825116818451168082178552505050505050905001915050908152602001604051809103902060009054906101000a900473ffffffffffffffffffffffffffffffffffffffff168760405180806020018581526020018473ffffffffffffffffffffffffffffffffffffffff1673ffffffffffffffffffffffffffffffffffffffff1681526020018373ffffffffffffffffffffffffffffffffffffffff1673ffffffffffffffffffffffffffffffffffffffff168152602001828103825286818151815260200191508051906020019080838360005b8381101561112e578082015181840152602081019050611113565b50505050905090810190601f16801561115b5780820380516001836020036101000a031916815260200191505b509550505050505060405180910390a161117487612398565b5b600e60008154809291906001019190505550610da3565b5b5b505b505050505050565b6060600b838360405180838380828437820191505092505050908152602001604051809103902080548060200260200160405190810160405280929190818152602001828054801561123f57602002820191906000526020600020905b8160009054906101000a900473ffffffffffffffffffffffffffffffffffffffff1673ffffffffffffffffffffffffffffffffffffffff16815260200190600101908083116111f5575b5050505050905092915050565b60a0604051908101604052808481526020018360ff168152602001600081526020018260ff1681526020016000815250600586866040518083838082843782019150509250505090815260200160405180910390206000820151816000015560208201518160010160006101000a81548160ff021916908360ff1602179055506040820151816002015560608201518160030160006101000a81548160ff021916908360ff16021790555060808201518160040155905050600760003373ffffffffffffffffffffffffffffffffffffffff1673ffffffffffffffffffffffffffffffffffffffff168152602001908152602001600020858590918060018154018082558091505090600182039060005260206000200160009091929390919293909192909192509190611381929190612594565b505060005442016006868660405180838380828437820191505092505050908152602001604051809103902081905550336008868660405180838380828437820191505092505050908152602001604051809103902060006101000a81548173ffffffffffffffffffffffffffffffffffffffff021916908373ffffffffffffffffffffffffffffffffffffffff16021790555060016009868660405180838380828437820191505092505050908152602001604051809103902060006101000a81548160ff0219169083151502179055505050505050565b606080600c60003373ffffffffffffffffffffffffffffffffffffffff1673ffffffffffffffffffffffffffffffffffffffff168152602001908152602001600020600001805490506040519080825280602002602001820160405280156114d15781602001602082028038833980820191505090505b509050600c60003373ffffffffffffffffffffffffffffffffffffffff1673ffffffffffffffffffffffffffffffffffffffff16815260200190815260200160002060000180548060200260200160405190810160405280929190818152602001828054801561156457602002820191906000526020600020905b8154600019168152602001906001019080831161154c575b505050505090508091505090565b60006006838360405180838380828437820191505092505050908152602001604051809103902054905092915050565b6000600460009054906101000a900473ffffffffffffffffffffffffffffffffffffffff1673ffffffffffffffffffffffffffffffffffffffff163373ffffffffffffffffffffffffffffffffffffffff1614156118355782828080601f0160208091040260200160405190810160405280939291908181526020018383808284378201915050505050506006816040518082805190602001908083835b6020831015156116655780518252602082019150602081019050602083039250611640565b6001836020036101000a038019825116818451168082178552505050505050905001915050908152602001604051809103902054421015156118335760058484604051808383808284378201915050925050509081526020016040518091039020915081600001548260020154141561182d57600015156009858560405180838380828437820191505092505050908152602001604051809103902060009054906101000a9050505042826004018190555061175284848080601f016020809104026020016040519081016040528093929190818152602001838380828437820191505050505050612398565b7f0919547352c3feb5516e059a7a2c5bf9739f61eb5c02673dbb990c9d71147c7e6008858560405180838380828437820191505092505050908152602001604051809103902060009054906101000a900473ffffffffffffffffffffffffffffffffffffffff1685858560000154604051808573ffffffffffffffffffffffffffffffffffffffff1673ffffffffffffffffffffffffffffffffffffffff16815260200180602001838152602001828103825285858281815260200192508082843782019150509550505050505060405180910390a1611832565b600080fd5b5b505b505050565b60008083838080601f0160208091040260200160405190810160405280939291908181526020018383808284378201915050505050506006816040518082805190602001908083835b6020831015156118a85780518252602082019150602081019050602083039250611883565b6001836020036101000a03801982511681845116808217855250505050505090500191505090815260200160405180910390205442101515611bcc5784848080601f0160208091040260200160405190810160405280939291908181526020018383808284378201915050505050506009816040518082805190602001908083835b60208310151561194f578051825260208201915060208101905060208303925061192a565b6001836020036101000a038019825116818451168082178552505050505050905001915050908152602001604051809103902060009054906101000a900460ff161515611bca5785858080601f0160208091040260200160405190810160405280939291908181526020018383808284378201915050505050506008816040518082805190602001908083835b602083101515611a0157805182526020820191506020810190506020830392506119dc565b6001836020036101000a038019825116818451168082178552505050505050905001915050908152602001604051809103902060009054906101000a900473ffffffffffffffffffffffffffffffffffffffff1673ffffffffffffffffffffffffffffffffffffffff163373ffffffffffffffffffffffffffffffffffffffff161415611bc8576008878760405180838380828437820191505092505050908152602001604051809103902060009054906101000a900473ffffffffffffffffffffffffffffffffffffffff1694506005878760405180838380828437820191505092505050908152602001604051809103902093508473ffffffffffffffffffffffffffffffffffffffff166108fc85600001549081150290604051600060405180830381858888f1935050505015611bc7577fd169e4413209130c0ad529abc8385aedc3f0be5237db60476597303dad223ef28588888760000154604051808573ffffffffffffffffffffffffffffffffffffffff1673ffffffffffffffffffffffffffffffffffffffff16815260200180602001838152602001828103825285858281815260200192508082843782019150509550505050505060405180910390a15b5b505b505b5050505050565b6000611bdd612614565b84848080601f016020809104026020016040519081016040528093929190818152602001838380828437820191505050505050346005826040518082805190602001908083835b602083101515611c495780518252602082019150602081019050602083039250611c24565b6001836020036101000a0380198251168184511680821785525050505050509050019150509081526020016040518091039020600201546005836040518082805190602001908083835b602083101515611cb85780518252602082019150602081019050602083039250611c93565b6001836020036101000a03801982511681845116808217855250505050505090500191505090815260200160405180910390206000015403811115156120c65786868080601f0160208091040260200160405190810160405280939291908181526020018383808284378201915050505050506006816040518082805190602001908083835b602083101515611d635780518252602082019150602081019050602083039250611d3e565b6001836020036101000a038019825116818451168082178552505050505050905001915050908152602001604051809103902054421115156120c45787878080601f0160208091040260200160405190810160405280939291908181526020018383808284378201915050505050506009816040518082805190602001908083835b602083101515611e0a5780518252602082019150602081019050602083039250611de5565b6001836020036101000a038019825116818451168082178552505050505050905001915050908152602001604051809103902060009054906101000a900460ff16156120c25760003411156120c157600589896040518083838082843782019150509250505090815260200160405180910390209550611e8e866002015434612576565b866002018190555034856000018181525050611eb8611eae346064612342565b876000015461237d565b856020019060ff16908160ff168152505084600a8a8a60405180838380828437820191505092505050908152602001604051809103902060003373ffffffffffffffffffffffffffffffffffffffff1673ffffffffffffffffffffffffffffffffffffffff1681526020019081526020016000206000820151816000015560208201518160010160006101000a81548160ff021916908360ff160217905550905050600b89896040518083838082843782019150509250505090815260200160405180910390203390806001815401808255809150509060018203906000526020600020016000909192909190916101000a81548173ffffffffffffffffffffffffffffffffffffffff021916908373ffffffffffffffffffffffffffffffffffffffff16021790555050600c60003373ffffffffffffffffffffffffffffffffffffffff1673ffffffffffffffffffffffffffffffffffffffff1681526020019081526020016000206000018790806001815401808255809150509060018203906000526020600020016000909192909190915090600019169055507f1853ca9dc0208799379313b2b43364e45db022f073c72648fbc206dc0bacbcdc3334604051808373ffffffffffffffffffffffffffffffffffffffff1673ffffffffffffffffffffffffffffffffffffffff1681526020018281526020019250505060405180910390a15b5b505b505b50505050505050565b6000426120db836121e5565b11156120f357426120eb836121e5565b0390506120f8565b600090505b919050565b600080600a858560405180838380828437820191505092505050908152602001604051809103902060008473ffffffffffffffffffffffffffffffffffffffff1673ffffffffffffffffffffffffffffffffffffffff16815260200190815260200160002060000154600a868660405180838380828437820191505092505050908152602001604051809103902060008573ffffffffffffffffffffffffffffffffffffffff1673ffffffffffffffffffffffffffffffffffffffff16815260200190815260200160002060010160009054906101000a900460ff1691509150935093915050565b600080600d836040518082805190602001908083835b60208310151561222057805182526020820191506020810190506020830392506121fb565b6001836020036101000a038019825116818451168082178552505050505050905001915050908152602001604051809103902054141561226a5761226382610ad5565b90506122d9565b600d826040518082805190602001908083835b6020831015156122a2578051825260208201915060208101905060208303925061227d565b6001836020036101000a03801982511681845116808217855250505050505090500191505090815260200160405180910390205490505b919050565b60006005838360405180838380828437820191505092505050908152602001604051809103902060040154905092915050565b60006123396123338561232e6123278888612342565b606461237d565b612576565b8361237d565b90509392505050565b60008060008414156123575760009150612376565b828402905082848281151561236857fe5b0414151561237257fe5b8091505b5092915050565b600080828481151561238b57fe5b0490508091505092915050565b60006123a382610ad5565b90506000600d836040518082805190602001908083835b6020831015156123df57805182526020820191506020810190506020830392506123ba565b6001836020036101000a0380198251168184511680821785525050505050509050019150509081526020016040518091039020541415612492576003548101600d836040518082805190602001908083835b6020831015156124565780518252602082019150602081019050602083039250612431565b6001836020036101000a038019825116818451168082178552505050505050905001915050908152602001604051809103902081905550612572565b600354600d836040518082805190602001908083835b6020831015156124cd57805182526020820191506020810190506020830392506124a8565b6001836020036101000a03801982511681845116808217855250505050505090500191505090815260200160405180910390205401600d836040518082805190602001908083835b60208310151561253a5780518252602082019150602081019050602083039250612515565b6001836020036101000a0380198251168184511680821785525050505050509050019150509081526020016040518091039020819055505b5050565b600080828401905083811015151561258a57fe5b8091505092915050565b828054600181600116156101000203166002900490600052602060002090601f016020900481019282601f106125d557803560ff1916838001178555612603565b82800160010185558215612603579182015b828111156126025782358255916020019190600101906125e7565b5b5090506126109190612631565b5090565b604080519081016040528060008152602001600060ff1681525090565b61265391905b8082111561264f576000816000905550600101612637565b5090565b905600a165627a7a72305820ebc860967275ee050d5a0d865a8adfd04237cd15ac57f2b0135af2fe2bebe9e90029",
  "source": "pragma solidity ^0.4.19;\r\n\r\nimport \"./SafeMath.sol\";\r\nimport \"./EMICalculator.sol\";\r\nimport \"./CollectFund.sol\";\r\n\r\ncontract PayInstallments is CollectFund {\r\n    \r\n    uint256 i = 0;\r\n    uint256 lateInstallmentFee;\r\n\r\n    struct Installment {\r\n        uint256 installmentAmount;\r\n        uint8 remainingTenure;\r\n    }\r\n\r\n    mapping (string => Installment ) mapInstallmentsWithProposal;\r\n\r\n    event InstallmentTransfer(string _proposalID, uint256 _amount, address _from, address _to );\r\n\r\n    modifier checkInstallmentTenure(string _proposalID) {\r\n        if ( mapInstallmentsWithProposal[_proposalID].remainingTenure > 0) \r\n        _;\r\n    }\r\n\r\n    function setLateInstallmentFee (uint256 _amount) onlyAdmin {\r\n        lateInstallmentFee = _amount;\r\n    }\r\n    \r\n    function calculateInstallment (string _proposalID) returns (uint256 _installmentAmount) {\r\n        BorrowerProposal storage currentProposal = mapProposalsWithProposalIDs[_proposalID];\r\n        uint256 installmentAmount = EMICalculator.calculateInstallment(currentProposal.fundingGoal, currentProposal.interestRate, currentProposal.tenureInMonths);\r\n        mapInstallmentsWithProposal[_proposalID] = Installment(installmentAmount, currentProposal.tenureInMonths);\r\n        return mapInstallmentsWithProposal[_proposalID].installmentAmount;\r\n    }\r\n\r\n    function getDueInstallment(string _proposalID) view returns (uint256 _installment) { \r\n        if (getDaysRemainingInInstallmentDue(_proposalID) > 0) {\r\n            return mapInstallmentsWithProposal[_proposalID].installmentAmount;\r\n        }\r\n        else {\r\n            return (mapInstallmentsWithProposal[_proposalID].installmentAmount + lateInstallmentFee);\r\n        }\r\n    }\r\n\r\n    function payInstallment(string _proposalID) payable checkProposalOwner(_proposalID) checkInstallmentTenure(_proposalID) {\r\n        Installment storage currentInstallment = mapInstallmentsWithProposal[_proposalID];\r\n        LenderInfo storage currentLenderInfo;\r\n        if (msg.value == getDueInstallment(_proposalID)){\r\n            for (i = 0; i < mapLendersWithProposal[_proposalID].length ; i++) {\r\n            address currentLender = mapLendersWithProposal[_proposalID][i];\r\n            currentLenderInfo = mapProposalWithLenderInfo[_proposalID][currentLender];\r\n            uint256 amount = SafeMath.div((SafeMath.mul(currentInstallment.installmentAmount, currentLenderInfo.fundRatio)), 100);\r\n            if (currentLender.send(amount)) {\r\n                InstallmentTransfer(_proposalID, amount, mapProposalWithOwner[_proposalID], currentLender);\r\n                setNextDueDate(_proposalID);\r\n               }\r\n            }\r\n        }\r\n    }\r\n\r\n}",
  "sourcePath": "D:\\work\\P2P-Lending\\WithSafeMath\\contracts\\PayInstallments.sol",
  "compiler": {
    "name": "solc",
    "version": "0.4.23+commit.124ca40d.Emscripten.clang"
  },
  "schemaVersion": "2.0.0",
  "updatedAt": "2018-05-10T09:59:50.979Z"
}